:020000040800F2
:105000000080012061570008395700083B5700080D
:105010003D5700083F5700084157000800000000B6
:1050200000000000000000000000000043570008DE
:10503000455700080000000047570008495700087E
:10504000B1570008B1570008B1570008B157000820
:10505000B1570008B1570008B1570008B157000810
:10506000B1570008B1570008B1570008B157000800
:10507000B1570008B1570008B1570008B1570008F0
:10508000B1570008B1570008B1570008B1570008E0
:10509000B1570008B1570008B1570008B1570008D0
:1050A000B1570008B1570008B1570008B1570008C0
:1050B000B1570008B1570008B1570008B1570008B0
:1050C000B1570008B1570008B1570008B1570008A0
:1050D000B1570008B1570008B1570008B157000890
:1050E000B1570008B1570008B1570008B157000880
:1050F000B1570008B1570008B1570008B157000870
:10510000B1570008B1570008B1570008B15700085F
:10511000B1570008B1570008B1570008B15700084F
:10512000B1570008B1570008B1570008B15700083F
:10513000B1570008B1570008B1570008B15700082F
:10514000B1570008B1570008B1570008B15700081F
:10515000B1570008B1570008B1570008B15700080F
:10516000B1570008B1570008B1570008B1570008FF
:10517000B1570008B1570008B157000800000000FF
:08518000B1570008B157000807
:1051880010B5054C237833B9044B13B10448AFF379
:1051980000800123237010BD0C00002000000000D7
:1051A800A86E000808B5034B1BB103490348AFF3C9
:1051B800008008BD0000000010000020A86E000854
:1051C80053B94AB9002908BF00281CBF4FF0FF3166
:1051D8004FF0FF3000F088B9ADF1080C6DE904CE4E
:1051E80000F006F8DDF804E0DDE9022304B07047BA
:1051F8002DE9F047089D8E4604468846002B4AD183
:105208008A42174662D9B2FA82F64EB1C6F1200335
:1052180001FA06F820FA03F3B74043EA0808B44055
:105228004FEA174E1FFA87FCB8FBFEF1230C0EFB62
:10523800118843EA084301FB0CF29A4209D9FB188A
:1052480001F1FF3080F0EA809A4240F2E7800239AB
:105258003B449A1AA3B2B2FBFEF00EFB102243EABB
:10526800024300FB0CFC9C4509D9FB1800F1FF32F6
:1052780080F0D6809C4540F2D3803B44023840EA17
:105288000140A3EB0C0300211DB1F3400022C5E946
:105298000032BDE8F0878B4205D90DB1C5E90001A0
:1052A80000210846F5E7B3FA83F1002946D1734592
:1052B80002D3824200F20581841A6EEB03020120B8
:1052C8009046002DE5D0C5E90048E2E7002A00F045
:1052D8009080B2FA82F6002E40F0A4808A1A030C5D
:1052E8004FEA174E80B2BCB20121B2FBFEFC0EFBA6
:1052F8001C2243EA024304FB0CF29A4207D9FB182A
:105308000CF1FF3802D29A4200F2E080C4469B1AA0
:10531800B3FBFEF20EFB123340EA034302FB04F434
:105328009C4207D9FB1802F1FF3002D29C4200F2DE
:10533800CA8002461B1B42EA0C40A5E7C1F12006C1
:105348008B4022FA06F71F430EFA01F420FA06F3FF
:105358002EFA06FE4FEA1749234300FA01F81FFA0E
:1053680087FCBEFBF9F01C0C09FB10EE44EA0E4466
:1053780000FB0CFEA64502FA01F209D93C1900F11E
:10538800FF3A80F09C80A64540F2998002383C4460
:10539800A4EB0E041FFA83FEB4FBF9F309FB1344D4
:1053A8004EEA044403FB0CFCA44508D93C1903F15C
:1053B800FF3E80F08280A4457FD9023B3C4443EA0B
:1053C8000040A4EB0C04A0FB02EC64457346E146E4
:1053D80062D35FD05DB1B8EB030264EB090404FA51
:1053E80006F622FA01F31E43CC40C5E90064002109
:1053F8004FE7B1FBF2FC010C41EA0E4180B240EAF2
:1054080001423B4638463C46B846BE462026B1FBDC
:10541800F7F1A2EB080241EA0C4166E7014618E7FA
:1054280010462CE7C6F120022EFA02F3B740B1402D
:1054380020FA02F24FEA174E0A43B3FBFEF8BCB259
:105448000EFB1833110C41EA034108FB04F9B04084
:1054580089454FEA104380B23ED9791808F1FF3CDC
:1054680001D289451FD8A1EB0901B1FBFEF909FB5F
:1054780004F80EFB191192B242EA0142424529D2C0
:10548800BA1809F1FF31C4D24245C2D2A9F10201CA
:105498003A44BEE7F0459DD2BEEB02036CEB070C25
:1054A8000138E14696E7A7EB09094944A8F1020C3F
:1054B800B1FBFEF909FB04F8DBE773467FE75046CA
:1054C80066E70846FDE63B44023A33E7ACF1020CD6
:1054D8003B441CE749469CE7A1EB0901C446B1FBE4
:1054E800FEF909FB04F8C4E7704700BF00B597B0A0
:1054F8004422002105A801F0A7FC142200216846D7
:1055080001F0A2FC4FF4007000F0F2FA08B172B694
:10551800FEE710224FF480710120CDE908120A221B
:105528000223CDE91102072205A8CDE90F33CDE901
:1055380013230593159300F09DFB08B172B6FEE79F
:10554800CDE902000F220323049004216846CDE927
:10555800002300F00DFE08B172B6FEE717B05DF843
:1055680004FB000000B58BB000F046F9FFF7BEFF62
:10557800142200210DEB020001F066FC394B3A4D74
:10558800DA6C42F00402DA64DA6C02F00402019286
:10559800019ADA6C42F08002DA64DA6C02F0800276
:1055A8000292029ADA6C42F00102DA64DA6C02F0D2
:1055B80001020392039ADA6C42F00202DA64DB6CAD
:1055C80003F002030493002220214FF090400024AE
:1055D800049B00F07FFA4FF400524FF40413234861
:1055E800079405A9CDE9052300F09AF901232021A4
:1055F800CDE905134FF0904005A9CDE9074400F027
:105608008FF91B484FF4E133C0E900530C23C0E97C
:105618000244C0E90534C0E907440461446201F06A
:10562800E5FB08B172B6FEE7124B05AA03F10805BF
:1056380018685968144603C40833AB422246F7D1A8
:10564800186899889B792060A180A371084C64230D
:105658000F2205A9204601F01FFB4FF4FA6000F065
:10566800F3F8F4E700100240004400400008004846
:1056780028000020C06E000872B6FEE70A4B1A6EBA
:1056880042F0010282B01A661A6E02F0010200921C
:10569800009A9A6D42F080529A659B6D03F0805390
:1056A8000193019B02B070470010024010B5AAB0E8
:1056B80004461422002103A801F0C6FB8822002119
:1056C80008A801F0C1FB2268174B9A4229D102238E
:1056D80008A8089300F01AFF08B1FFF7CDFF134B95
:1056E8009A6D42F400329A659A6D02F40032019282
:1056F800019ADA6C42F00102DA64DB6C03F0010310
:105708000293029B0C2202230021CDE903230323E9
:10571800CDE905134FF09040072303A9079300F044
:10572800FFF82AB010BD00BF00440040001002403E
:10573800FEE7FEE7FEE7FEE7FEE7704770477047C3
:1057480000F070B8034AD2F8883043F47003C2F806
:105758008830704700ED00E0DFF834D0FFF7F2FF43
:105768000C480D490D4A002302E0D458C4500433B4
:10577800C4188C42F9D30A4A0A4C002301E013608A
:105788000432A242FBD301F067FBFFF7EBFEFEE712
:1057980000800120000000200C000020286F000875
:1057A8000C000020B4000020FEE7000038B50F4BC5
:1057B8001A7805460AB9012038BD4FF47A73B3FB4D
:1057C800F2F30B4A1068B0FBF3F000F095F80446CA
:1057D8000028F0D10F2DEED8024629464FF0FF30B1
:1057E80000F058F8034B20461D60E5E70400002050
:1057F8000000002008000020094A136843F4807361
:1058080010B50320136000F033F80020FFF7CEFF37
:10581800044618B9FFF732FF204610BD0124FBE704
:1058280000200240034A044B11681B780B441360A4
:10583800704700BFB000002004000020014B18682A
:10584800704700BFB000002038B50446FFF7F6FFE8
:10585800631C1CBF054B1B78054618BFE418FFF7EF
:10586800EDFF431BA342FAD338BD00BF040000205C
:105878000749CA6822F4E0620302120403F4E063F1
:10588800120C134343F0BF6343F40033CB607047FB
:1058980000ED00E0164B30B5DC68C4F30224C4F117
:1058A8000703251D042B28BF0423062D4FF0FF35C1
:1058B8008CBF033C002405FA03F321EA0303A54047
:1058C80022EA0502A340002843EA0203ACBF00F124
:1058D8006040084A4FEA0313B8BF00F00F00DBB27C
:1058E800AABF00F56140135480F8003330BD00BFF3
:1058F80000ED00E014ED00E00138B0F1807F0BD23C
:105908004FF0E023054A5861F02182F82310002067
:10591800072298611A6170470120704700ED00E086
:105928002DE9F74FDFF8A891674C00230A6832FA8F
:1059380003F502D103B0BDE8F08F012505FA03F89D
:1059480018EA020200F0B1804D68032705F003064B
:105958004FEA430E07FA0EFC771E012F6FEA0C0C74
:1059680034D8876807EA0C0ACF6807FA0EF747EABF
:105978000A078760476827EA0808C5F300179F40A9
:1059880047EA08074760C76807EA0C088F6807FAFC
:105998000EF747EA0807022EC76022D14FEAD3085C
:1059A80000EB880803F0070AD8F820704FEA8A0A43
:1059B8004FF00F0B0BFA0AFB27EA0B0B0F6907FADC
:1059C8000AF747EA0B07C8F820700AE0032EDAD175
:1059D800C76A27EA0808C5F3C0079F4047EA0807CF
:1059E800C762076806FA0EF607EA0C073E4315F485
:1059F800403F066059D0D9F8606046F00106C9F802
:105A08006060D9F8606023F0030707F1804706F06B
:105A1800010607F58037019603F0030C019EBE6866
:105A28004FEA8C0C4FF00F0E0EFA0CFEB0F1904FAF
:105A380026EA0E0E3BD0254EB0423AD006F58066D7
:105A4800B04238D006F58066B04236D006F580669A
:105A5800B04234D006F58066B04232D006F5806692
:105A6800B04214BF0726062606FA0CF646EA0E06CA
:105A7800BE60A668D74315F4801F0CBF3E4016438E
:105A8800A660E66815F4001F0CBF3E401643E660AA
:105A9800666815F4003F0CBF3E40164366602668F2
:105AA800ED0354BF3E401643266001333EE700260F
:105AB800DAE70126D8E70226D6E70326D4E7042644
:105AC800D2E70526D0E700BF0004014000040048E3
:105AD800001002400AB1816170478162704700007E
:105AE800024B186800F4C060704700BF00700040A7
:105AF800174A1368B0F5007F03F4C0631BD1B3F5F0
:105B0800007F1BD0136823F4C06343F40073136051
:105B1800104B1B6832214B430F49B3FBF1F30133A0
:105B28005169490500D523B953695B0506D503209A
:105B38007047013BF4E7B3F5806F01D1002070474F
:105B4800136823F4C06343F480631360F6E700BF6F
:105B5800007000400000002040420F0037B51E4D85
:105B6800AB6DDA00044618D5FFF7BAFFB0F5007F31
:105B780023D1802C29D9A02C8CBF022401241749B9
:105B88000A6822F0070222430A60086800F007004A
:105B9800001B18BF012003B030BDAB6D43F080532C
:105BA800AB65AB6D03F080530193019BFFF798FF42
:105BB800AB6D23F08053AB65D8E7802C07D808D0AD
:105BC800A4F170035C425C41D9E70024D7E70324C1
:105BD800D5E70224D3E700BF0010024000200240AE
:105BE800204B9A68D96812F00C0205D00C2A2CD1E7
:105BF80001F0030101292FD119681B48090755BF76
:105C0800D3F894101968C1F30321C1F3031150F8B4
:105C1800210032B3DA6802F00302022A1ED01349C7
:105C2800032A08BF0846D968DA68C2F30622424345
:105C3800D868C0F34160C1F302110130013140005E
:105C4800B2FBF1F2B2FBF0F07047042A08D0082A40
:105C5800064818BF002070470020DBE70448E2E749
:105C68000348704700100240D06E000800127A0006
:105C78000024F4002DE9F743054618B9012003B0C4
:105C8800BDE8F083924C0368A668E768D80606F07A
:105C98000C0607F003073DD51EB10C2E66D1012F67
:105CA80064D12368990702D5AB69002BE6D0236835
:105CB800286A1A0756BFD4F8943023681B0903F0E2
:105CC800F00398423BD9FFF749FF0028D6D1236853
:105CD80043F00803236023682A6A23F0F003134380
:105CE80023606368EA6923F47F4343EA022363601D
:105CF800FFF776FFA368774AC3F30313D35C03F077
:105D08001F03D840744B1860744B1868FFF74EFD9A
:105D18000028B4D12B68D9075FD42B689A0700F103
:105D28009E802B68190700F1DB802B685A0700F169
:105D38000181AB6A002B40F06A8100209FE723684D
:105D480043F008032360236823F0F0030343236030
:105D58006368EA6923F47F4343EA02236360002E01
:105D6800C6D1FFF7FBFE0028C2D087E7AB691BB39B
:105D7800236843F001032360FFF760FD8046236832
:105D88009B0711D5236843F00803236023682A6A18
:105D980023F0F003134323606368EA6923F47F4325
:105DA80043EA02236360B5E7FFF748FDA0EB08006C
:105DB8000228E4D9032062E7236823F00103236063
:105DC800FFF73CFD804623689807A3D5FFF736FD0B
:105DD800A0EB08000228F6D9ECE7082E03D00C2E19
:105DE80008D1032F06D123689B0396D56B68002B37
:105DF80093D143E76B68B3F5803F10D1236843F430
:105E080080332360FFF71AFD80462368980384D403
:105E1800FFF714FDA0EB08006428F6D9CAE7B3F52C
:105E2800A02F04D1236843F480232360E6E7226887
:105E380022F480322260226822F480222260002B21
:105E4800E0D1FFF7FBFC8046236899037FF565AF37
:105E5800FFF7F4FCA0EB08006428F5D9AAE7042EA4
:105E680003D00C2E10D1022F0ED123685A0503D56A
:105E7800EB68002B3FF402AF63682A6923F0F853FC
:105E880043EA026363604CE7EB687BB1236843F441
:105E980080732360FFF7D2FC074623685B05EBD4C9
:105EA800FFF7CCFCC01B0228F7D983E7236823F44B
:105EB80080732360FFF7C2FC0746236858057FF507
:105EC80030AFFFF7BBFCC01B0228F6D972E700BF52
:105ED80000100240086F00080000002008000020A1
:105EE8006B699BB1D4F8943043F00103C4F8943043
:105EF800FFF7A4FC0746D4F894309B073FF515AF8D
:105F0800FFF79CFCC01B0228F5D953E7D4F894305E
:105F180023F00103C4F89430FFF790FC0746D4F847
:105F2800943098077FF501AFFFF788FCC01B022863
:105F3800F5D93FE7A36DD90029D4A36D43F0805369
:105F4800A365A36D03F080530193019B4FF00108F3
:105F5800844F3B68DA051DD5AB68012B2BD1D4F8EB
:105F6800903043F00103C4F89030FFF767FC41F22A
:105F780088390746D4F89030980742D5B8F1000F11
:105F88003FF4D7AEA36D23F08053A365D1E64FF05D
:105F98000008DDE73B6843F480733B60FFF74EFC85
:105FA80081463B68DB05D7D4FFF748FCA0EB090026
:105FB8000228F6D9FEE6052B06D1D4F8903043F036
:105FC8000403C4F89030CAE7D4F8902022F0010204
:105FD800C4F89020D4F8902022F00402C4F890204D
:105FE800002BC2D1FFF72AFC41F288390746D4F8C2
:105FF80090309907C2D5FFF721FCC01B4845F6D958
:10600800D8E6FFF71BFCC01B4845B3D9D2E6022BE4
:1060180040F08F80E368EA6A03F00301914224D1DB
:10602800296B03F070020139B2EB011F1DD1696BB6
:1060380003F4FE42B2EB012F17D1AA6B073A03F41F
:10604800003118BF012291420FD1EA6B520803F4C4
:10605800C001013AB1EB425F07D12A6C520803F044
:10606800C063013AB3EB426F4AD00C2E3FF406AE40
:1060780023685A013FF502AE2368DB003FF5FEAD09
:10608800236823F080732360FFF7D8FB0646236854
:106098009F012FD4E268344B1340EA6A13436A6BBA
:1060A80043EA02232A6B013A43EA0213AA6B120954
:1060B80043EA4243EA6B5208013A43EA42532A6CE4
:1060C8005208013A43EA4263E360236843F080736D
:1060D8002360E36843F08073E360FFF7AFFB054696
:1060E800236898013FF529AEFFF7A8FB401B02285B
:1060F800F6D95FE6FFF7A2FB801B0228C7D959E64D
:10610800236899013FF519AE236843F08073236033
:10611800E36843F08073E360FFF790FB054623686C
:106128009A013FF50AAEFFF789FB401B0228F6D912
:1061380040E60C2E3FF4A2AD236823F08073236061
:10614800FFF77CFB054623689B0104D4E268074BF4
:106158001340E360F1E5FFF771FB401B0228F2D919
:1061680028E600BF007000408C809DF9FCFFEEFE21
:106178002DE9F0410D46044610B90120BDE8F08133
:106188004B4A136803F007038B422CD32168880716
:1061980034D4C9073FD421688A0768D4444A1368AD
:1061A80003F00703AB426FD811F0040F414D77D1CC
:1061B8000B0706D5AB68226923F4605343EAC20390
:1061C800AB60FFF70DFDAB683B4AC3F30313BDE8B3
:1061D800F041D35C03F01F03D840384B1860384BAC
:1061E8001868FFF7E3BA136823F007030B4313603B
:1061F800136803F007038B42BFD1C7E72D4AA06895
:10620800936803F0F003984281BF936823F0F0038A
:1062180003439360BDE76268264E032A33681AD1A8
:1062280013F0007FA9D0B36823F003031343B360CE
:10623800FFF704FB41F288380746B368626803F049
:106248000C03B3EB820FA6D0FFF7F8FAC01B40454A
:10625800F3D9032092E7022A02D113F4003FE1E7C1
:1062680012B913F0020FDDE713F4806FDAE7114A71
:10627800A068936803F0F00398423FBF936823F047
:10628800F0030343936089E7136823F007032B4364
:106298001360136803F00703AB427FF46EAF83E724
:1062A800AB68E26823F4E0631343AB6080E700BFA8
:1062B8000020024000100240086F00080000002083
:1062C80008000020054B064A9B68C3F30223D35CF1
:1062D800044A106803F01F03D840704700100240BA
:1062E800006F000800000020054B064A9B68C3F3B6
:1062F800C223D35C044A106803F01F03D8407047D8
:1063080000100240006F000800000020F8B5414C62
:10631800E3689B0705460E46006828D0E36803F04B
:10632800030383423AD1002B38D0E3686A68C3F389
:1063380002130133934231D1236823F08063236031
:10634800FFF77CFA074623681A0130D4AA681202BC
:10635800A6B3012E23694CD1296923F4C003490847
:1063680023F4FE430139134343EA415330E0022842
:1063780010D0032814D0012810D123689F071CD5FA
:10638800E3686A6823F07303013A034343EA02139C
:10639800E360D1E7236813F4806FF1D101200CE0AA
:1063A80023689903ECD4236813F4802FF5E7FFF7EB
:1063B80045FAC01B0228C6D90320F8BD2369E9683D
:1063C80023F41F3323F440730909134343EA414379
:1063D8002361236843F080632360FFF72FFA0646A2
:1063E80023681B0110D52369AA6913432361002080
:1063F800E3E7696923F0C063490823F4FE430139E0
:10640800134343EA4163E3E7FFF718FA801B0228C6
:10641800E6D9D1E700100240F8B53B4CE3689B078A
:1064280005460E46006826D0E36803F0030383425E
:1064380038D1002B36D0E3686A68C3F302130133FE
:1064480093422FD1236823F080532360FFF7F6F996
:10645800074623689A002ED4A968090296B363698F
:106468002A6923F0C063520823F4FE43013A0B4320
:1064780043EA426330E0022810D0032814D00128F0
:1064880010D123689F071CD5E3686A6823F073035B
:10649800013A034343EA0213E360D3E7236813F4A2
:1064A800806FF1D101200CE023689903ECD42368B4
:1064B80013F4802FF5E7FFF7C1F9C01B0228C8D9EC
:1064C8000320F8BD6369EA6823F41F3323F440739B
:1064D80012090B4343EA42436361236843F0805344
:1064E8002360FFF7ABF9064623689B0005D563696F
:1064F8006A69134363610020E3E7FFF79FF9801B94
:106508000228F1D9DCE700BF0010024003682DE93A
:10651800F3471D05044628D5416EB1F5000F26D076
:1065280017D851B3B1F5800F2ED001252368D804B0
:106538000DD5A16EB1F1007F00F0488129D800295E
:1065480000F04A81B1F1807F00F04B8101252F4690
:106558002FE0B1F5400FE8D1AC4A616ED2F888302F
:1065680023F440030B43C2F888300025DEE7A74A2E
:10657800D36843F48033D360EEE70430FFF7C6FEF8
:1065880005460028D2D1E7E700212030FFF744FF75
:10659800F6E7B1F1407FD9D12F46002F40F027818F
:1065A8009A4AA16ED2F8883023F040730B43C2F8A0
:1065B8008830236899033AD5944EB36DDA0000F118
:1065C8001881B36D43F08053B365B36D03F0805306
:1065D8000193019B4FF00108DFF83492D9F800309D
:1065E80043F48073C9F80030FFF728F98246D9F8D8
:1065F8000030DB0540F100818FB9D6F89030D4F82F
:10660800842013F4407340F00581D6F89030D4F814
:10661800842023F440731343C6F890302F46B8F112
:10662800000F03D0B36D23F08053B3653D46236854
:10663800DA0708D57549A06BD1F8882022F0030243
:106648000243C1F888209F0708D57049E06BD1F84C
:10665800882022F00C020243C1F888205E0708D582
:106668006A49206CD1F8882022F030020243C1F830
:106678008820180708D56549606CD1F8882022F071
:10668800C0020243C1F88820D90608D55F49A06C2A
:10669800D1F8882022F440720243C1F888209A0673
:1066A80008D55A49E06CD1F8882022F440620243A8
:1066B800C1F888209F0508D55449E06DD1F8882095
:1066C80022F440220243C1F888205E0508D54F49CC
:1066D800206ED1F8882022F440120243C1F88820A5
:1066E800580608D54949206DD1F8882022F440522F
:1066F8000243C1F88820190608D54449606DD1F8CD
:10670800882022F440420243C1F88820DA0508D5DF
:106718003E49A06DD1F8882022F440320243C1F8E6
:1067280088209F0410D5394AE16ED2F8883023F0CA
:1067380040630B43B1F1006FC2F8883040F092809B
:10674800D36843F48013D3602F4623681E0310D503
:106758002E4A216FD2F8883023F040630B43B1F101
:10676800006FC2F8883040F08A80D36843F4801301
:10677800D3603E4623685D0310D5244A616FD2F882
:10678800883023F040630B43B1F1006FC2F88830C2
:1067980040F08280D36843F48013D3603546236881
:1067A800580440F189801949A26FD1F8883023F044
:1067B80040531343B2F1805FC1F8883079D1022188
:1067C800201DFFF7A3FD002876D076E00F4AD36896
:1067D80043F48033D360DFE6201DFFF797FD0746BB
:1067E800DBE6002104F12000FFF716FEF7E73D463F
:1067F800DFE64FF00008EFE6FFF720F8A0EB0A000D
:1068080002287FF6F4AE032709E700BF0010024014
:106818000070004093423FF4F8AED6F89020D6F8C6
:10682800903043F48033C6F89030D6F8903022F494
:10683800407123F48033D007C6F89030C6F8901022
:106848007FF5E3AEFEF7FAFF41F288390746D6F83E
:10685800903099073FF5D9AEFEF7F0FFC01B4845C9
:10686800F5D9D0E7B1F1806F7FF46EAF0121201D1B
:10687800FFF74CFD074600283FF466AF65E7B1F126
:10688800806F7FF476AF0121201DFFF73FFD06469C
:1068980000283FF46EAF6DE7B1F1806F7FF47EAFF3
:1068A8000121201DFFF732FD054600283FF476AF91
:1068B80075E7B2F1005F1BD028462268110408D59D
:1068C8000E49E56FD1F8883023F080432B43C1F897
:1068D8008830D30309D5094AD4F88010D2F8883013
:1068E80023F000430B43C2F8883002B0BDE8F087BC
:1068F800022104F12000FFF78FFD64E70010024039
:10690800026852E8003F23F4907342E800310268BD
:106918000029F5D102F1080353E8003F23F00103F1
:1069280002F1080C4CE800310029F3D1036E012B69
:1069380007D152E8003F23F0100342E80031002954
:10694800F7D12023C0F880300023036683667047A0
:1069580038B50446C0692169A26823680A43616999
:106968001D680A437449024329400A431A605A6859
:10697800E16822F440520A435A60704AA16993427E
:106988001CBF226A11439A6822F430620A439A6053
:106998006B4A93422AD16B4BD3F8883003F0030338
:1069A800022B00F0C180032B00F0B180012B00F016
:1069B800B580B0F5004F40F0BC80FFF795FC00288B
:1069C8006FD06268530803EB4003B3FBF2F34FF652
:1069D800EF72A3F1100191421FD823F00F02216832
:1069E80092B2C3F342031343CB605AE0564A934230
:1069F80015D1544BD3F8883003F00C03082B00F062
:106A0800938008D8002B40F08980B0F5004F69D1F9
:106A1800FFF758FCD3E70C2B79D0012042E04B4A12
:106A2800934209D1474BD3F8883003F03003202B29
:106A38007AD0E7D9302BEFE7454A934209D1414B49
:106A4800D3F8883003F0C003802B6DD0DAD9C02B7F
:106A5800E2E7404A93420BD13A4BD3F8883003F42B
:106A68004073B3F5007F5FD0CCD9B3F5407FD3E74F
:106A7800324A9342D1D1334BD3F8883003F4406380
:106A8800B3F5006F12D003D843B9FFF71BFC07E03A
:106A9800B3F5406FC1D14FF4004008E0FFF7A0F80C
:106AA80028B900200023C4E91A3338BD2A4862688F
:106AB80002EB42038342B0D8B0EB023FADD8510895
:106AC80000238C464FF480751946E0FB05C16046EB
:106AD800FEF776FB214BA0F540729A429DD82368B9
:106AE800D860DEE7FFF7EEFB0028DAD0626800EB3B
:106AF8005203B3FBF2F34FF6EF72A3F11001914288
:106B08008BD82268D360CCE7FFF76AF8ECE7B0F5DA
:106B1800004F3FF456AF4FF40040E7E7B0F5004FA1
:106B2800F2D1FFF75DF84AE7B0F5004F0A48DDD12A
:106B380047E7FFF7D9FBD7E7F369FFEF008000408D
:106B48000038014000100240004400400048004066
:106B5800004C0040005000400024F400FFFC0F00EF
:106B6800436A1A0710B506D50168446B4A6822F4CF
:106B7800004222434A60DC0706D50168846A4A68F5
:106B880022F4003222434A60990706D50168C46A94
:106B98004A6822F4803222434A605A0706D50168BF
:106BA800046B4A6822F4802222434A60DC0606D538
:106BB8000168846B8A6822F4805222438A609906AD
:106BC80006D50168C46B8A6822F4005222438A60A1
:106BD8005A060FD50168046C4A6822F480122243D1
:106BE800B4F5801F4A6005D14A68446C22F4C0029B
:106BF80022434A601B0606D50268816C536823F459
:106C080000230B43536010BD2DE9F843DDF82090B5
:106C180004460D46174698462268D36935EA0303A9
:106C28000CBF01230023BB4201D0002022E0B9F1B0
:106C3800FF3FF2D0FEF702FEA0EB0800484529D836
:106C4800B9F1000F26D021680B685A07E4D5802DCA
:106C5800E2D0402DE0D0CE6916F008060CD0082509
:106C680020460D62FFF74CFE0023C4F8845084F8D8
:106C780078300120BDE8F883CB691B05CCD54FF4EB
:106C880000630B622046FFF73BFE2023C4F88430E4
:106C980084F878600320EDE72DE9F7439846C36F41
:106CA800202B04460E46174643D1002943D0002A1C
:106CB80041D021230025C0F88450C367FEF7BEFDEC
:106CC800A368A4F85070B3F5805F8146A4F85270A9
:106CD80003D123690BB935461E46B4F85220CDF8C6
:106CE800008092B24B463AB940212046FFF78CFF0C
:106CF800202340B9E36708E0002280212046FFF7FF
:106D080083FF28B12023E367032003B0BDE8F083A5
:106D180022685EB935F8023BC3F308031385B4F85B
:106D28005220013A92B2A4F85220D6E716F8013B55
:106D3800F4E70220E9E70120E7E773B504460026F7
:106D4800C0F88460FEF77AFD23681B681A070546B9
:106D58001BD56FF07E430093324603464FF4001173
:106D68002046FFF751FF80B1226852E8003F23F028
:106D7800800342E800310029F6D12023E36703208D
:106D8800002384F8783002B070BD23681B685B0765
:106D980024D56FF07E43009300222B464FF48001E8
:106DA8002046FFF731FFC8B1226852E8003F23F4BC
:106DB800907342E8003122680029F5D102F10803F6
:106DC80053E8003F23F0010302F1080040E80031D6
:106DD8000029F3D12023C4F88030D0E720230020F5
:106DE800E367C4F8803020666066C9E710B50446DA
:106DF80040B3C36F1BB980F87830FEF757FC2268A0
:106E08002423E367136823F001031360636A13B153
:106E18002046FFF7A5FE2046FFF79AFD012811D06E
:106E280023685A6822F490425A609A6822F02A022B
:106E38009A601A6842F0010220461A60BDE81040C4
:106E4800FFF77BBF012010BD02440346934200D1E7
:106E5800704703F8011BF9E770B50D4D0D4C641B25
:106E6800A4100026A64209D10B4D0C4C00F018F8CE
:106E7800641BA4100026A64205D170BD55F8043B3A
:106E880098470136EEE755F8043B98470136F2E794
:106E9800206F0008206F0008206F0008246F00088A
:106EA800F8B500BFF8BC08BC9E467047F8B500BFEF
:086EB800F8BC08BC9E467047BF
:106EC000617070322065786563757465640A0000CE
:106ED000A0860100400D0300801A060000350C005A
:106EE00040420F0080841E0000093D0000127A001D
:106EF0000024F40000366E010048E801006CDC025A
:106F00000000000001020304000000000000000077
:086F1000010203040607080951
:086F1800E0E2FF7F0100000030
:046F2000AD51000867
:046F24008951000887
:0C6F280000093D00010000001000000006
:040000050800576137
:00000001FF
