:020000040800F2
:1050000000800120B16A0308896A03088B6A0308DB
:105010008D6A03088F6A0308916A03080000000084
:10502000000000000000000000000000936A030878
:10503000956A030800000000976A0308996A03084C
:10504000016B0308016B0308016B0308016B030884
:10505000016B0308016B0308016B0308016B030874
:10506000016B0308016B0308016B0308016B030864
:10507000016B0308016B0308016B0308016B030854
:10508000016B0308016B0308016B0308016B030844
:10509000016B0308016B0308016B0308016B030834
:1050A000016B0308016B0308016B0308016B030824
:1050B000016B0308016B0308016B0308016B030814
:1050C000016B0308016B0308016B0308016B030804
:1050D000016B0308016B0308016B0308016B0308F4
:1050E000016B0308016B0308016B0308016B0308E4
:1050F000016B0308016B0308016B0308016B0308D4
:10510000016B0308016B0308016B0308016B0308C3
:10511000016B0308016B0308016B0308016B0308B3
:10512000016B0308016B0308016B0308016B0308A3
:10513000016B0308016B0308016B0308016B030893
:10514000016B0308016B0308016B0308016B030883
:10515000016B0308016B0308016B0308016B030873
:10516000016B0308016B0308016B0308016B030863
:10517000016B0308016B0308016B030800000000CA
:08518000016B0308016B030839
:1051880010B5054C237833B9044B13B10448AFF379
:1051980000800123237010BD0C00002000000000D7
:1051A800E081030808B5034B1BB103490348AFF37B
:1051B800008008BD0000000010000020E081030806
:1051C80053B94AB9002908BF00281CBF4FF0FF3166
:1051D8004FF0FF3000F088B9ADF1080C6DE904CE4E
:1051E80000F006F8DDF804E0DDE9022304B07047BA
:1051F8002DE9F047089D8E4604468846002B4AD183
:105208008A42174662D9B2FA82F64EB1C6F1200335
:1052180001FA06F820FA03F3B74043EA0808B44055
:105228004FEA174E1FFA87FCB8FBFEF1230C0EFB62
:10523800118843EA084301FB0CF29A4209D9FB188A
:1052480001F1FF3080F0EA809A4240F2E7800239AB
:105258003B449A1AA3B2B2FBFEF00EFB102243EABB
:10526800024300FB0CFC9C4509D9FB1800F1FF32F6
:1052780080F0D6809C4540F2D3803B44023840EA17
:105288000140A3EB0C0300211DB1F3400022C5E946
:105298000032BDE8F0878B4205D90DB1C5E90001A0
:1052A80000210846F5E7B3FA83F1002946D1734592
:1052B80002D3824200F20581841A6EEB03020120B8
:1052C8009046002DE5D0C5E90048E2E7002A00F045
:1052D8009080B2FA82F6002E40F0A4808A1A030C5D
:1052E8004FEA174E80B2BCB20121B2FBFEFC0EFBA6
:1052F8001C2243EA024304FB0CF29A4207D9FB182A
:105308000CF1FF3802D29A4200F2E080C4469B1AA0
:10531800B3FBFEF20EFB123340EA034302FB04F434
:105328009C4207D9FB1802F1FF3002D29C4200F2DE
:10533800CA8002461B1B42EA0C40A5E7C1F12006C1
:105348008B4022FA06F71F430EFA01F420FA06F3FF
:105358002EFA06FE4FEA1749234300FA01F81FFA0E
:1053680087FCBEFBF9F01C0C09FB10EE44EA0E4466
:1053780000FB0CFEA64502FA01F209D93C1900F11E
:10538800FF3A80F09C80A64540F2998002383C4460
:10539800A4EB0E041FFA83FEB4FBF9F309FB1344D4
:1053A8004EEA044403FB0CFCA44508D93C1903F15C
:1053B800FF3E80F08280A4457FD9023B3C4443EA0B
:1053C8000040A4EB0C04A0FB02EC64457346E146E4
:1053D80062D35FD05DB1B8EB030264EB090404FA51
:1053E80006F622FA01F31E43CC40C5E90064002109
:1053F8004FE7B1FBF2FC010C41EA0E4180B240EAF2
:1054080001423B4638463C46B846BE462026B1FBDC
:10541800F7F1A2EB080241EA0C4166E7014618E7FA
:1054280010462CE7C6F120022EFA02F3B740B1402D
:1054380020FA02F24FEA174E0A43B3FBFEF8BCB259
:105448000EFB1833110C41EA034108FB04F9B04084
:1054580089454FEA104380B23ED9791808F1FF3CDC
:1054680001D289451FD8A1EB0901B1FBFEF909FB5F
:1054780004F80EFB191192B242EA0142424529D2C0
:10548800BA1809F1FF31C4D24245C2D2A9F10201CA
:105498003A44BEE7F0459DD2BEEB02036CEB070C25
:1054A8000138E14696E7A7EB09094944A8F1020C3F
:1054B800B1FBFEF909FB04F8DBE773467FE75046CA
:1054C80066E70846FDE63B44023A33E7ACF1020CD6
:1054D8003B441CE749469CE7A1EB0901C446B1FBE4
:1054E800FEF909FB04F8C4E7704700BF00B597B0A0
:1054F8004422002105A832F043FE14220021684608
:1055080032F03EFE4FF4007031F08EFC08B172B6F6
:10551800FEE710224FF480710120CDE908120A221B
:105528000223CDE91102072205A8CDE90F33CDE901
:1055380013230593159331F039FD08B172B6FEE7D0
:10554800CDE902000F220323049004216846CDE927
:10555800002331F0A9FF08B172B6FEE717B05DF875
:1055680004FB000000B589B031F0EEFAFFF7BEFF8A
:105578001422002103A832F003FE284BDA6C42F013
:105588000402DA64DA6C02F004020092009ADA6C1F
:1055980042F08002DA64DA6C02F080020192019A29
:1055A800DA6C42F00102DA64DB6C03F00103029367
:1055B800002220214FF090400024029B31F01EFC75
:1055C8004FF400524FF404131548059403A9CDE98C
:1055D800032331F039FB01232021CDE903134FF0D8
:1055E800904003A9CDE9054431F02EFB0D48DFF8C2
:1055F8003CC004614FF4E133C0E900C30C23C0E9A7
:105608000244C0E90534C0E90744446232F08AFD27
:10561800002871F0D581044C0AE000BF0010024058
:105628000008004828000020F881030800440040D2
:1056380020214FF0904031F0E6FB20214FF09040C0
:1056480031F0E1FB20214FF0904031F0DCFB2021CC
:105658004FF0904031F0D7FB20214FF0904031F0CF
:10566800D2FB20214FF0904031F0CDFB20214FF0AC
:10567800904031F0C8FB20214FF0904031F0C3FB3F
:1056880020214FF0904031F0BEFB20214FF0904098
:1056980031F0B9FB20214FF0904031F0B4FB2021CC
:1056A8004FF0904031F0AFFB20214FF0904031F0A7
:1056B800AAFB20214FF0904031F0A5FB20214FF0AC
:1056C800904031F0A0FB20214FF0904031F09BFB3F
:1056D80020214FF0904031F096FB20214FF0904070
:1056E80031F091FB20214FF0904031F08CFB2021CC
:1056F8004FF0904031F087FB20214FF0904031F07F
:1057080082FB20214FF0904031F07DFB20214FF0AB
:10571800904031F078FB20214FF0904031F073FB3E
:1057280020214FF0904031F06EFB20214FF0904047
:1057380031F069FB20214FF0904031F064FB2021CB
:105748004FF0904031F05FFB20214FF0904031F056
:105758005AFB20214FF0904031F055FB20214FF0AB
:10576800904031F050FB20214FF0904031F04BFB3E
:1057780020214FF0904031F046FB20214FF090401F
:1057880031F041FB20214FF0904031F03CFB2021CB
:105798004FF0904031F037FB20214FF0904031F02E
:1057A80032FB20214FF0904031F02DFB20214FF0AB
:1057B800904031F028FB20214FF0904031F023FB3E
:1057C80020214FF0904031F01EFB20214FF09040F7
:1057D80031F019FB20214FF0904031F014FB2021CB
:1057E8004FF0904031F00FFB20214FF0904031F006
:1057F8000AFB20214FF0904031F005FB20214FF0AB
:10580800904031F000FB20214FF0904031F0FBFA3E
:1058180020214FF0904031F0F6FA20214FF09040CF
:1058280031F0F1FA20214FF0904031F0ECFA2021CC
:105838004FF0904031F0E7FA20214FF0904031F0DE
:10584800E2FA20214FF0904031F0DDFA20214FF0AC
:10585800904031F0D8FA20214FF0904031F0D3FA3F
:1058680020214FF0904031F0CEFA20214FF09040A7
:1058780031F0C9FA20214FF0904031F0C4FA2021CC
:105888004FF0904031F0BFFA20214FF0904031F0B6
:10589800BAFA20214FF0904031F0B5FA20214FF0AC
:1058A800904031F0B0FA20214FF0904031F0ABFA3F
:1058B80020214FF0904031F0A6FA20214FF090407F
:1058C80031F0A1FA20214FF0904031F09CFA2021CC
:1058D8004FF0904031F097FA20214FF0904031F08E
:1058E80092FA20214FF0904031F08DFA20214FF0AC
:1058F800904031F088FA20214FF0904031F083FA3F
:1059080020214FF0904031F07EFA20214FF0904056
:1059180031F079FA20214FF0904031F074FA2021CB
:105928004FF0904031F06FFA20214FF0904031F065
:105938006AFA20214FF0904031F065FA20214FF0AB
:10594800904031F060FA20214FF0904031F05BFA3E
:1059580020214FF0904031F056FA20214FF090402E
:1059680031F051FA20214FF0904031F04CFA2021CB
:105978004FF0904031F047FA20214FF0904031F03D
:1059880042FA20214FF0904031F03DFA20214FF0AB
:10599800904031F038FA20214FF0904031F033FA3E
:1059A80020214FF0904031F02EFA20214FF0904006
:1059B80031F029FA20214FF0904031F024FA2021CB
:1059C8004FF0904031F01FFA20214FF0904031F015
:1059D8001AFA20214FF0904031F015FA20214FF0AB
:1059E800904031F010FA20214FF0904031F00BFA3E
:1059F80020214FF0904031F006FA20214FF09040DE
:105A080031F001FA20214FF0904031F0FCF92021CB
:105A18004FF0904031F0F7F920214FF0904031F0ED
:105A2800F2F920214FF0904031F0EDF920214FF0AC
:105A3800904031F0E8F920214FF0904031F0E3F93F
:105A480020214FF0904031F0DEF920214FF09040B6
:105A580031F0D9F920214FF0904031F0D4F92021CC
:105A68004FF0904031F0CFF920214FF0904031F0C5
:105A7800CAF920214FF0904031F0C5F920214FF0AC
:105A8800904031F0C0F920214FF0904031F0BBF93F
:105A980020214FF0904031F0B6F920214FF090408E
:105AA80031F0B1F920214FF0904031F0ACF92021CC
:105AB8004FF0904031F0A7F920214FF0904031F09D
:105AC800A2F920214FF0904031F09DF920214FF0AC
:105AD800904031F098F920214FF0904031F093F93F
:105AE80020214FF0904031F08EF920214FF0904066
:105AF80031F089F920214FF0904031F084F92021CC
:105B08004FF0904031F07FF920214FF0904031F074
:105B18007AF920214FF0904031F075F920214FF0AB
:105B2800904031F070F920214FF0904031F06BF93E
:105B380020214FF0904031F066F920214FF090403D
:105B480031F061F920214FF0904031F05CF92021CB
:105B58004FF0904031F057F920214FF0904031F04C
:105B680052F920214FF0904031F04DF920214FF0AB
:105B7800904031F048F920214FF0904031F043F93E
:105B880020214FF0904031F03EF920214FF0904015
:105B980031F039F920214FF0904031F034F92021CB
:105BA8004FF0904031F02FF920214FF0904031F024
:105BB8002AF920214FF0904031F025F920214FF0AB
:105BC800904031F020F920214FF0904031F01BF93E
:105BD80020214FF0904031F016F920214FF09040ED
:105BE80031F011F920214FF0904031F00CF92021CB
:105BF8004FF0904031F007F920214FF0904031F0FC
:105C080002F920214FF0904031F0FDF820214FF0AB
:105C1800904031F0F8F820214FF0904031F0F3F83F
:105C280020214FF0904031F0EEF820214FF09040C5
:105C380031F0E9F820214FF0904031F0E4F82021CC
:105C48004FF0904031F0DFF820214FF0904031F0D4
:105C5800DAF820214FF0904031F0D5F820214FF0AC
:105C6800904031F0D0F820214FF0904031F0CBF83F
:105C780020214FF0904031F0C6F820214FF090409D
:105C880031F0C1F820214FF0904031F0BCF82021CC
:105C98004FF0904031F0B7F820214FF0904031F0AC
:105CA800B2F820214FF0904031F0ADF820214FF0AC
:105CB800904031F0A8F820214FF0904031F0A3F83F
:105CC80020214FF0904031F09EF820214FF0904075
:105CD80031F099F820214FF0904031F094F82021CC
:105CE8004FF0904031F08FF820214FF0904031F084
:105CF8008AF820214FF0904031F085F820214FF0AC
:105D0800904031F080F820214FF0904031F07BF83E
:105D180020214FF0904031F076F820214FF090404C
:105D280031F071F820214FF0904031F06CF82021CB
:105D38004FF0904031F067F820214FF0904031F05B
:105D480062F820214FF0904031F05DF820214FF0AB
:105D5800904031F058F820214FF0904031F053F83E
:105D680020214FF0904031F04EF820214FF0904024
:105D780031F049F820214FF0904031F044F82021CB
:105D88004FF0904031F03FF820214FF0904031F033
:105D98003AF820214FF0904031F035F820214FF0AB
:105DA800904031F030F820214FF0904031F02BF83E
:105DB80020214FF0904031F026F820214FF09040FC
:105DC80031F021F820214FF0904031F01CF82021CB
:105DD8004FF0904031F017F820214FF0904031F00B
:105DE80012F820214FF0904031F00DF820214FF0AB
:105DF800904031F008F820214FF0904031F003F83E
:105E080020214FF0904030F0FEFF20214FF09040CD
:105E180030F0F9FF20214FF0904030F0F4FF2021BE
:105E28004FF0904030F0EFFF20214FF0904030F0DD
:105E3800EAFF20214FF0904030F0E5FF20214FF09D
:105E4800904030F0E0FF20214FF0904030F0DBFF31
:105E580020214FF0904030F0D6FF20214FF09040A5
:105E680030F0D1FF20214FF0904030F0CCFF2021BE
:105E78004FF0904030F0C7FF20214FF0904030F0B5
:105E8800C2FF20214FF0904030F0BDFF20214FF09D
:105E9800904030F0B8FF20214FF0904030F0B3FF31
:105EA80020214FF0904030F0AEFF20214FF090407D
:105EB80030F0A9FF20214FF0904030F0A4FF2021BE
:105EC8004FF0904030F09FFF20214FF0904030F08D
:105ED8009AFF20214FF0904030F095FF20214FF09D
:105EE800904030F090FF20214FF0904030F08BFF31
:105EF80020214FF0904030F086FF20214FF0904055
:105F080030F081FF20214FF0904030F07CFF2021BD
:105F18004FF0904030F077FF20214FF0904030F064
:105F280072FF20214FF0904030F06DFF20214FF09C
:105F3800904030F068FF20214FF0904030F063FF30
:105F480020214FF0904030F05EFF20214FF090402C
:105F580030F059FF20214FF0904030F054FF2021BD
:105F68004FF0904030F04FFF20214FF0904030F03C
:105F78004AFF20214FF0904030F045FF20214FF09C
:105F8800904030F040FF20214FF0904030F03BFF30
:105F980020214FF0904030F036FF20214FF0904004
:105FA80030F031FF20214FF0904030F02CFF2021BD
:105FB8004FF0904030F027FF20214FF0904030F014
:105FC80022FF20214FF0904030F01DFF20214FF09C
:105FD800904030F018FF20214FF0904030F013FF30
:105FE80020214FF0904030F00EFF20214FF09040DC
:105FF80030F009FF20214FF0904030F004FF2021BD
:106008004FF0904030F0FFFE20214FF0904030F0EC
:10601800FAFE20214FF0904030F0F5FE20214FF09D
:10602800904030F0F0FE20214FF0904030F0EBFE31
:1060380020214FF0904030F0E6FE20214FF09040B4
:1060480030F0E1FE20214FF0904030F0DCFE2021BE
:106058004FF0904030F0D7FE20214FF0904030F0C4
:10606800D2FE20214FF0904030F0CDFE20214FF09D
:10607800904030F0C8FE20214FF0904030F0C3FE31
:1060880020214FF0904030F0BEFE20214FF090408C
:1060980030F0B9FE20214FF0904030F0B4FE2021BE
:1060A8004FF0904030F0AFFE20214FF0904030F09C
:1060B800AAFE20214FF0904030F0A5FE20214FF09D
:1060C800904030F0A0FE20214FF0904030F09BFE31
:1060D80020214FF0904030F096FE20214FF0904064
:1060E80030F091FE20214FF0904030F08CFE2021BE
:1060F8004FF0904030F087FE20214FF0904030F074
:1061080082FE20214FF0904030F07DFE20214FF09C
:10611800904030F078FE20214FF0904030F073FE30
:1061280020214FF0904030F06EFE20214FF090403B
:1061380030F069FE20214FF0904030F064FE2021BD
:106148004FF0904030F05FFE20214FF0904030F04B
:106158005AFE20214FF0904030F055FE20214FF09C
:10616800904030F050FE20214FF0904030F04BFE30
:1061780020214FF0904030F046FE20214FF0904013
:1061880030F041FE20214FF0904030F03CFE2021BD
:106198004FF0904030F037FE20214FF0904030F023
:1061A80032FE20214FF0904030F02DFE20214FF09C
:1061B800904030F028FE20214FF0904030F023FE30
:1061C80020214FF0904030F01EFE20214FF09040EB
:1061D80030F019FE20214FF0904030F014FE2021BD
:1061E8004FF0904030F00FFE20214FF0904030F0FB
:1061F8000AFE20214FF0904030F005FE20214FF09C
:10620800904030F000FE20214FF0904030F0FBFD30
:1062180020214FF0904030F0F6FD20214FF09040C3
:1062280030F0F1FD20214FF0904030F0ECFD2021BE
:106238004FF0904030F0E7FD20214FF0904030F0D3
:10624800E2FD20214FF0904030F0DDFD20214FF09D
:10625800904030F0D8FD20214FF0904030F0D3FD31
:1062680020214FF0904030F0CEFD20214FF090409B
:1062780030F0C9FD20214FF0904030F0C4FD2021BE
:106288004FF0904030F0BFFD20214FF0904030F0AB
:10629800BAFD20214FF0904030F0B5FD20214FF09D
:1062A800904030F0B0FD20214FF0904030F0ABFD31
:1062B80020214FF0904030F0A6FD20214FF0904073
:1062C80030F0A1FD20214FF0904030F09CFD2021BE
:1062D8004FF0904030F097FD20214FF0904030F083
:1062E80092FD20214FF0904030F08DFD20214FF09D
:1062F800904030F088FD20214FF0904030F083FD31
:1063080020214FF0904030F07EFD20214FF090404A
:1063180030F079FD20214FF0904030F074FD2021BD
:106328004FF0904030F06FFD20214FF0904030F05A
:106338006AFD20214FF0904030F065FD20214FF09C
:10634800904030F060FD20214FF0904030F05BFD30
:1063580020214FF0904030F056FD20214FF0904022
:1063680030F051FD20214FF0904030F04CFD2021BD
:106378004FF0904030F047FD20214FF0904030F032
:1063880042FD20214FF0904030F03DFD20214FF09C
:10639800904030F038FD20214FF0904030F033FD30
:1063A80020214FF0904030F02EFD20214FF09040FA
:1063B80030F029FD20214FF0904030F024FD2021BD
:1063C8004FF0904030F01FFD20214FF0904030F00A
:1063D8001AFD20214FF0904030F015FD20214FF09C
:1063E800904030F010FD20214FF0904030F00BFD30
:1063F80020214FF0904030F006FD20214FF09040D2
:1064080030F001FD20214FF0904030F0FCFC2021BD
:106418004FF0904030F0F7FC20214FF0904030F0E2
:10642800F2FC20214FF0904030F0EDFC20214FF09D
:10643800904030F0E8FC20214FF0904030F0E3FC31
:1064480020214FF0904030F0DEFC20214FF09040AA
:1064580030F0D9FC20214FF0904030F0D4FC2021BE
:106468004FF0904030F0CFFC20214FF0904030F0BA
:10647800CAFC20214FF0904030F0C5FC20214FF09D
:10648800904030F0C0FC20214FF0904030F0BBFC31
:1064980020214FF0904030F0B6FC20214FF0904082
:1064A80030F0B1FC20214FF0904030F0ACFC2021BE
:1064B8004FF0904030F0A7FC20214FF0904030F092
:1064C800A2FC20214FF0904030F09DFC20214FF09D
:1064D800904030F098FC20214FF0904030F093FC31
:1064E80020214FF0904030F08EFC20214FF090405A
:1064F80030F089FC20214FF0904030F084FC2021BE
:106508004FF0904030F07FFC20214FF0904030F069
:106518007AFC20214FF0904030F075FC20214FF09C
:10652800904030F070FC20214FF0904030F06BFC30
:1065380020214FF0904030F066FC20214FF0904031
:1065480030F061FC20214FF0904030F05CFC2021BD
:106558004FF0904030F057FC20214FF0904030F041
:1065680052FC20214FF0904030F04DFC20214FF09C
:10657800904030F048FC20214FF0904030F043FC30
:1065880020214FF0904030F03EFC20214FF0904009
:1065980030F039FC20214FF0904030F034FC2021BD
:1065A8004FF0904030F02FFC20214FF0904030F019
:1065B8002AFC20214FF0904030F025FC20214FF09C
:1065C800904030F020FC20214FF0904030F01BFC30
:1065D80020214FF0904030F016FC20214FF09040E1
:1065E80030F011FC20214FF0904030F00CFC2021BD
:1065F8004FF0904030F007FC20214FF0904030F0F1
:1066080002FC20214FF0904030F0FDFB20214FF09C
:10661800904030F0F8FB20214FF0904030F0F3FB31
:1066280020214FF0904030F0EEFB20214FF09040B9
:1066380030F0E9FB20214FF0904030F0E4FB2021BE
:106648004FF0904030F0DFFB20214FF0904030F0C9
:10665800DAFB20214FF0904030F0D5FB20214FF09D
:10666800904030F0D0FB20214FF0904030F0CBFB31
:1066780020214FF0904030F0C6FB20214FF0904091
:1066880030F0C1FB20214FF0904030F0BCFB2021BE
:106698004FF0904030F0B7FB20214FF0904030F0A1
:1066A800B2FB20214FF0904030F0ADFB20214FF09D
:1066B800904030F0A8FB20214FF0904030F0A3FB31
:1066C80020214FF0904030F09EFB20214FF0904069
:1066D80030F099FB20214FF0904030F094FB2021BE
:1066E8004FF0904030F08FFB20214FF0904030F079
:1066F8008AFB20214FF0904030F085FB20214FF09D
:10670800904030F080FB20214FF0904030F07BFB30
:1067180020214FF0904030F076FB20214FF0904040
:1067280030F071FB20214FF0904030F06CFB2021BD
:106738004FF0904030F067FB20214FF0904030F050
:1067480062FB20214FF0904030F05DFB20214FF09C
:10675800904030F058FB20214FF0904030F053FB30
:1067680020214FF0904030F04EFB20214FF0904018
:1067780030F049FB20214FF0904030F044FB2021BD
:106788004FF0904030F03FFB20214FF0904030F028
:106798003AFB20214FF0904030F035FB20214FF09C
:1067A800904030F030FB20214FF0904030F02BFB30
:1067B80020214FF0904030F026FB20214FF09040F0
:1067C80030F021FB20214FF0904030F01CFB2021BD
:1067D8004FF0904030F017FB20214FF0904030F000
:1067E80012FB20214FF0904030F00DFB20214FF09C
:1067F800904030F008FB20214FF0904030F003FB30
:1068080020214FF0904030F0FEFA20214FF09040C8
:1068180030F0F9FA20214FF0904030F0F4FA2021BE
:106828004FF0904030F0EFFA20214FF0904030F0D8
:10683800EAFA20214FF0904030F0E5FA20214FF09D
:10684800904030F0E0FA20214FF0904030F0DBFA31
:1068580020214FF0904030F0D6FA20214FF09040A0
:1068680030F0D1FA20214FF0904030F0CCFA2021BE
:106878004FF0904030F0C7FA20214FF0904030F0B0
:10688800C2FA20214FF0904030F0BDFA20214FF09D
:10689800904030F0B8FA20214FF0904030F0B3FA31
:1068A80020214FF0904030F0AEFA20214FF0904078
:1068B80030F0A9FA20214FF0904030F0A4FA2021BE
:1068C8004FF0904030F09FFA20214FF0904030F088
:1068D8009AFA20214FF0904030F095FA20214FF09D
:1068E800904030F090FA20214FF0904030F08BFA31
:1068F80020214FF0904030F086FA20214FF0904050
:1069080030F081FA20214FF0904030F07CFA2021BD
:106918004FF0904030F077FA20214FF0904030F05F
:1069280072FA20214FF0904030F06DFA20214FF09C
:10693800904030F068FA20214FF0904030F063FA30
:1069480020214FF0904030F05EFA20214FF0904027
:1069580030F059FA20214FF0904030F054FA2021BD
:106968004FF0904030F04FFA20214FF0904030F037
:106978004AFA20214FF0904030F045FA20214FF09C
:10698800904030F040FA20214FF0904030F03BFA30
:1069980020214FF0904030F036FA20214FF09040FF
:1069A80030F031FA20214FF0904030F02CFA2021BD
:1069B8004FF0904030F027FA20214FF0904030F00F
:1069C80022FA20214FF0904030F01DFA20214FF09C
:1069D800904030F018FA20214FF0904030F013FA30
:1069E80020214FF0904030F00EFA20214FF09040D7
:1069F80030F009FA20214FF0904030F004FA2021BD
:106A08004FF0904030F0FFF920214FF0904030F0E7
:106A1800FAF920214FF0904030F0F5F920214FF09D
:106A2800904030F0F0F920214FF0904030F0EBF931
:106A380020214FF0904030F0E6F920214FF09040AF
:106A480030F0E1F920214FF0904030F0DCF92021BE
:106A58004FF0904030F0D7F920214FF0904030F0BF
:106A6800D2F920214FF0904030F0CDF920214FF09D
:106A7800904030F0C8F920214FF0904030F0C3F931
:106A880020214FF0904030F0BEF920214FF0904087
:106A980030F0B9F920214FF0904030F0B4F92021BE
:106AA8004FF0904030F0AFF920214FF0904030F097
:106AB800AAF920214FF0904030F0A5F920214FF09D
:106AC800904030F0A0F920214FF0904030F09BF931
:106AD80020214FF0904030F096F920214FF090405F
:106AE80030F091F920214FF0904030F08CF92021BE
:106AF8004FF0904030F087F920214FF0904030F06F
:106B080082F920214FF0904030F07DF920214FF09C
:106B1800904030F078F920214FF0904030F073F930
:106B280020214FF0904030F06EF920214FF0904036
:106B380030F069F920214FF0904030F064F92021BD
:106B48004FF0904030F05FF920214FF0904030F046
:106B58005AF920214FF0904030F055F920214FF09C
:106B6800904030F050F920214FF0904030F04BF930
:106B780020214FF0904030F046F920214FF090400E
:106B880030F041F920214FF0904030F03CF92021BD
:106B98004FF0904030F037F920214FF0904030F01E
:106BA80032F920214FF0904030F02DF920214FF09C
:106BB800904030F028F920214FF0904030F023F930
:106BC80020214FF0904030F01EF920214FF09040E6
:106BD80030F019F920214FF0904030F014F92021BD
:106BE8004FF0904030F00FF920214FF0904030F0F6
:106BF8000AF920214FF0904030F005F920214FF09C
:106C0800904030F000F920214FF0904030F0FBF830
:106C180020214FF0904030F0F6F820214FF09040BE
:106C280030F0F1F820214FF0904030F0ECF82021BE
:106C38004FF0904030F0E7F820214FF0904030F0CE
:106C4800E2F820214FF0904030F0DDF820214FF09D
:106C5800904030F0D8F820214FF0904030F0D3F831
:106C680020214FF0904030F0CEF820214FF0904096
:106C780030F0C9F820214FF0904030F0C4F82021BE
:106C88004FF0904030F0BFF820214FF0904030F0A6
:106C9800BAF820214FF0904030F0B5F820214FF09D
:106CA800904030F0B0F820214FF0904030F0ABF831
:106CB80020214FF0904030F0A6F820214FF090406E
:106CC80030F0A1F820214FF0904030F09CF82021BE
:106CD8004FF0904030F097F820214FF0904030F07E
:106CE80092F820214FF0904030F08DF820214FF09D
:106CF800904030F088F820214FF0904030F083F831
:106D080020214FF0904030F07EF820214FF0904045
:106D180030F079F820214FF0904030F074F82021BD
:106D28004FF0904030F06FF820214FF0904030F055
:106D38006AF820214FF0904030F065F820214FF09C
:106D4800904030F060F820214FF0904030F05BF830
:106D580020214FF0904030F056F820214FF090401D
:106D680030F051F820214FF0904030F04CF82021BD
:106D78004FF0904030F047F820214FF0904030F02D
:106D880042F820214FF0904030F03DF820214FF09C
:106D9800904030F038F820214FF0904030F033F830
:106DA80020214FF0904030F02EF820214FF09040F5
:106DB80030F029F820214FF0904030F024F82021BD
:106DC8004FF0904030F01FF820214FF0904030F005
:106DD8001AF820214FF0904030F015F820214FF09C
:106DE800904030F010F820214FF0904030F00BF830
:106DF80020214FF0904030F006F820214FF09040CD
:106E080030F001F820214FF090402FF0FCFF2021B6
:106E18004FF090402FF0F7FF20214FF090402FF0D7
:106E2800F2FF20214FF090402FF0EDFF20214FF08E
:106E380090402FF0E8FF20214FF090402FF0E3FF23
:106E480020214FF090402FF0DEFF20214FF090409E
:106E58002FF0D9FF20214FF090402FF0D4FF2021B0
:106E68004FF090402FF0CFFF20214FF090402FF0AF
:106E7800CAFF20214FF090402FF0C5FF20214FF08E
:106E880090402FF0C0FF20214FF090402FF0BBFF23
:106E980020214FF090402FF0B6FF20214FF0904076
:106EA8002FF0B1FF20214FF090402FF0ACFF2021B0
:106EB8004FF090402FF0A7FF20214FF090402FF087
:106EC800A2FF20214FF090402FF09DFF20214FF08E
:106ED80090402FF098FF20214FF090402FF093FF23
:106EE80020214FF090402FF08EFF20214FF090404E
:106EF8002FF089FF20214FF090402FF084FF2021B0
:106F08004FF090402FF07FFF20214FF090402FF05E
:106F18007AFF20214FF090402FF075FF20214FF08D
:106F280090402FF070FF20214FF090402FF06BFF22
:106F380020214FF090402FF066FF20214FF0904025
:106F48002FF061FF20214FF090402FF05CFF2021AF
:106F58004FF090402FF057FF20214FF090402FF036
:106F680052FF20214FF090402FF04DFF20214FF08D
:106F780090402FF048FF20214FF090402FF043FF22
:106F880020214FF090402FF03EFF20214FF09040FD
:106F98002FF039FF20214FF090402FF034FF2021AF
:106FA8004FF090402FF02FFF20214FF090402FF00E
:106FB8002AFF20214FF090402FF025FF20214FF08D
:106FC80090402FF020FF20214FF090402FF01BFF22
:106FD80020214FF090402FF016FF20214FF09040D5
:106FE8002FF011FF20214FF090402FF00CFF2021AF
:106FF8004FF090402FF007FF20214FF090402FF0E6
:1070080002FF20214FF090402FF0FDFE20214FF08D
:1070180090402FF0F8FE20214FF090402FF0F3FE23
:1070280020214FF090402FF0EEFE20214FF09040AD
:107038002FF0E9FE20214FF090402FF0E4FE2021B0
:107048004FF090402FF0DFFE20214FF090402FF0BE
:10705800DAFE20214FF090402FF0D5FE20214FF08E
:1070680090402FF0D0FE20214FF090402FF0CBFE23
:1070780020214FF090402FF0C6FE20214FF0904085
:107088002FF0C1FE20214FF090402FF0BCFE2021B0
:107098004FF090402FF0B7FE20214FF090402FF096
:1070A800B2FE20214FF090402FF0ADFE20214FF08E
:1070B80090402FF0A8FE20214FF090402FF0A3FE23
:1070C80020214FF090402FF09EFE20214FF090405D
:1070D8002FF099FE20214FF090402FF094FE2021B0
:1070E8004FF090402FF08FFE20214FF090402FF06E
:1070F8008AFE20214FF090402FF085FE20214FF08E
:1071080090402FF080FE20214FF090402FF07BFE22
:1071180020214FF090402FF076FE20214FF0904034
:107128002FF071FE20214FF090402FF06CFE2021AF
:107138004FF090402FF067FE20214FF090402FF045
:1071480062FE20214FF090402FF05DFE20214FF08D
:1071580090402FF058FE20214FF090402FF053FE22
:1071680020214FF090402FF04EFE20214FF090400C
:107178002FF049FE20214FF090402FF044FE2021AF
:107188004FF090402FF03FFE20214FF090402FF01D
:107198003AFE20214FF090402FF035FE20214FF08D
:1071A80090402FF030FE20214FF090402FF02BFE22
:1071B80020214FF090402FF026FE20214FF09040E4
:1071C8002FF021FE20214FF090402FF01CFE2021AF
:1071D8004FF090402FF017FE20214FF090402FF0F5
:1071E80012FE20214FF090402FF00DFE20214FF08D
:1071F80090402FF008FE20214FF090402FF003FE22
:1072080020214FF090402FF0FEFD20214FF09040BC
:107218002FF0F9FD20214FF090402FF0F4FD2021B0
:107228004FF090402FF0EFFD20214FF090402FF0CD
:10723800EAFD20214FF090402FF0E5FD20214FF08E
:1072480090402FF0E0FD20214FF090402FF0DBFD23
:1072580020214FF090402FF0D6FD20214FF0904094
:107268002FF0D1FD20214FF090402FF0CCFD2021B0
:107278004FF090402FF0C7FD20214FF090402FF0A5
:10728800C2FD20214FF090402FF0BDFD20214FF08E
:1072980090402FF0B8FD20214FF090402FF0B3FD23
:1072A80020214FF090402FF0AEFD20214FF090406C
:1072B8002FF0A9FD20214FF090402FF0A4FD2021B0
:1072C8004FF090402FF09FFD20214FF090402FF07D
:1072D8009AFD20214FF090402FF095FD20214FF08E
:1072E80090402FF090FD20214FF090402FF08BFD23
:1072F80020214FF090402FF086FD20214FF0904044
:107308002FF081FD20214FF090402FF07CFD2021AF
:107318004FF090402FF077FD20214FF090402FF054
:1073280072FD20214FF090402FF06DFD20214FF08D
:1073380090402FF068FD20214FF090402FF063FD22
:1073480020214FF090402FF05EFD20214FF090401B
:107358002FF059FD20214FF090402FF054FD2021AF
:107368004FF090402FF04FFD20214FF090402FF02C
:107378004AFD20214FF090402FF045FD20214FF08D
:1073880090402FF040FD20214FF090402FF03BFD22
:1073980020214FF090402FF036FD20214FF09040F3
:1073A8002FF031FD20214FF090402FF02CFD2021AF
:1073B8004FF090402FF027FD20214FF090402FF004
:1073C80022FD20214FF090402FF01DFD20214FF08D
:1073D80090402FF018FD20214FF090402FF013FD22
:1073E80020214FF090402FF00EFD20214FF09040CB
:1073F8002FF009FD20214FF090402FF004FD2021AF
:107408004FF090402FF0FFFC20214FF090402FF0DC
:10741800FAFC20214FF090402FF0F5FC20214FF08E
:1074280090402FF0F0FC20214FF090402FF0EBFC23
:1074380020214FF090402FF0E6FC20214FF09040A3
:107448002FF0E1FC20214FF090402FF0DCFC2021B0
:107458004FF090402FF0D7FC20214FF090402FF0B4
:10746800D2FC20214FF090402FF0CDFC20214FF08E
:1074780090402FF0C8FC20214FF090402FF0C3FC23
:1074880020214FF090402FF0BEFC20214FF090407B
:107498002FF0B9FC20214FF090402FF0B4FC2021B0
:1074A8004FF090402FF0AFFC20214FF090402FF08C
:1074B800AAFC20214FF090402FF0A5FC20214FF08E
:1074C80090402FF0A0FC20214FF090402FF09BFC23
:1074D80020214FF090402FF096FC20214FF0904053
:1074E8002FF091FC20214FF090402FF08CFC2021B0
:1074F8004FF090402FF087FC20214FF090402FF064
:1075080082FC20214FF090402FF07DFC20214FF08D
:1075180090402FF078FC20214FF090402FF073FC22
:1075280020214FF090402FF06EFC20214FF090402A
:107538002FF069FC20214FF090402FF064FC2021AF
:107548004FF090402FF05FFC20214FF090402FF03B
:107558005AFC20214FF090402FF055FC20214FF08D
:1075680090402FF050FC20214FF090402FF04BFC22
:1075780020214FF090402FF046FC20214FF0904002
:107588002FF041FC20214FF090402FF03CFC2021AF
:107598004FF090402FF037FC20214FF090402FF013
:1075A80032FC20214FF090402FF02DFC20214FF08D
:1075B80090402FF028FC20214FF090402FF023FC22
:1075C80020214FF090402FF01EFC20214FF09040DA
:1075D8002FF019FC20214FF090402FF014FC2021AF
:1075E8004FF090402FF00FFC20214FF090402FF0EB
:1075F8000AFC20214FF090402FF005FC20214FF08D
:1076080090402FF000FC20214FF090402FF0FBFB22
:1076180020214FF090402FF0F6FB20214FF09040B2
:107628002FF0F1FB20214FF090402FF0ECFB2021B0
:107638004FF090402FF0E7FB20214FF090402FF0C3
:10764800E2FB20214FF090402FF0DDFB20214FF08E
:1076580090402FF0D8FB20214FF090402FF0D3FB23
:1076680020214FF090402FF0CEFB20214FF090408A
:107678002FF0C9FB20214FF090402FF0C4FB2021B0
:107688004FF090402FF0BFFB20214FF090402FF09B
:10769800BAFB20214FF090402FF0B5FB20214FF08E
:1076A80090402FF0B0FB20214FF090402FF0ABFB23
:1076B80020214FF090402FF0A6FB20214FF0904062
:1076C8002FF0A1FB20214FF090402FF09CFB2021B0
:1076D8004FF090402FF097FB20214FF090402FF073
:1076E80092FB20214FF090402FF08DFB20214FF08E
:1076F80090402FF088FB20214FF090402FF083FB23
:1077080020214FF090402FF07EFB20214FF0904039
:107718002FF079FB20214FF090402FF074FB2021AF
:107728004FF090402FF06FFB20214FF090402FF04A
:107738006AFB20214FF090402FF065FB20214FF08D
:1077480090402FF060FB20214FF090402FF05BFB22
:1077580020214FF090402FF056FB20214FF0904011
:107768002FF051FB20214FF090402FF04CFB2021AF
:107778004FF090402FF047FB20214FF090402FF022
:1077880042FB20214FF090402FF03DFB20214FF08D
:1077980090402FF038FB20214FF090402FF033FB22
:1077A80020214FF090402FF02EFB20214FF09040E9
:1077B8002FF029FB20214FF090402FF024FB2021AF
:1077C8004FF090402FF01FFB20214FF090402FF0FA
:1077D8001AFB20214FF090402FF015FB20214FF08D
:1077E80090402FF010FB20214FF090402FF00BFB22
:1077F80020214FF090402FF006FB20214FF09040C1
:107808002FF001FB20214FF090402FF0FCFA2021AF
:107818004FF090402FF0F7FA20214FF090402FF0D2
:10782800F2FA20214FF090402FF0EDFA20214FF08E
:1078380090402FF0E8FA20214FF090402FF0E3FA23
:1078480020214FF090402FF0DEFA20214FF0904099
:107858002FF0D9FA20214FF090402FF0D4FA2021B0
:107868004FF090402FF0CFFA20214FF090402FF0AA
:10787800CAFA20214FF090402FF0C5FA20214FF08E
:1078880090402FF0C0FA20214FF090402FF0BBFA23
:1078980020214FF090402FF0B6FA20214FF0904071
:1078A8002FF0B1FA20214FF090402FF0ACFA2021B0
:1078B8004FF090402FF0A7FA20214FF090402FF082
:1078C800A2FA20214FF090402FF09DFA20214FF08E
:1078D80090402FF098FA20214FF090402FF093FA23
:1078E80020214FF090402FF08EFA20214FF0904049
:1078F8002FF089FA20214FF090402FF084FA2021B0
:107908004FF090402FF07FFA20214FF090402FF059
:107918007AFA20214FF090402FF075FA20214FF08D
:1079280090402FF070FA20214FF090402FF06BFA22
:1079380020214FF090402FF066FA20214FF0904020
:107948002FF061FA20214FF090402FF05CFA2021AF
:107958004FF090402FF057FA20214FF090402FF031
:1079680052FA20214FF090402FF04DFA20214FF08D
:1079780090402FF048FA20214FF090402FF043FA22
:1079880020214FF090402FF03EFA20214FF09040F8
:107998002FF039FA20214FF090402FF034FA2021AF
:1079A8004FF090402FF02FFA20214FF090402FF009
:1079B8002AFA20214FF090402FF025FA20214FF08D
:1079C80090402FF020FA20214FF090402FF01BFA22
:1079D80020214FF090402FF016FA20214FF09040D0
:1079E8002FF011FA20214FF090402FF00CFA2021AF
:1079F8004FF090402FF007FA20214FF090402FF0E1
:107A080002FA20214FF090402FF0FDF920214FF08D
:107A180090402FF0F8F920214FF090402FF0F3F923
:107A280020214FF090402FF0EEF920214FF09040A8
:107A38002FF0E9F920214FF090402FF0E4F92021B0
:107A48004FF090402FF0DFF920214FF090402FF0B9
:107A5800DAF920214FF090402FF0D5F920214FF08E
:107A680090402FF0D0F920214FF090402FF0CBF923
:107A780020214FF090402FF0C6F920214FF0904080
:107A88002FF0C1F920214FF090402FF0BCF92021B0
:107A98004FF090402FF0B7F920214FF090402FF091
:107AA800B2F920214FF090402FF0ADF920214FF08E
:107AB80090402FF0A8F920214FF090402FF0A3F923
:107AC80020214FF090402FF09EF920214FF0904058
:107AD8002FF099F920214FF090402FF094F92021B0
:107AE8004FF090402FF08FF920214FF090402FF069
:107AF8008AF920214FF090402FF085F920214FF08E
:107B080090402FF080F920214FF090402FF07BF922
:107B180020214FF090402FF076F920214FF090402F
:107B28002FF071F920214FF090402FF06CF92021AF
:107B38004FF090402FF067F920214FF090402FF040
:107B480062F920214FF090402FF05DF920214FF08D
:107B580090402FF058F920214FF090402FF053F922
:107B680020214FF090402FF04EF920214FF0904007
:107B78002FF049F920214FF090402FF044F92021AF
:107B88004FF090402FF03FF920214FF090402FF018
:107B98003AF920214FF090402FF035F920214FF08D
:107BA80090402FF030F920214FF090402FF02BF922
:107BB80020214FF090402FF026F920214FF09040DF
:107BC8002FF021F920214FF090402FF01CF92021AF
:107BD8004FF090402FF017F920214FF090402FF0F0
:107BE80012F920214FF090402FF00DF920214FF08D
:107BF80090402FF008F920214FF090402FF003F922
:107C080020214FF090402FF0FEF820214FF09040B7
:107C18002FF0F9F820214FF090402FF0F4F82021B0
:107C28004FF090402FF0EFF820214FF090402FF0C8
:107C3800EAF820214FF090402FF0E5F820214FF08E
:107C480090402FF0E0F820214FF090402FF0DBF823
:107C580020214FF090402FF0D6F820214FF090408F
:107C68002FF0D1F820214FF090402FF0CCF82021B0
:107C78004FF090402FF0C7F820214FF090402FF0A0
:107C8800C2F820214FF090402FF0BDF820214FF08E
:107C980090402FF0B8F820214FF090402FF0B3F823
:107CA80020214FF090402FF0AEF820214FF0904067
:107CB8002FF0A9F820214FF090402FF0A4F82021B0
:107CC8004FF090402FF09FF820214FF090402FF078
:107CD8009AF820214FF090402FF095F820214FF08E
:107CE80090402FF090F820214FF090402FF08BF823
:107CF80020214FF090402FF086F820214FF090403F
:107D08002FF081F820214FF090402FF07CF82021AF
:107D18004FF090402FF077F820214FF090402FF04F
:107D280072F820214FF090402FF06DF820214FF08D
:107D380090402FF068F820214FF090402FF063F822
:107D480020214FF090402FF05EF820214FF0904016
:107D58002FF059F820214FF090402FF054F82021AF
:107D68004FF090402FF04FF820214FF090402FF027
:107D78004AF820214FF090402FF045F820214FF08D
:107D880090402FF040F820214FF090402FF03BF822
:107D980020214FF090402FF036F820214FF09040EE
:107DA8002FF031F820214FF090402FF02CF82021AF
:107DB8004FF090402FF027F820214FF090402FF0FF
:107DC80022F820214FF090402FF01DF820214FF08D
:107DD80090402FF018F820214FF090402FF013F822
:107DE80020214FF090402FF00EF820214FF09040C6
:107DF8002FF009F820214FF090402FF004F82021AF
:107E08004FF090402EF0FFFF20214FF090402EF0D1
:107E1800FAFF20214FF090402EF0F5FF20214FF07F
:107E280090402EF0F0FF20214FF090402EF0EBFF15
:107E380020214FF090402EF0E6FF20214FF0904097
:107E48002EF0E1FF20214FF090402EF0DCFF2021A2
:107E58004FF090402EF0D7FF20214FF090402EF0A9
:107E6800D2FF20214FF090402EF0CDFF20214FF07F
:107E780090402EF0C8FF20214FF090402EF0C3FF15
:107E880020214FF090402EF0BEFF20214FF090406F
:107E98002EF0B9FF20214FF090402EF0B4FF2021A2
:107EA8004FF090402EF0AFFF20214FF090402EF081
:107EB800AAFF20214FF090402EF0A5FF20214FF07F
:107EC80090402EF0A0FF20214FF090402EF09BFF15
:107ED80020214FF090402EF096FF20214FF0904047
:107EE8002EF091FF20214FF090402EF08CFF2021A2
:107EF8004FF090402EF087FF20214FF090402EF059
:107F080082FF20214FF090402EF07DFF20214FF07E
:107F180090402EF078FF20214FF090402EF073FF14
:107F280020214FF090402EF06EFF20214FF090401E
:107F38002EF069FF20214FF090402EF064FF2021A1
:107F48004FF090402EF05FFF20214FF090402EF030
:107F58005AFF20214FF090402EF055FF20214FF07E
:107F680090402EF050FF20214FF090402EF04BFF14
:107F780020214FF090402EF046FF20214FF09040F6
:107F88002EF041FF20214FF090402EF03CFF2021A1
:107F98004FF090402EF037FF20214FF090402EF008
:107FA80032FF20214FF090402EF02DFF20214FF07E
:107FB80090402EF028FF20214FF090402EF023FF14
:107FC80020214FF090402EF01EFF20214FF09040CE
:107FD8002EF019FF20214FF090402EF014FF2021A1
:107FE8004FF090402EF00FFF20214FF090402EF0E0
:107FF8000AFF20214FF090402EF005FF20214FF07E
:1080080090402EF000FF20214FF090402EF0FBFE14
:1080180020214FF090402EF0F6FE20214FF09040A6
:108028002EF0F1FE20214FF090402EF0ECFE2021A2
:108038004FF090402EF0E7FE20214FF090402EF0B8
:10804800E2FE20214FF090402EF0DDFE20214FF07F
:1080580090402EF0D8FE20214FF090402EF0D3FE15
:1080680020214FF090402EF0CEFE20214FF090407E
:108078002EF0C9FE20214FF090402EF0C4FE2021A2
:108088004FF090402EF0BFFE20214FF090402EF090
:10809800BAFE20214FF090402EF0B5FE20214FF07F
:1080A80090402EF0B0FE20214FF090402EF0ABFE15
:1080B80020214FF090402EF0A6FE20214FF0904056
:1080C8002EF0A1FE20214FF090402EF09CFE2021A2
:1080D8004FF090402EF097FE20214FF090402EF068
:1080E80092FE20214FF090402EF08DFE20214FF07F
:1080F80090402EF088FE20214FF090402EF083FE15
:1081080020214FF090402EF07EFE20214FF090402D
:108118002EF079FE20214FF090402EF074FE2021A1
:108128004FF090402EF06FFE20214FF090402EF03F
:108138006AFE20214FF090402EF065FE20214FF07E
:1081480090402EF060FE20214FF090402EF05BFE14
:1081580020214FF090402EF056FE20214FF0904005
:108168002EF051FE20214FF090402EF04CFE2021A1
:108178004FF090402EF047FE20214FF090402EF017
:1081880042FE20214FF090402EF03DFE20214FF07E
:1081980090402EF038FE20214FF090402EF033FE14
:1081A80020214FF090402EF02EFE20214FF09040DD
:1081B8002EF029FE20214FF090402EF024FE2021A1
:1081C8004FF090402EF01FFE20214FF090402EF0EF
:1081D8001AFE20214FF090402EF015FE20214FF07E
:1081E80090402EF010FE20214FF090402EF00BFE14
:1081F80020214FF090402EF006FE20214FF09040B5
:108208002EF001FE20214FF090402EF0FCFD2021A1
:108218004FF090402EF0F7FD20214FF090402EF0C7
:10822800F2FD20214FF090402EF0EDFD20214FF07F
:1082380090402EF0E8FD20214FF090402EF0E3FD15
:1082480020214FF090402EF0DEFD20214FF090408D
:108258002EF0D9FD20214FF090402EF0D4FD2021A2
:108268004FF090402EF0CFFD20214FF090402EF09F
:10827800CAFD20214FF090402EF0C5FD20214FF07F
:1082880090402EF0C0FD20214FF090402EF0BBFD15
:1082980020214FF090402EF0B6FD20214FF0904065
:1082A8002EF0B1FD20214FF090402EF0ACFD2021A2
:1082B8004FF090402EF0A7FD20214FF090402EF077
:1082C800A2FD20214FF090402EF09DFD20214FF07F
:1082D80090402EF098FD20214FF090402EF093FD15
:1082E80020214FF090402EF08EFD20214FF090403D
:1082F8002EF089FD20214FF090402EF084FD2021A2
:108308004FF090402EF07FFD20214FF090402EF04E
:108318007AFD20214FF090402EF075FD20214FF07E
:1083280090402EF070FD20214FF090402EF06BFD14
:1083380020214FF090402EF066FD20214FF0904014
:108348002EF061FD20214FF090402EF05CFD2021A1
:108358004FF090402EF057FD20214FF090402EF026
:1083680052FD20214FF090402EF04DFD20214FF07E
:1083780090402EF048FD20214FF090402EF043FD14
:1083880020214FF090402EF03EFD20214FF09040EC
:108398002EF039FD20214FF090402EF034FD2021A1
:1083A8004FF090402EF02FFD20214FF090402EF0FE
:1083B8002AFD20214FF090402EF025FD20214FF07E
:1083C80090402EF020FD20214FF090402EF01BFD14
:1083D80020214FF090402EF016FD20214FF09040C4
:1083E8002EF011FD20214FF090402EF00CFD2021A1
:1083F8004FF090402EF007FD20214FF090402EF0D6
:1084080002FD20214FF090402EF0FDFC20214FF07E
:1084180090402EF0F8FC20214FF090402EF0F3FC15
:1084280020214FF090402EF0EEFC20214FF090409C
:108438002EF0E9FC20214FF090402EF0E4FC2021A2
:108448004FF090402EF0DFFC20214FF090402EF0AE
:10845800DAFC20214FF090402EF0D5FC20214FF07F
:1084680090402EF0D0FC20214FF090402EF0CBFC15
:1084780020214FF090402EF0C6FC20214FF0904074
:108488002EF0C1FC20214FF090402EF0BCFC2021A2
:108498004FF090402EF0B7FC20214FF090402EF086
:1084A800B2FC20214FF090402EF0ADFC20214FF07F
:1084B80090402EF0A8FC20214FF090402EF0A3FC15
:1084C80020214FF090402EF09EFC20214FF090404C
:1084D8002EF099FC20214FF090402EF094FC2021A2
:1084E8004FF090402EF08FFC20214FF090402EF05E
:1084F8008AFC20214FF090402EF085FC20214FF07F
:1085080090402EF080FC20214FF090402EF07BFC14
:1085180020214FF090402EF076FC20214FF0904023
:108528002EF071FC20214FF090402EF06CFC2021A1
:108538004FF090402EF067FC20214FF090402EF035
:1085480062FC20214FF090402EF05DFC20214FF07E
:1085580090402EF058FC20214FF090402EF053FC14
:1085680020214FF090402EF04EFC20214FF09040FB
:108578002EF049FC20214FF090402EF044FC2021A1
:108588004FF090402EF03FFC20214FF090402EF00D
:108598003AFC20214FF090402EF035FC20214FF07E
:1085A80090402EF030FC20214FF090402EF02BFC14
:1085B80020214FF090402EF026FC20214FF09040D3
:1085C8002EF021FC20214FF090402EF01CFC2021A1
:1085D8004FF090402EF017FC20214FF090402EF0E5
:1085E80012FC20214FF090402EF00DFC20214FF07E
:1085F80090402EF008FC20214FF090402EF003FC14
:1086080020214FF090402EF0FEFB20214FF09040AB
:108618002EF0F9FB20214FF090402EF0F4FB2021A2
:108628004FF090402EF0EFFB20214FF090402EF0BD
:10863800EAFB20214FF090402EF0E5FB20214FF07F
:1086480090402EF0E0FB20214FF090402EF0DBFB15
:1086580020214FF090402EF0D6FB20214FF0904083
:108668002EF0D1FB20214FF090402EF0CCFB2021A2
:108678004FF090402EF0C7FB20214FF090402EF095
:10868800C2FB20214FF090402EF0BDFB20214FF07F
:1086980090402EF0B8FB20214FF090402EF0B3FB15
:1086A80020214FF090402EF0AEFB20214FF090405B
:1086B8002EF0A9FB20214FF090402EF0A4FB2021A2
:1086C8004FF090402EF09FFB20214FF090402EF06D
:1086D8009AFB20214FF090402EF095FB20214FF07F
:1086E80090402EF090FB20214FF090402EF08BFB15
:1086F80020214FF090402EF086FB20214FF0904033
:108708002EF081FB20214FF090402EF07CFB2021A1
:108718004FF090402EF077FB20214FF090402EF044
:1087280072FB20214FF090402EF06DFB20214FF07E
:1087380090402EF068FB20214FF090402EF063FB14
:1087480020214FF090402EF05EFB20214FF090400A
:108758002EF059FB20214FF090402EF054FB2021A1
:108768004FF090402EF04FFB20214FF090402EF01C
:108778004AFB20214FF090402EF045FB20214FF07E
:1087880090402EF040FB20214FF090402EF03BFB14
:1087980020214FF090402EF036FB20214FF09040E2
:1087A8002EF031FB20214FF090402EF02CFB2021A1
:1087B8004FF090402EF027FB20214FF090402EF0F4
:1087C80022FB20214FF090402EF01DFB20214FF07E
:1087D80090402EF018FB20214FF090402EF013FB14
:1087E80020214FF090402EF00EFB20214FF09040BA
:1087F8002EF009FB20214FF090402EF004FB2021A1
:108808004FF090402EF0FFFA20214FF090402EF0CC
:10881800FAFA20214FF090402EF0F5FA20214FF07F
:1088280090402EF0F0FA20214FF090402EF0EBFA15
:1088380020214FF090402EF0E6FA20214FF0904092
:108848002EF0E1FA20214FF090402EF0DCFA2021A2
:108858004FF090402EF0D7FA20214FF090402EF0A4
:10886800D2FA20214FF090402EF0CDFA20214FF07F
:1088780090402EF0C8FA20214FF090402EF0C3FA15
:1088880020214FF090402EF0BEFA20214FF090406A
:108898002EF0B9FA20214FF090402EF0B4FA2021A2
:1088A8004FF090402EF0AFFA20214FF090402EF07C
:1088B800AAFA20214FF090402EF0A5FA20214FF07F
:1088C80090402EF0A0FA20214FF090402EF09BFA15
:1088D80020214FF090402EF096FA20214FF0904042
:1088E8002EF091FA20214FF090402EF08CFA2021A2
:1088F8004FF090402EF087FA20214FF090402EF054
:1089080082FA20214FF090402EF07DFA20214FF07E
:1089180090402EF078FA20214FF090402EF073FA14
:1089280020214FF090402EF06EFA20214FF0904019
:108938002EF069FA20214FF090402EF064FA2021A1
:108948004FF090402EF05FFA20214FF090402EF02B
:108958005AFA20214FF090402EF055FA20214FF07E
:1089680090402EF050FA20214FF090402EF04BFA14
:1089780020214FF090402EF046FA20214FF09040F1
:108988002EF041FA20214FF090402EF03CFA2021A1
:108998004FF090402EF037FA20214FF090402EF003
:1089A80032FA20214FF090402EF02DFA20214FF07E
:1089B80090402EF028FA20214FF090402EF023FA14
:1089C80020214FF090402EF01EFA20214FF09040C9
:1089D8002EF019FA20214FF090402EF014FA2021A1
:1089E8004FF090402EF00FFA20214FF090402EF0DB
:1089F8000AFA20214FF090402EF005FA20214FF07E
:108A080090402EF000FA20214FF090402EF0FBF914
:108A180020214FF090402EF0F6F920214FF09040A1
:108A28002EF0F1F920214FF090402EF0ECF92021A2
:108A38004FF090402EF0E7F920214FF090402EF0B3
:108A4800E2F920214FF090402EF0DDF920214FF07F
:108A580090402EF0D8F920214FF090402EF0D3F915
:108A680020214FF090402EF0CEF920214FF0904079
:108A78002EF0C9F920214FF090402EF0C4F92021A2
:108A88004FF090402EF0BFF920214FF090402EF08B
:108A9800BAF920214FF090402EF0B5F920214FF07F
:108AA80090402EF0B0F920214FF090402EF0ABF915
:108AB80020214FF090402EF0A6F920214FF0904051
:108AC8002EF0A1F920214FF090402EF09CF92021A2
:108AD8004FF090402EF097F920214FF090402EF063
:108AE80092F920214FF090402EF08DF920214FF07F
:108AF80090402EF088F920214FF090402EF083F915
:108B080020214FF090402EF07EF920214FF0904028
:108B18002EF079F920214FF090402EF074F92021A1
:108B28004FF090402EF06FF920214FF090402EF03A
:108B38006AF920214FF090402EF065F920214FF07E
:108B480090402EF060F920214FF090402EF05BF914
:108B580020214FF090402EF056F920214FF0904000
:108B68002EF051F920214FF090402EF04CF92021A1
:108B78004FF090402EF047F920214FF090402EF012
:108B880042F920214FF090402EF03DF920214FF07E
:108B980090402EF038F920214FF090402EF033F914
:108BA80020214FF090402EF02EF920214FF09040D8
:108BB8002EF029F920214FF090402EF024F92021A1
:108BC8004FF090402EF01FF920214FF090402EF0EA
:108BD8001AF920214FF090402EF015F920214FF07E
:108BE80090402EF010F920214FF090402EF00BF914
:108BF80020214FF090402EF006F920214FF09040B0
:108C08002EF001F920214FF090402EF0FCF82021A1
:108C18004FF090402EF0F7F820214FF090402EF0C2
:108C2800F2F820214FF090402EF0EDF820214FF07F
:108C380090402EF0E8F820214FF090402EF0E3F815
:108C480020214FF090402EF0DEF820214FF0904088
:108C58002EF0D9F820214FF090402EF0D4F82021A2
:108C68004FF090402EF0CFF820214FF090402EF09A
:108C7800CAF820214FF090402EF0C5F820214FF07F
:108C880090402EF0C0F820214FF090402EF0BBF815
:108C980020214FF090402EF0B6F820214FF0904060
:108CA8002EF0B1F820214FF090402EF0ACF82021A2
:108CB8004FF090402EF0A7F820214FF090402EF072
:108CC800A2F820214FF090402EF09DF820214FF07F
:108CD80090402EF098F820214FF090402EF093F815
:108CE80020214FF090402EF08EF820214FF0904038
:108CF8002EF089F820214FF090402EF084F82021A2
:108D08004FF090402EF07FF820214FF090402EF049
:108D18007AF820214FF090402EF075F820214FF07E
:108D280090402EF070F820214FF090402EF06BF814
:108D380020214FF090402EF066F820214FF090400F
:108D48002EF061F820214FF090402EF05CF82021A1
:108D58004FF090402EF057F820214FF090402EF021
:108D680052F820214FF090402EF04DF820214FF07E
:108D780090402EF048F820214FF090402EF043F814
:108D880020214FF090402EF03EF820214FF09040E7
:108D98002EF039F820214FF090402EF034F82021A1
:108DA8004FF090402EF02FF820214FF090402EF0F9
:108DB8002AF820214FF090402EF025F820214FF07E
:108DC80090402EF020F820214FF090402EF01BF814
:108DD80020214FF090402EF016F820214FF09040BF
:108DE8002EF011F820214FF090402EF00CF82021A1
:108DF8004FF090402EF007F820214FF090402EF0D1
:108E080002F820214FF090402DF0FDFF20214FF077
:108E180090402DF0F8FF20214FF090402DF0F3FF07
:108E280020214FF090402DF0EEFF20214FF0904090
:108E38002DF0E9FF20214FF090402DF0E4FF202194
:108E48004FF090402DF0DFFF20214FF090402DF0A3
:108E5800DAFF20214FF090402DF0D5FF20214FF070
:108E680090402DF0D0FF20214FF090402DF0CBFF07
:108E780020214FF090402DF0C6FF20214FF0904068
:108E88002DF0C1FF20214FF090402DF0BCFF202194
:108E98004FF090402DF0B7FF20214FF090402DF07B
:108EA800B2FF20214FF090402DF0ADFF20214FF070
:108EB80090402DF0A8FF20214FF090402DF0A3FF07
:108EC80020214FF090402DF09EFF20214FF0904040
:108ED8002DF099FF20214FF090402DF094FF202194
:108EE8004FF090402DF08FFF20214FF090402DF053
:108EF8008AFF20214FF090402DF085FF20214FF070
:108F080090402DF080FF20214FF090402DF07BFF06
:108F180020214FF090402DF076FF20214FF0904017
:108F28002DF071FF20214FF090402DF06CFF202193
:108F38004FF090402DF067FF20214FF090402DF02A
:108F480062FF20214FF090402DF05DFF20214FF06F
:108F580090402DF058FF20214FF090402DF053FF06
:108F680020214FF090402DF04EFF20214FF09040EF
:108F78002DF049FF20214FF090402DF044FF202193
:108F88004FF090402DF03FFF20214FF090402DF002
:108F98003AFF20214FF090402DF035FF20214FF06F
:108FA80090402DF030FF20214FF090402DF02BFF06
:108FB80020214FF090402DF026FF20214FF09040C7
:108FC8002DF021FF20214FF090402DF01CFF202193
:108FD8004FF090402DF017FF20214FF090402DF0DA
:108FE80012FF20214FF090402DF00DFF20214FF06F
:108FF80090402DF008FF20214FF090402DF003FF06
:1090080020214FF090402DF0FEFE20214FF090409F
:109018002DF0F9FE20214FF090402DF0F4FE202194
:109028004FF090402DF0EFFE20214FF090402DF0B2
:10903800EAFE20214FF090402DF0E5FE20214FF070
:1090480090402DF0E0FE20214FF090402DF0DBFE07
:1090580020214FF090402DF0D6FE20214FF0904077
:109068002DF0D1FE20214FF090402DF0CCFE202194
:109078004FF090402DF0C7FE20214FF090402DF08A
:10908800C2FE20214FF090402DF0BDFE20214FF070
:1090980090402DF0B8FE20214FF090402DF0B3FE07
:1090A80020214FF090402DF0AEFE20214FF090404F
:1090B8002DF0A9FE20214FF090402DF0A4FE202194
:1090C8004FF090402DF09FFE20214FF090402DF062
:1090D8009AFE20214FF090402DF095FE20214FF070
:1090E80090402DF090FE20214FF090402DF08BFE07
:1090F80020214FF090402DF086FE20214FF0904027
:109108002DF081FE20214FF090402DF07CFE202193
:109118004FF090402DF077FE20214FF090402DF039
:1091280072FE20214FF090402DF06DFE20214FF06F
:1091380090402DF068FE20214FF090402DF063FE06
:1091480020214FF090402DF05EFE20214FF09040FE
:109158002DF059FE20214FF090402DF054FE202193
:109168004FF090402DF04FFE20214FF090402DF011
:109178004AFE20214FF090402DF045FE20214FF06F
:1091880090402DF040FE20214FF090402DF03BFE06
:1091980020214FF090402DF036FE20214FF09040D6
:1091A8002DF031FE20214FF090402DF02CFE202193
:1091B8004FF090402DF027FE20214FF090402DF0E9
:1091C80022FE20214FF090402DF01DFE20214FF06F
:1091D80090402DF018FE20214FF090402DF013FE06
:1091E80020214FF090402DF00EFE20214FF09040AE
:1091F8002DF009FE20214FF090402DF004FE202193
:109208004FF090402DF0FFFD20214FF090402DF0C1
:10921800FAFD20214FF090402DF0F5FD20214FF070
:1092280090402DF0F0FD20214FF090402DF0EBFD07
:1092380020214FF090402DF0E6FD20214FF0904086
:109248002DF0E1FD20214FF090402DF0DCFD202194
:109258004FF090402DF0D7FD20214FF090402DF099
:10926800D2FD20214FF090402DF0CDFD20214FF070
:1092780090402DF0C8FD20214FF090402DF0C3FD07
:1092880020214FF090402DF0BEFD20214FF090405E
:109298002DF0B9FD20214FF090402DF0B4FD202194
:1092A8004FF090402DF0AFFD20214FF090402DF071
:1092B800AAFD20214FF090402DF0A5FD20214FF070
:1092C80090402DF0A0FD20214FF090402DF09BFD07
:1092D80020214FF090402DF096FD20214FF0904036
:1092E8002DF091FD20214FF090402DF08CFD202194
:1092F8004FF090402DF087FD20214FF090402DF049
:1093080082FD20214FF090402DF07DFD20214FF06F
:1093180090402DF078FD20214FF090402DF073FD06
:1093280020214FF090402DF06EFD20214FF090400D
:109338002DF069FD20214FF090402DF064FD202193
:109348004FF090402DF05FFD20214FF090402DF020
:109358005AFD20214FF090402DF055FD20214FF06F
:1093680090402DF050FD20214FF090402DF04BFD06
:1093780020214FF090402DF046FD20214FF09040E5
:109388002DF041FD20214FF090402DF03CFD202193
:109398004FF090402DF037FD20214FF090402DF0F8
:1093A80032FD20214FF090402DF02DFD20214FF06F
:1093B80090402DF028FD20214FF090402DF023FD06
:1093C80020214FF090402DF01EFD20214FF09040BD
:1093D8002DF019FD20214FF090402DF014FD202193
:1093E8004FF090402DF00FFD20214FF090402DF0D0
:1093F8000AFD20214FF090402DF005FD20214FF06F
:1094080090402DF000FD20214FF090402DF0FBFC06
:1094180020214FF090402DF0F6FC20214FF0904095
:109428002DF0F1FC20214FF090402DF0ECFC202194
:109438004FF090402DF0E7FC20214FF090402DF0A8
:10944800E2FC20214FF090402DF0DDFC20214FF070
:1094580090402DF0D8FC20214FF090402DF0D3FC07
:1094680020214FF090402DF0CEFC20214FF090406D
:109478002DF0C9FC20214FF090402DF0C4FC202194
:109488004FF090402DF0BFFC20214FF090402DF080
:10949800BAFC20214FF090402DF0B5FC20214FF070
:1094A80090402DF0B0FC20214FF090402DF0ABFC07
:1094B80020214FF090402DF0A6FC20214FF0904045
:1094C8002DF0A1FC20214FF090402DF09CFC202194
:1094D8004FF090402DF097FC20214FF090402DF058
:1094E80092FC20214FF090402DF08DFC20214FF070
:1094F80090402DF088FC20214FF090402DF083FC07
:1095080020214FF090402DF07EFC20214FF090401C
:109518002DF079FC20214FF090402DF074FC202193
:109528004FF090402DF06FFC20214FF090402DF02F
:109538006AFC20214FF090402DF065FC20214FF06F
:1095480090402DF060FC20214FF090402DF05BFC06
:1095580020214FF090402DF056FC20214FF09040F4
:109568002DF051FC20214FF090402DF04CFC202193
:109578004FF090402DF047FC20214FF090402DF007
:1095880042FC20214FF090402DF03DFC20214FF06F
:1095980090402DF038FC20214FF090402DF033FC06
:1095A80020214FF090402DF02EFC20214FF09040CC
:1095B8002DF029FC20214FF090402DF024FC202193
:1095C8004FF090402DF01FFC20214FF090402DF0DF
:1095D8001AFC20214FF090402DF015FC20214FF06F
:1095E80090402DF010FC20214FF090402DF00BFC06
:1095F80020214FF090402DF006FC20214FF09040A4
:109608002DF001FC20214FF090402DF0FCFB202193
:109618004FF090402DF0F7FB20214FF090402DF0B7
:10962800F2FB20214FF090402DF0EDFB20214FF070
:1096380090402DF0E8FB20214FF090402DF0E3FB07
:1096480020214FF090402DF0DEFB20214FF090407C
:109658002DF0D9FB20214FF090402DF0D4FB202194
:109668004FF090402DF0CFFB20214FF090402DF08F
:10967800CAFB20214FF090402DF0C5FB20214FF070
:1096880090402DF0C0FB20214FF090402DF0BBFB07
:1096980020214FF090402DF0B6FB20214FF0904054
:1096A8002DF0B1FB20214FF090402DF0ACFB202194
:1096B8004FF090402DF0A7FB20214FF090402DF067
:1096C800A2FB20214FF090402DF09DFB20214FF070
:1096D80090402DF098FB20214FF090402DF093FB07
:1096E80020214FF090402DF08EFB20214FF090402C
:1096F8002DF089FB20214FF090402DF084FB202194
:109708004FF090402DF07FFB20214FF090402DF03E
:109718007AFB20214FF090402DF075FB20214FF06F
:1097280090402DF070FB20214FF090402DF06BFB06
:1097380020214FF090402DF066FB20214FF0904003
:109748002DF061FB20214FF090402DF05CFB202193
:109758004FF090402DF057FB20214FF090402DF016
:1097680052FB20214FF090402DF04DFB20214FF06F
:1097780090402DF048FB20214FF090402DF043FB06
:1097880020214FF090402DF03EFB20214FF09040DB
:109798002DF039FB20214FF090402DF034FB202193
:1097A8004FF090402DF02FFB20214FF090402DF0EE
:1097B8002AFB20214FF090402DF025FB20214FF06F
:1097C80090402DF020FB20214FF090402DF01BFB06
:1097D80020214FF090402DF016FB20214FF09040B3
:1097E8002DF011FB20214FF090402DF00CFB202193
:1097F8004FF090402DF007FB20214FF090402DF0C6
:1098080002FB20214FF090402DF0FDFA20214FF06F
:1098180090402DF0F8FA20214FF090402DF0F3FA07
:1098280020214FF090402DF0EEFA20214FF090408B
:109838002DF0E9FA20214FF090402DF0E4FA202194
:109848004FF090402DF0DFFA20214FF090402DF09E
:10985800DAFA20214FF090402DF0D5FA20214FF070
:1098680090402DF0D0FA20214FF090402DF0CBFA07
:1098780020214FF090402DF0C6FA20214FF0904063
:109888002DF0C1FA20214FF090402DF0BCFA202194
:109898004FF090402DF0B7FA20214FF090402DF076
:1098A800B2FA20214FF090402DF0ADFA20214FF070
:1098B80090402DF0A8FA20214FF090402DF0A3FA07
:1098C80020214FF090402DF09EFA20214FF090403B
:1098D8002DF099FA20214FF090402DF094FA202194
:1098E8004FF090402DF08FFA20214FF090402DF04E
:1098F8008AFA20214FF090402DF085FA20214FF070
:1099080090402DF080FA20214FF090402DF07BFA06
:1099180020214FF090402DF076FA20214FF0904012
:109928002DF071FA20214FF090402DF06CFA202193
:109938004FF090402DF067FA20214FF090402DF025
:1099480062FA20214FF090402DF05DFA20214FF06F
:1099580090402DF058FA20214FF090402DF053FA06
:1099680020214FF090402DF04EFA20214FF09040EA
:109978002DF049FA20214FF090402DF044FA202193
:109988004FF090402DF03FFA20214FF090402DF0FD
:109998003AFA20214FF090402DF035FA20214FF06F
:1099A80090402DF030FA20214FF090402DF02BFA06
:1099B80020214FF090402DF026FA20214FF09040C2
:1099C8002DF021FA20214FF090402DF01CFA202193
:1099D8004FF090402DF017FA20214FF090402DF0D5
:1099E80012FA20214FF090402DF00DFA20214FF06F
:1099F80090402DF008FA20214FF090402DF003FA06
:109A080020214FF090402DF0FEF920214FF090409A
:109A18002DF0F9F920214FF090402DF0F4F9202194
:109A28004FF090402DF0EFF920214FF090402DF0AD
:109A3800EAF920214FF090402DF0E5F920214FF070
:109A480090402DF0E0F920214FF090402DF0DBF907
:109A580020214FF090402DF0D6F920214FF0904072
:109A68002DF0D1F920214FF090402DF0CCF9202194
:109A78004FF090402DF0C7F920214FF090402DF085
:109A8800C2F920214FF090402DF0BDF920214FF070
:109A980090402DF0B8F920214FF090402DF0B3F907
:109AA80020214FF090402DF0AEF920214FF090404A
:109AB8002DF0A9F920214FF090402DF0A4F9202194
:109AC8004FF090402DF09FF920214FF090402DF05D
:109AD8009AF920214FF090402DF095F920214FF070
:109AE80090402DF090F920214FF090402DF08BF907
:109AF80020214FF090402DF086F920214FF0904022
:109B08002DF081F920214FF090402DF07CF9202193
:109B18004FF090402DF077F920214FF090402DF034
:109B280072F920214FF090402DF06DF920214FF06F
:109B380090402DF068F920214FF090402DF063F906
:109B480020214FF090402DF05EF920214FF09040F9
:109B58002DF059F920214FF090402DF054F9202193
:109B68004FF090402DF04FF920214FF090402DF00C
:109B78004AF920214FF090402DF045F920214FF06F
:109B880090402DF040F920214FF090402DF03BF906
:109B980020214FF090402DF036F920214FF09040D1
:109BA8002DF031F920214FF090402DF02CF9202193
:109BB8004FF090402DF027F920214FF090402DF0E4
:109BC80022F920214FF090402DF01DF920214FF06F
:109BD80090402DF018F920214FF090402DF013F906
:109BE80020214FF090402DF00EF920214FF09040A9
:109BF8002DF009F920214FF090402DF004F9202193
:109C08004FF090402DF0FFF820214FF090402DF0BC
:109C1800FAF820214FF090402DF0F5F820214FF070
:109C280090402DF0F0F820214FF090402DF0EBF807
:109C380020214FF090402DF0E6F820214FF0904081
:109C48002DF0E1F820214FF090402DF0DCF8202194
:109C58004FF090402DF0D7F820214FF090402DF094
:109C6800D2F820214FF090402DF0CDF820214FF070
:109C780090402DF0C8F820214FF090402DF0C3F807
:109C880020214FF090402DF0BEF820214FF0904059
:109C98002DF0B9F820214FF090402DF0B4F8202194
:109CA8004FF090402DF0AFF820214FF090402DF06C
:109CB800AAF820214FF090402DF0A5F820214FF070
:109CC80090402DF0A0F820214FF090402DF09BF807
:109CD80020214FF090402DF096F820214FF0904031
:109CE8002DF091F820214FF090402DF08CF8202194
:109CF8004FF090402DF087F820214FF090402DF044
:109D080082F820214FF090402DF07DF820214FF06F
:109D180090402DF078F820214FF090402DF073F806
:109D280020214FF090402DF06EF820214FF0904008
:109D38002DF069F820214FF090402DF064F8202193
:109D48004FF090402DF05FF820214FF090402DF01B
:109D58005AF820214FF090402DF055F820214FF06F
:109D680090402DF050F820214FF090402DF04BF806
:109D780020214FF090402DF046F820214FF09040E0
:109D88002DF041F820214FF090402DF03CF8202193
:109D98004FF090402DF037F820214FF090402DF0F3
:109DA80032F820214FF090402DF02DF820214FF06F
:109DB80090402DF028F820214FF090402DF023F806
:109DC80020214FF090402DF01EF820214FF09040B8
:109DD8002DF019F820214FF090402DF014F8202193
:109DE8004FF090402DF00FF820214FF090402DF0CB
:109DF8000AF820214FF090402DF005F820214FF06F
:109E080090402DF000F820214FF090402CF0FBFFFF
:109E180020214FF090402CF0F6FF20214FF0904089
:109E28002CF0F1FF20214FF090402CF0ECFF202186
:109E38004FF090402CF0E7FF20214FF090402CF09D
:109E4800E2FF20214FF090402CF0DDFF20214FF061
:109E580090402CF0D8FF20214FF090402CF0D3FFF9
:109E680020214FF090402CF0CEFF20214FF0904061
:109E78002CF0C9FF20214FF090402CF0C4FF202186
:109E88004FF090402CF0BFFF20214FF090402CF075
:109E9800BAFF20214FF090402CF0B5FF20214FF061
:109EA80090402CF0B0FF20214FF090402CF0ABFFF9
:109EB80020214FF090402CF0A6FF20214FF0904039
:109EC8002CF0A1FF20214FF090402CF09CFF202186
:109ED8004FF090402CF097FF20214FF090402CF04D
:109EE80092FF20214FF090402CF08DFF20214FF061
:109EF80090402CF088FF20214FF090402CF083FFF9
:109F080020214FF090402CF07EFF20214FF0904010
:109F18002CF079FF20214FF090402CF074FF202185
:109F28004FF090402CF06FFF20214FF090402CF024
:109F38006AFF20214FF090402CF065FF20214FF060
:109F480090402CF060FF20214FF090402CF05BFFF8
:109F580020214FF090402CF056FF20214FF09040E8
:109F68002CF051FF20214FF090402CF04CFF202185
:109F78004FF090402CF047FF20214FF090402CF0FC
:109F880042FF20214FF090402CF03DFF20214FF060
:109F980090402CF038FF20214FF090402CF033FFF8
:109FA80020214FF090402CF02EFF20214FF09040C0
:109FB8002CF029FF20214FF090402CF024FF202185
:109FC8004FF090402CF01FFF20214FF090402CF0D4
:109FD8001AFF20214FF090402CF015FF20214FF060
:109FE80090402CF010FF20214FF090402CF00BFFF8
:109FF80020214FF090402CF006FF20214FF0904098
:10A008002CF001FF20214FF090402CF0FCFE202185
:10A018004FF090402CF0F7FE20214FF090402CF0AC
:10A02800F2FE20214FF090402CF0EDFE20214FF061
:10A0380090402CF0E8FE20214FF090402CF0E3FEF9
:10A0480020214FF090402CF0DEFE20214FF0904070
:10A058002CF0D9FE20214FF090402CF0D4FE202186
:10A068004FF090402CF0CFFE20214FF090402CF084
:10A07800CAFE20214FF090402CF0C5FE20214FF061
:10A0880090402CF0C0FE20214FF090402CF0BBFEF9
:10A0980020214FF090402CF0B6FE20214FF0904048
:10A0A8002CF0B1FE20214FF090402CF0ACFE202186
:10A0B8004FF090402CF0A7FE20214FF090402CF05C
:10A0C800A2FE20214FF090402CF09DFE20214FF061
:10A0D80090402CF098FE20214FF090402CF093FEF9
:10A0E80020214FF090402CF08EFE20214FF0904020
:10A0F8002CF089FE20214FF090402CF084FE202186
:10A108004FF090402CF07FFE20214FF090402CF033
:10A118007AFE20214FF090402CF075FE20214FF060
:10A1280090402CF070FE20214FF090402CF06BFEF8
:10A1380020214FF090402CF066FE20214FF09040F7
:10A148002CF061FE20214FF090402CF05CFE202185
:10A158004FF090402CF057FE20214FF090402CF00B
:10A1680052FE20214FF090402CF04DFE20214FF060
:10A1780090402CF048FE20214FF090402CF043FEF8
:10A1880020214FF090402CF03EFE20214FF09040CF
:10A198002CF039FE20214FF090402CF034FE202185
:10A1A8004FF090402CF02FFE20214FF090402CF0E3
:10A1B8002AFE20214FF090402CF025FE20214FF060
:10A1C80090402CF020FE20214FF090402CF01BFEF8
:10A1D80020214FF090402CF016FE20214FF09040A7
:10A1E8002CF011FE20214FF090402CF00CFE202185
:10A1F8004FF090402CF007FE20214FF090402CF0BB
:10A2080002FE20214FF090402CF0FDFD20214FF060
:10A2180090402CF0F8FD20214FF090402CF0F3FDF9
:10A2280020214FF090402CF0EEFD20214FF090407F
:10A238002CF0E9FD20214FF090402CF0E4FD202186
:10A248004FF090402CF0DFFD20214FF090402CF093
:10A25800DAFD20214FF090402CF0D5FD20214FF061
:10A2680090402CF0D0FD20214FF090402CF0CBFDF9
:10A2780020214FF090402CF0C6FD20214FF0904057
:10A288002CF0C1FD20214FF090402CF0BCFD202186
:10A298004FF090402CF0B7FD20214FF090402CF06B
:10A2A800B2FD20214FF090402CF0ADFD20214FF061
:10A2B80090402CF0A8FD20214FF090402CF0A3FDF9
:10A2C80020214FF090402CF09EFD20214FF090402F
:10A2D8002CF099FD20214FF090402CF094FD202186
:10A2E8004FF090402CF08FFD20214FF090402CF043
:10A2F8008AFD20214FF090402CF085FD20214FF061
:10A3080090402CF080FD20214FF090402CF07BFDF8
:10A3180020214FF090402CF076FD20214FF0904006
:10A328002CF071FD20214FF090402CF06CFD202185
:10A338004FF090402CF067FD20214FF090402CF01A
:10A3480062FD20214FF090402CF05DFD20214FF060
:10A3580090402CF058FD20214FF090402CF053FDF8
:10A3680020214FF090402CF04EFD20214FF09040DE
:10A378002CF049FD20214FF090402CF044FD202185
:10A388004FF090402CF03FFD20214FF090402CF0F2
:10A398003AFD20214FF090402CF035FD20214FF060
:10A3A80090402CF030FD20214FF090402CF02BFDF8
:10A3B80020214FF090402CF026FD20214FF09040B6
:10A3C8002CF021FD20214FF090402CF01CFD202185
:10A3D8004FF090402CF017FD20214FF090402CF0CA
:10A3E80012FD20214FF090402CF00DFD20214FF060
:10A3F80090402CF008FD20214FF090402CF003FDF8
:10A4080020214FF090402CF0FEFC20214FF090408E
:10A418002CF0F9FC20214FF090402CF0F4FC202186
:10A428004FF090402CF0EFFC20214FF090402CF0A2
:10A43800EAFC20214FF090402CF0E5FC20214FF061
:10A4480090402CF0E0FC20214FF090402CF0DBFCF9
:10A4580020214FF090402CF0D6FC20214FF0904066
:10A468002CF0D1FC20214FF090402CF0CCFC202186
:10A478004FF090402CF0C7FC20214FF090402CF07A
:10A48800C2FC20214FF090402CF0BDFC20214FF061
:10A4980090402CF0B8FC20214FF090402CF0B3FCF9
:10A4A80020214FF090402CF0AEFC20214FF090403E
:10A4B8002CF0A9FC20214FF090402CF0A4FC202186
:10A4C8004FF090402CF09FFC20214FF090402CF052
:10A4D8009AFC20214FF090402CF095FC20214FF061
:10A4E80090402CF090FC20214FF090402CF08BFCF9
:10A4F80020214FF090402CF086FC20214FF0904016
:10A508002CF081FC20214FF090402CF07CFC202185
:10A518004FF090402CF077FC20214FF090402CF029
:10A5280072FC20214FF090402CF06DFC20214FF060
:10A5380090402CF068FC20214FF090402CF063FCF8
:10A5480020214FF090402CF05EFC20214FF09040ED
:10A558002CF059FC20214FF090402CF054FC202185
:10A568004FF090402CF04FFC20214FF090402CF001
:10A578004AFC20214FF090402CF045FC20214FF060
:10A5880090402CF040FC20214FF090402CF03BFCF8
:10A5980020214FF090402CF036FC20214FF09040C5
:10A5A8002CF031FC20214FF090402CF02CFC202185
:10A5B8004FF090402CF027FC20214FF090402CF0D9
:10A5C80022FC20214FF090402CF01DFC20214FF060
:10A5D80090402CF018FC20214FF090402CF013FCF8
:10A5E80020214FF090402CF00EFC20214FF090409D
:10A5F8002CF009FC20214FF090402CF004FC202185
:10A608004FF090402CF0FFFB20214FF090402CF0B1
:10A61800FAFB20214FF090402CF0F5FB20214FF061
:10A6280090402CF0F0FB20214FF090402CF0EBFBF9
:10A6380020214FF090402CF0E6FB20214FF0904075
:10A648002CF0E1FB20214FF090402CF0DCFB202186
:10A658004FF090402CF0D7FB20214FF090402CF089
:10A66800D2FB20214FF090402CF0CDFB20214FF061
:10A6780090402CF0C8FB20214FF090402CF0C3FBF9
:10A6880020214FF090402CF0BEFB20214FF090404D
:10A698002CF0B9FB20214FF090402CF0B4FB202186
:10A6A8004FF090402CF0AFFB20214FF090402CF061
:10A6B800AAFB20214FF090402CF0A5FB20214FF061
:10A6C80090402CF0A0FB20214FF090402CF09BFBF9
:10A6D80020214FF090402CF096FB20214FF0904025
:10A6E8002CF091FB20214FF090402CF08CFB202186
:10A6F8004FF090402CF087FB20214FF090402CF039
:10A7080082FB20214FF090402CF07DFB20214FF060
:10A7180090402CF078FB20214FF090402CF073FBF8
:10A7280020214FF090402CF06EFB20214FF09040FC
:10A738002CF069FB20214FF090402CF064FB202185
:10A748004FF090402CF05FFB20214FF090402CF010
:10A758005AFB20214FF090402CF055FB20214FF060
:10A7680090402CF050FB20214FF090402CF04BFBF8
:10A7780020214FF090402CF046FB20214FF09040D4
:10A788002CF041FB20214FF090402CF03CFB202185
:10A798004FF090402CF037FB20214FF090402CF0E8
:10A7A80032FB20214FF090402CF02DFB20214FF060
:10A7B80090402CF028FB20214FF090402CF023FBF8
:10A7C80020214FF090402CF01EFB20214FF09040AC
:10A7D8002CF019FB20214FF090402CF014FB202185
:10A7E8004FF090402CF00FFB20214FF090402CF0C0
:10A7F8000AFB20214FF090402CF005FB20214FF060
:10A8080090402CF000FB20214FF090402CF0FBFAF8
:10A8180020214FF090402CF0F6FA20214FF0904084
:10A828002CF0F1FA20214FF090402CF0ECFA202186
:10A838004FF090402CF0E7FA20214FF090402CF098
:10A84800E2FA20214FF090402CF0DDFA20214FF061
:10A8580090402CF0D8FA20214FF090402CF0D3FAF9
:10A8680020214FF090402CF0CEFA20214FF090405C
:10A878002CF0C9FA20214FF090402CF0C4FA202186
:10A888004FF090402CF0BFFA20214FF090402CF070
:10A89800BAFA20214FF090402CF0B5FA20214FF061
:10A8A80090402CF0B0FA20214FF090402CF0ABFAF9
:10A8B80020214FF090402CF0A6FA20214FF0904034
:10A8C8002CF0A1FA20214FF090402CF09CFA202186
:10A8D8004FF090402CF097FA20214FF090402CF048
:10A8E80092FA20214FF090402CF08DFA20214FF061
:10A8F80090402CF088FA20214FF090402CF083FAF9
:10A9080020214FF090402CF07EFA20214FF090400B
:10A918002CF079FA20214FF090402CF074FA202185
:10A928004FF090402CF06FFA20214FF090402CF01F
:10A938006AFA20214FF090402CF065FA20214FF060
:10A9480090402CF060FA20214FF090402CF05BFAF8
:10A9580020214FF090402CF056FA20214FF09040E3
:10A968002CF051FA20214FF090402CF04CFA202185
:10A978004FF090402CF047FA20214FF090402CF0F7
:10A9880042FA20214FF090402CF03DFA20214FF060
:10A9980090402CF038FA20214FF090402CF033FAF8
:10A9A80020214FF090402CF02EFA20214FF09040BB
:10A9B8002CF029FA20214FF090402CF024FA202185
:10A9C8004FF090402CF01FFA20214FF090402CF0CF
:10A9D8001AFA20214FF090402CF015FA20214FF060
:10A9E80090402CF010FA20214FF090402CF00BFAF8
:10A9F80020214FF090402CF006FA20214FF0904093
:10AA08002CF001FA20214FF090402CF0FCF9202185
:10AA18004FF090402CF0F7F920214FF090402CF0A7
:10AA2800F2F920214FF090402CF0EDF920214FF061
:10AA380090402CF0E8F920214FF090402CF0E3F9F9
:10AA480020214FF090402CF0DEF920214FF090406B
:10AA58002CF0D9F920214FF090402CF0D4F9202186
:10AA68004FF090402CF0CFF920214FF090402CF07F
:10AA7800CAF920214FF090402CF0C5F920214FF061
:10AA880090402CF0C0F920214FF090402CF0BBF9F9
:10AA980020214FF090402CF0B6F920214FF0904043
:10AAA8002CF0B1F920214FF090402CF0ACF9202186
:10AAB8004FF090402CF0A7F920214FF090402CF057
:10AAC800A2F920214FF090402CF09DF920214FF061
