:020000040804EE
:100000000080012051030408290304082B0304087D
:100010002D0304082F030408310304080000000026
:10002000000000000000000000000000330304088E
:1000300035030408000000003703040839030408EE
:10004000A1030408A1030408A1030408A1030408F0
:10005000A1030408A1030408A1030408A1030408E0
:10006000A1030408A1030408A1030408A1030408D0
:10007000A1030408A1030408A1030408A1030408C0
:10008000A1030408A1030408A1030408A1030408B0
:10009000A1030408A1030408A1030408A1030408A0
:1000A000A1030408A1030408A1030408A103040890
:1000B000A1030408A1030408A1030408A103040880
:1000C000A1030408A1030408A1030408A103040870
:1000D000A1030408A1030408A1030408A103040860
:1000E000A1030408A1030408A1030408A103040850
:1000F000A1030408A1030408A1030408A103040840
:10010000A1030408A1030408A1030408A10304082F
:10011000A1030408A1030408A1030408A10304081F
:10012000A1030408A1030408A1030408A10304080F
:10013000A1030408A1030408A1030408A1030408FF
:10014000A1030408A1030408A1030408A1030408EF
:10015000A1030408A1030408A1030408A1030408DF
:10016000A1030408A1030408A1030408A1030408CF
:10017000A1030408A1030408A1030408000000006F
:08018000A1030408A103040817
:1001880010B5054C237833B9044B13B10448AFF3C9
:1001980000800123237010BD0C0000200000000027
:1001A800240F040808B5034B1BB103490348AFF3F8
:1001B800008008BD0000000010000020240F040883
:1001C80000B597B04422002105A800F07BFE142258
:1001D8000021684600F076FE4FF4007000F088FABF
:1001E80008B172B6FEE710224FF480710120CDE904
:1001F80008120A220223CDE91102072205A8CDE937
:100208000F33CDE913230593159300F033FB08B1A1
:1002180072B6FEE7CDE902000F2203230490042101
:100228006846CDE9002300F0A3FD08B172B6FEE7E9
:1002380017B05DF804FB000000B58BB000F0D4F8EF
:10024800FFF7BEFF142200210DEB020000F03AFE7A
:10025800254BDA6C42F00402DA64DA6C02F004022C
:100268000192019ADA6C42F08002DA64DA6C02F0E8
:1002780080020292029ADA6C42F00102DA64DA6CC5
:1002880002F001020392039ADA6C42F00202DA6485
:10029800DB6C03F002030493002220214FF090400E
:1002A800049B002400F00EFA4FF404130F4807943F
:1002B8004FF4005205A9CDE9052300F029F92021C2
:1002C8000123CDE905134FF0904005A9CDE9074476
:1002D80000F01EF920214FF0904000F0F8F94FF49B
:1002E8007A7000F0A9F8F5E700100240000800480D
:1002F8000A4B1A6E42F0010282B01A661A6E02F0B8
:1003080001020092009A9A6D42F080529A659B6DA4
:1003180003F080530193019B02B070470010024024
:10032800FEE7FEE7FEE7FEE7FEE770477047704727
:1003380000F070B8034AD2F8883043F47003C2F86A
:100348008830704700ED00E0DFF834D0FFF7F2FFA7
:100358000C480D490D4A002302E0D458C450043318
:10036800C4188C42F9D30A4A0A4C002301E01360EE
:100378000432A242FBD300F0ADFDFFF75DFFFEE7BC
:1003880000800120000000200C000020840F0408D9
:100398000C0000202C000020FEE7000038B50F4BB1
:1003A8001A7805460AB9012038BD4FF47A73B3FBB1
:1003B800F2F30B4A1068B0FBF3F000F095F804462E
:1003C8000028F0D10F2DEED8024629464FF0FF3015
:1003D80000F058F8034B20461D60E5E704000020B4
:1003E8000000002008000020094A136843F48073C5
:1003F80010B50320136000F033F80020FFF7CEFF9C
:10040800044618B9FFF774FF204610BD0124FBE726
:1004180000200240034A044B11681B780B44136008
:10042800704700BF2800002004000020014B186816
:10043800704700BF2800002038B50446FFF7F6FFD4
:10044800631C1CBF054B1B78054618BFE418FFF753
:10045800EDFF431BA342FAD338BD00BF04000020C0
:100468000749CA6822F4E0620302120403F4E06355
:10047800120C134343F0BF6343F40033CB6070475F
:1004880000ED00E0164B30B5DC68C4F30224C4F17B
:100498000703251D042B28BF0423062D4FF0FF3525
:1004A8008CBF033C002405FA03F321EA0303A540AB
:1004B80022EA0502A340002843EA0203ACBF00F188
:1004C8006040084A4FEA0313B8BF00F00F00DBB2E0
:1004D800AABF00F56140135480F8003330BD00BF57
:1004E80000ED00E014ED00E00138B0F1807F0BD2A0
:1004F8004FF0E023054A5861F02182F823100020CC
:10050800072298611A6170470120704700ED00E0EA
:100518002DE9F74FDFF8A891674C00230A6832FAF3
:1005280003F502D103B0BDE8F08F012505FA03F801
:1005380018EA020200F0B1804D68032705F00306AF
:100548004FEA430E07FA0EFC771E012F6FEA0C0CD8
:1005580034D8876807EA0C0ACF6807FA0EF747EA23
:100568000A078760476827EA0808C5F300179F400D
:1005780047EA08074760C76807EA0C088F6807FA60
:100588000EF747EA0807022EC76022D14FEAD308C0
:1005980000EB880803F0070AD8F820704FEA8A0AA7
:1005A8004FF00F0B0BFA0AFB27EA0B0B0F6907FA40
:1005B8000AF747EA0B07C8F820700AE0032EDAD1D9
:1005C800C76A27EA0808C5F3C0079F4047EA080733
:1005D800C762076806FA0EF607EA0C073E4315F4E9
:1005E800403F066059D0D9F8606046F00106C9F866
:1005F8006060D9F8606023F0030707F1804706F0D0
:10060800010607F58037019603F0030C019EBE68CA
:100618004FEA8C0C4FF00F0E0EFA0CFEB0F1904F13
:1006280026EA0E0E3BD0254EB0423AD006F580663B
:10063800B04238D006F58066B04236D006F58066FE
:10064800B04234D006F58066B04232D006F58066F6
:10065800B04214BF0726062606FA0CF646EA0E062E
:10066800BE60A668D74315F4801F0CBF3E401643F2
:10067800A660E66815F4001F0CBF3E401643E6600E
:10068800666815F4003F0CBF3E4016436660266856
:10069800ED0354BF3E401643266001333EE7002673
:1006A800DAE70126D8E70226D6E70326D4E70426A8
:1006B800D2E70526D0E700BF000401400004004847
:1006C800001002400AB18161704781627047436936
:1006D80001EA030221EA030141EA0241816170470C
:1006E800024B186800F4C060704700BF00700040FB
:1006F800174A1368B0F5007F03F4C0631BD1B3F544
:10070800007F1BD0136823F4C06343F400731360A5
:10071800104B1B6832214B430F49B3FBF1F30133F4
:100728005169490500D523B953695B0506D50320EE
:100738007047013BF4E7B3F5806F01D100207047A3
:10074800136823F4C06343F480631360F6E700BFC3
:10075800007000400000002040420F0037B51E4DD9
:10076800AB6DDA00044618D5FFF7BAFFB0F5007F85
:1007780023D1802C29D9A02C8CBF0224012417490D
:100788000A6822F0070222430A60086800F007009E
:10079800001B18BF012003B030BDAB6D43F0805380
:1007A800AB65AB6D03F080530193019BFFF798FF96
:1007B800AB6D23F08053AB65D8E7802C07D808D001
:1007C800A4F170035C425C41D9E70024D7E7032415
:1007D800D5E70224D3E700BF001002400020024002
:1007E800204B9A68D96812F00C0205D00C2A2CD13B
:1007F80001F0030101292FD119681B48090755BFCA
:10080800D3F894101968C1F30321C1F3031150F808
:10081800210032B3DA6802F00302022A1ED013491B
:10082800032A08BF0846D968DA68C2F30622424399
:10083800D868C0F34160C1F30211013001314000B2
:10084800B2FBF1F2B2FBF0F07047042A08D0082A94
:10085800064818BF002070470020DBE70448E2E79D
:1008680003487047001002403C0F040800127A0049
:100878000024F4002DE9F743054618B9012003B018
:10088800BDE8F083924C0368A668E768D80606F0CE
:100898000C0607F003073DD51EB10C2E66D1012FBB
:1008A80064D12368990702D5AB69002BE6D0236889
:1008B800286A1A0756BFD4F8943023681B0903F036
:1008C800F00398423BD9FFF749FF0028D6D12368A7
:1008D80043F00803236023682A6A23F0F0031343D4
:1008E80023606368EA6923F47F4343EA0223636071
:1008F800FFF776FFA368774AC3F30313D35C03F0CB
:100908001F03D840744B1860744B1868FFF746FDF6
:100918000028B4D12B68D9075FD42B689A0700F157
:100928009E802B68190700F1DB802B685A0700F1BD
:100938000181AB6A002B40F06A8100209FE72368A1
:1009480043F008032360236823F0F0030343236084
:100958006368EA6923F47F4343EA02236360002E55
:10096800C6D1FFF7FBFE0028C2D087E7AB691BB3EF
:10097800236843F001032360FFF758FD804623688E
:100988009B0711D5236843F00803236023682A6A6C
:1009980023F0F003134323606368EA6923F47F4379
:1009A80043EA02236360B5E7FFF740FDA0EB0800C8
:1009B8000228E4D9032062E7236823F001032360B7
:1009C800FFF734FD804623689807A3D5FFF72EFD6F
:1009D800A0EB08000228F6D9ECE7082E03D00C2E6D
:1009E80008D1032F06D123689B0396D56B68002B8B
:1009F80093D143E76B68B3F5803F10D1236843F484
:100A080080332360FFF712FD80462368980384D45F
:100A1800FFF70CFDA0EB08006428F6D9CAE7B3F588
:100A2800A02F04D1236843F480232360E6E72268DB
:100A380022F480322260226822F480222260002B75
:100A4800E0D1FFF7F3FC8046236899037FF565AF93
:100A5800FFF7ECFCA0EB08006428F5D9AAE7042E00
:100A680003D00C2E10D1022F0ED123685A0503D5BE
:100A7800EB68002B3FF402AF63682A6923F0F85350
:100A880043EA026363604CE7EB687BB1236843F495
:100A980080732360FFF7CAFC074623685B05EBD425
:100AA800FFF7C4FCC01B0228F7D983E7236823F4A7
:100AB80080732360FFF7BAFC0746236858057FF563
:100AC80030AFFFF7B3FCC01B0228F6D972E700BFAE
:100AD800001002406C0F04080000002008000020ED
:100AE8006B699BB1D4F8943043F00103C4F8943097
:100AF800FFF79CFC0746D4F894309B073FF515AFE9
:100B0800FFF794FCC01B0228F5D953E7D4F89430BA
:100B180023F00103C4F89430FFF788FC0746D4F8A3
:100B2800943098077FF501AFFFF780FCC01B0228BF
:100B3800F5D93FE7A36DD90029D4A36D43F08053BD
:100B4800A365A36D03F080530193019B4FF0010847
:100B5800844F3B68DA051DD5AB68012B2BD1D4F83F
:100B6800903043F00103C4F89030FFF75FFC41F286
:100B780088390746D4F89030980742D5B8F1000F65
:100B88003FF4D7AEA36D23F08053A365D1E64FF0B1
:100B98000008DDE73B6843F480733B60FFF746FCE1
:100BA80081463B68DB05D7D4FFF740FCA0EB090082
:100BB8000228F6D9FEE6052B06D1D4F8903043F08A
:100BC8000403C4F89030CAE7D4F8902022F0010258
:100BD800C4F89020D4F8902022F00402C4F89020A1
:100BE800002BC2D1FFF722FC41F288390746D4F81E
:100BF80090309907C2D5FFF719FCC01B4845F6D9B4
:100C0800D8E6FFF713FCC01B4845B3D9D2E6022B40
:100C180040F08F80E368EA6A03F00301914224D12F
:100C2800296B03F070020139B2EB011F1DD1696B0A
:100C380003F4FE42B2EB012F17D1AA6B073A03F473
:100C4800003118BF012291420FD1EA6B520803F418
:100C5800C001013AB1EB425F07D12A6C520803F098
:100C6800C063013AB3EB426F4AD00C2E3FF406AE94
:100C780023685A013FF502AE2368DB003FF5FEAD5D
:100C8800236823F080732360FFF7D0FB06462368B0
:100C98009F012FD4E268344B1340EA6A13436A6B0E
:100CA80043EA02232A6B013A43EA0213AA6B1209A8
:100CB80043EA4243EA6B5208013A43EA42532A6C38
:100CC8005208013A43EA4263E360236843F08073C1
:100CD8002360E36843F08073E360FFF7A7FB0546F2
:100CE800236898013FF529AEFFF7A0FB401B0228B7
:100CF800F6D95FE6FFF79AFB801B0228C7D959E6A9
:100D0800236899013FF519AE236843F08073236087
:100D1800E36843F08073E360FFF788FB05462368C8
:100D28009A013FF50AAEFFF781FB401B0228F6D96E
:100D380040E60C2E3FF4A2AD236823F080732360B5
:100D4800FFF774FB054623689B0104D4E268074B50
:100D58001340E360F1E5FFF769FB401B0228F2D975
:100D680028E600BF007000408C809DF9FCFFEEFE75
:100D78002DE9F0410D46044610B90120BDE8F08187
:100D88004B4A136803F007038B422CD3216888076A
:100D980034D4C9073FD421688A0768D4444A136801
:100DA80003F00703AB426FD811F0040F414D77D120
:100DB8000B0706D5AB68226923F4605343EAC203E4
:100DC800AB60FFF70DFDAB683B4AC3F30313BDE807
:100DD800F041D35C03F01F03D840384B1860384B00
:100DE8001868FFF7DBBA136823F007030B43136097
:100DF800136803F007038B42BFD1C7E72D4AA068E9
:100E0800936803F0F003984281BF936823F0F003DE
:100E180003439360BDE76268264E032A33681AD1FC
:100E280013F0007FA9D0B36823F003031343B36022
:100E3800FFF7FCFA41F288380746B368626803F0A6
:100E48000C03B3EB820FA6D0FFF7F0FAC01B4045A6
:100E5800F3D9032092E7022A02D113F4003FE1E715
:100E680012B913F0020FDDE713F4806FDAE7114AC5
:100E7800A068936803F0F00398423FBF936823F09B
:100E8800F0030343936089E7136823F007032B43B8
:100E98001360136803F00703AB427FF46EAF83E778
:100EA800AB68E26823F4E0631343AB6080E700BFFC
:100EB80000200240001002406C0F040800000020CF
:100EC8000800002002440346934200D1704703F80B
:100ED800011BF9E770B50D4D0D4C641BA4100026DD
:100EE800A64209D10B4D0C4C00F018F8641BA41055
:100EF8000026A64205D170BD55F8043B9847013637
:100F0800EEE755F8043B98470136F2E77C0F0408F2
:100F18007C0F04087C0F0408800F0408F8B500BF94
:100F2800F8BC08BC9E467047F8B500BFF8BC08BCC2
:040F38009E4670471A
:100F3C00A0860100400D0300801A060000350C004D
:100F4C0040420F0080841E0000093D0000127A0010
:100F5C000024F40000366E010048E801006CDC024D
:100F6C00000000000000000001020304060708094D
:040F7C00AD010408B7
:040F800089010408D7
:0C0F840000093D0001000000100000000A
:040000050804035197
:00000001FF
