:020000040800F2
:100000000080012045150008911200089312000895
:1000100095120008971200089912000800000000CD
:100020000000000000000000000000009B1200081B
:100030009D120008000000009F120008A112000895
:1000400095150008951500089515000895150008E8
:1000500095150008951500089515000895150008D8
:1000600095150008951500089515000895150008C8
:1000700095150008951500089515000895150008B8
:1000800095150008951500089515000895150008A8
:100090009515000895150008951500089515000898
:1000A0009515000895150008951500089515000888
:1000B0009515000895150008951500089515000878
:1000C0009515000895150008951500089515000868
:1000D0009515000895150008A5120008951500084B
:1000E0009515000895150008951500089515000848
:1000F0009515000895150008951500089515000838
:100100009515000895150008951500089515000827
:100110009515000895150008951500089515000817
:100120009515000895150008951500089515000807
:1001300095150008951500089515000895150008F7
:1001400095150008951500089515000895150008E7
:1001500095150008951500089515000895150008D7
:1001600095150008951500089515000895150008C7
:100170009515000895150008951500080000000069
:08018000951500089515000813
:1001900010B5054C237833B9044B13B10448AFF3C1
:1001A00000800123237010BD4801002000000000E2
:1001B000C04D000808B5034B1BB103490348AFF31A
:1001C000008008BD000000004C010020C04D000868
:1001D000034613F8012B002AFBD1181A0138704787
:1001E00001F0FF01102A2BDB10F0070F08D010F8E8
:1001F000013B013A8B422DD010F0070F42B3F6D1EC
:10020000F0B441EA012141EA014122F007047FF004
:1002100000070023F0E80256083C85EA010586EA5B
:10022000010685FA47F5A3FA87F586FA47F6A5FA97
:1002300087F68EB9EED1F0BC01F0FF0102F00702A3
:1002400032B110F8013B013A83EA010313B1F8D14E
:100250000020704701387047002D06BF354603382F
:10026000073815F0010F07D1013015F4807F02BF68
:10027000013015F4C03F0130F0BC0138704700BFB9
:1002800053B94AB9002908BF00281CBF4FF0FF31FD
:100290004FF0FF3000F088B9ADF1080C6DE904CEE5
:1002A00000F006F8DDF804E0DDE9022304B0704751
:1002B0002DE9F047089D8E4604468846002B4AD11A
:1002C0008A42174662D9B2FA82F64EB1C6F12003CD
:1002D00001FA06F820FA03F3B74043EA0808B440ED
:1002E0004FEA174E1FFA87FCB8FBFEF1230C0EFBFA
:1002F000118843EA084301FB0CF29A4209D9FB1822
:1003000001F1FF3080F0EA809A4240F2E780023942
:100310003B449A1AA3B2B2FBFEF00EFB102243EA52
:10032000024300FB0CFC9C4509D9FB1800F1FF328D
:1003300080F0D6809C4540F2D3803B44023840EAAE
:100340000140A3EB0C0300211DB1F3400022C5E9DD
:100350000032BDE8F0878B4205D90DB1C5E9000137
:1003600000210846F5E7B3FA83F1002946D1734529
:1003700002D3824200F20581841A6EEB030201204F
:100380009046002DE5D0C5E90048E2E7002A00F0DC
:100390009080B2FA82F6002E40F0A4808A1A030CF4
:1003A0004FEA174E80B2BCB20121B2FBFEFC0EFB3D
:1003B0001C2243EA024304FB0CF29A4207D9FB18C1
:1003C0000CF1FF3802D29A4200F2E080C4469B1A38
:1003D000B3FBFEF20EFB123340EA034302FB04F4CC
:1003E0009C4207D9FB1802F1FF3002D29C4200F276
:1003F000CA8002461B1B42EA0C40A5E7C1F1200659
:100400008B4022FA06F71F430EFA01F420FA06F396
:100410002EFA06FE4FEA1749234300FA01F81FFAA5
:1004200087FCBEFBF9F01C0C09FB10EE44EA0E44FD
:1004300000FB0CFEA64502FA01F209D93C1900F1B5
:10044000FF3A80F09C80A64540F2998002383C44F7
:10045000A4EB0E041FFA83FEB4FBF9F309FB13446B
:100460004EEA044403FB0CFCA44508D93C1903F1F3
:10047000FF3E80F08280A4457FD9023B3C4443EAA2
:100480000040A4EB0C04A0FB02EC64457346E1467B
:1004900062D35FD05DB1B8EB030264EB090404FAE8
:1004A00006F622FA01F31E43CC40C5E900640021A0
:1004B0004FE7B1FBF2FC010C41EA0E4180B240EA89
:1004C00001423B4638463C46B846BE462026B1FB74
:1004D000F7F1A2EB080241EA0C4166E7014618E792
:1004E00010462CE7C6F120022EFA02F3B740B140C5
:1004F00020FA02F24FEA174E0A43B3FBFEF8BCB2F1
:100500000EFB1833110C41EA034108FB04F9B0401B
:1005100089454FEA104380B23ED9791808F1FF3C73
:1005200001D289451FD8A1EB0901B1FBFEF909FBF6
:1005300004F80EFB191192B242EA0142424529D257
:10054000BA1809F1FF31C4D24245C2D2A9F1020161
:100550003A44BEE7F0459DD2BEEB02036CEB070CBC
:100560000138E14696E7A7EB09094944A8F1020CD6
:10057000B1FBFEF909FB04F8DBE773467FE7504661
:1005800066E70846FDE63B44023A33E7ACF1020C6D
:100590003B441CE749469CE7A1EB0901C446B1FB7B
:1005A000FEF909FB04F8C4E7704700BF70B50446C4
:1005B0000D46164601F0F4F908BB05F00703621971
:1005C000014698420CDB1D4425F007052544361BE7
:1005D000AC4206EB040107D101F0F4F9002010E071
:1005E00002F8011B0130ECE7F4E80223002001F0DF
:1005F00023FA0128ECD101F0EFF901F0E3F94FF013
:10060000FF3070BD30B585B005460C4601F0C8F925
:1006100080B9B4F5807F34BF01230223CDE9000304
:1006200008496846CDE9024501F0B8FA044628B108
:1006300001F0C8F94FF0FF3005B030BD01F0C2F94C
:100640002046F9E76401002010B50B4C237D13F020
:10065000FD0F05D0204600F0F9FDE068074B9847F4
:1006600094F82C3013F0FD0F05D004F1180000F0C1
:10067000EDFD606AF2E710BD00A0000895000020C3
:10068000094808B5094B036000238380202280239A
:10069000C0E905230123036201F0A2F818B1BDE807
:1006A000084000F08BBD08BD68010020003002400A
:1006B0000268084B9A4282B00AD1A3F500539A6CA3
:1006C00042F480529A649B6C03F480530193019B23
:1006D00002B07047003002402DE9F84F0A9EDFF863
:1006E00088B0002E82460F469146984608BF6FF0AC
:1006F00000460C4600250B9B01222146504602F085
:1007000044FF60B90135A94504F1010426D3042D45
:10071000F1DD13480422211F03F058FB70B9114981
:10072000104D384603F064FB002420B148F8240043
:100730000134A6420DDC0020BDE8F88F072DDADD7C
:100740000722E11F584603F041FB0028D3D10120C6
:10075000F2E72946002003F04BFBE6E70220EBE737
:100760007F9A0008819A0008849A00082DE9FF41C9
:10077000054604A800E90E000C464FF480720021E3
:100780001B481E4603F00BFB2046FFF721FD2044CB
:10079000224610F8013C3F2B17D116491448164F3A
:1007A000DFF85C8003F07CFA114B0024B4420ED1D8
:1007B0000F48FFF70DFD0E4982B24FF4FA63284649
:1007C00004B0BDE8F04102F08FBE0C49E6E7029AA2
:1007D000184652F8241003F0EAFA721EA24214BF1F
:1007E0004146394603F0E3FA01340346DEE700BF31
:1007F000B40100208C9A0008819A0008929A00089F
:10080000999A00082DE9F04385B001AC84E80E0008
:10081000DDE90C6794E80E00DDE90E890546FFF777
:10082000A5FF4FF4FA53CDE90C933A4643463146BF
:10083000284605B0BDE8F043FFF74EBF2DE9F04173
:1008400005468EB008461F460C461646FFF7C0FC0C
:10085000033002F091FF22461149804603F020FA4E
:10086000104B08930D93104B059308AB069306238A
:100870000793159B0393149B0C4A0096CDE90173D3
:10088000CDE909280A4A05ABCDE90B2228460ECB53
:10089000FFF7B8FF003818BF01200EB0BDE8F081A7
:1008A0009B9A0008A09A0008A29A0008BC9A000827
:1008B000839A000884B02DE9F04188B00FAC05465A
:1008C000204684E80E00FFF783FC033002F054FF5B
:1008D000074617A8FFF77CFC033002F04DFFDFF856
:1008E0007880064622464146384603F0D9F917AAD1
:1008F0004146304603F0D4F9144B059303AB0693FD
:1009000002230793124C08AB13E90E00CDE90376DE
:1009100028464FF48076FFF729FF32460021204613
:1009200003F03DFA282342F21072CDE9003221464D
:10093000084B32462846FFF7CFFE003818BF01208B
:10094000404208B0BDE8F04104B07047AD9A0008DD
:10095000B40100208C0100209B9A00082DE9F04191
:10096000054690B008460C461F461646FFF730FC79
:10097000033002F001FF22461849804603F090F947
:10098000174BCDF82080CDE90933164B0B93164B4E
:10099000059308AB06930223102407930CAB224661
:1009A0000021184603F0FBF9CDE90067CDE9020408
:1009B00005AB0ECB2846FFF725FF044660B90B496F
:1009C0000D9803F015FA0949204603F011FA02F0D8
:1009D000CFFE10B0BDE8F0810020FAE79B9A000836
:1009E000B39A0008B89A0008BE9A0008CA9A00088C
:1009F0002DE9F04380469FB008460C4617469946BD
:100A0000FFF7E6FB0330269E02F0B6FE224627499A
:100A1000054614AC03F044F9002E42D0D6E9002379
:100A20002349204603F03CF90723224A0D92224A2B
:100A3000CDE90E25214ACDE91022214ACDE9122423
:100A4000204A04920DAACDE9052307AB1822002104
:100A5000184603F0A4F90124CDE90204CDE9007998
:100A600004AB0ECB4046FFF7CDFE0546D8B9079C38
:100A70002046FFF7ADFB013004441349204603F044
:100A8000B7F92046FFF7A4FB72683368411C0132B6
:100A9000D21A2144384603F068F928461FB0BDE851
:100AA000F0830623C1E72546F7E700BF9B9A0008BD
:100AB000CC9A0008EE9A0008BC9A0008839A0008B5
:100AC000A09A0008A29A0008999A000810B514226A
:100AD0008AB00DEB0200002103F061F9214BDA6CC2
:100AE00042F00402DA64DA6C02F004020192019A24
:100AF000DA6C42F08002DA64DA6C02F08002029270
:100B0000029ADA6C42F00102DA64DA6C02F0010255
:100B10000392039ADA6C42F00202DA64DB6C03F0AF
:100B200002030493002220214FF09040049B0024F4
:100B300001F00AFA4FF400524FF4041305A90A48D1
:100B40000794CDE9052301F099F801232021CDE98F
:100B500005134FF0904005A9CDE9074401F08EF848
:100B60000AB010BD001002400008004813B54FF055
:100B7000FF3304226946154802F007FD04224FF0B6
:100B8000FF330DEB0201114802F0FFFC00F008FFFB
:100B9000034690B9019A0E48B2F5807F34BF012117
:100BA0000221C0E90031009B0A498260C36000F065
:100BB000F5FF044628B100F005FF4FF0FF3002B00A
:100BC00010BD00F0FFFE2046F9E700BF30450020D1
:100BD0001C45002018450020F7B5324C324E3348F2
:100BE000334D4FF0FF330422214602F0CEFC316832
:100BF0002E484FF0FF33012202F076FC042200233E
:100C00000DEB0201019329484FF0FF3302F0BDFCC8
:100C1000042226484FF0FF33294602F0B6FC019A21
:100C2000B2F5804F36D84FF0FF3322491F4892B2B9
:100C300002F0ABFC019A1F491F4800F00BFE1F4B4E
:100C400018601A68D2431A601A682B689A4221D138
:100C5000276800F0A5FE0446E0B9164D019BB4EBF1
:100C6000D30F07EBC4010AD300F0ACFE31680F4884
:100C70004FF0FF33012202F037FC00200CE0D5E9F1
:100C80000023002000F0D8FE012807D100F0A4FEC8
:100C900000F098FE4FF0FF3003B0F0BD083501348E
:100CA000DCE700BF10450020040000203045002094
:100CB0000405002010050020680100200805002020
:100CC00070B5264C264821464FF0FF33042202F02F
:100CD0005CFC2568234B2449214809689D4284BF58
:100CE000A5F5002323604FF001024FF0FF338CBFC6
:100CF0000126002602F0F8FB01F0ACF900F04CFCF4
:100D000072B64FF0E02300221A615A619A61CEB1A7
:100D1000164B17491A6822F480721A601A6822F476
:100D2000C0621A601A6842F4C0521A600A6842F43B
:100D300080720A601A6842F480721A601A6842F47B
:100D4000C0621A600B4B9D60BFF34F8FBFF36F8F74
:100D500062B623685B689847FEE700BF0C05002079
:100D600030450020FFFF070804000020002002405B
:100D70000000014000ED00E008B5FFF7F7FEFFF7C7
:100D80002BFF054AD2E90032013B134301D1FFF7A3
:100D900097FF4FF0FF3008BDD84D000800B597B061
:100DA0004422002105A802F0FAFF1422002168461F
:100DB00002F0F5FF4FF4007001F0D4F808B172B6FC
:100DC000FEE710224FF480710120CDE908120A22BB
:100DD0000223CDE91102072205A8CDE90F33CDE9A1
:100DE00013230593159301F0EFF908B172B6FEE7EE
:100DF000CDE902000F220323049004216846CDE9C7
:100E0000002301F05FFC08B172B6FEE717B05DF891
:100E100004FB0000000000002DE9F04FDDB000F001
:100E2000F9FBFFF7BBFFFFF751FE00F0C5FAFFF734
:100E300027FC00F0A3FABE4B26AA03F118051746BB
:100E400018685968144603C40833AB422246F7D1E8
:100E5000B84B2CAA03F1180518685968144603C446
:100E60000833AB422246F7D1B34CB448B44D4FF4EB
:100E70007A734FF40072214602F087FBB14B1F9347
:100E8000B14B2093B14B23931FAB249302232593A3
:100E9000502303934FF40073CDE90043029523AB35
:100EA0000ECBA648FFF7AEFC014688B3FFF7CCFB9C
:100EB00000BFA74DA74CA84EA5494FF0FF33022213
:100EC000204602F062FB2B786A785340FF2B06D055
:100ED00031684FF0FF330122204602F005FB2B78EA
:100EE000312B40F011819D4F4FF0FF3339680122C3
:100EF000204602F0F9FAFFF76FFE002840F0538118
:100F0000396894484FF0FF33012202F0EDFAD3E73D
:100F100020223CAC0DF24F1002F041FF90495F22BD
:100F2000204603F05AF873223FA9684603F055F8AB
:100F300094E80E008148FFF7BDFC0028B6D1894B2C
:100F400033AA03F1200618685968144603C408330D
:100F5000B3422246F7D119889B78A3705023218091
:100F6000814A7648CDE9005333A94FF48043FFF717
:100F700065FC0546002899D1DFF8C481DFF8F0B19F
:100F8000142406468146794958F8040B02F08CFF78
:100F9000824650B102F0F4FF0A22C0F8009000210E
:100FA0000AF1080002F0B0FD064658F8040C594654
:100FB00002F07AFF824650B102F0E2FF0A22C0F846
:100FC000009000210AF10B0002F09EFDC5B2013C29
:100FD000D9D1002E3FF46AAF012D07D0289BB34230
:100FE0003FF464AF2E9BB3423FF460AF4FF48043B5
:100FF0005D4A524833A9FFF7B1FC9DF8AC308046FA
:10100000012B00F2FF704FEAD0202BD19DF8C430A5
:10101000012B14BF4FF494754FF0FF352946FFF7AD
:10102000F1FA013020D005F58035DFF83CA14FEA18
:10103000C52B444519D39DF8AC40012C49D03AA3A7
:10104000D3E90023ED023846CDE92623CDE9286512
:10105000CDF8A88000F0B4F8012827D100238DF83E
:10106000AC302EE02825D9E7FEE704F580694FF47F
:1010700080420021504602F092FEC14528BFC14681
:1010800009F1FF33229321AB009352464FF4804382
:1010900033A92A482194FFF7ABFC04EB0B02A9EB20
:1010A00004015046FFF782FA4C46C2E7384600F08A
:1010B0009BF80128D2D001238DF8AC3000238DF8A5
:1010C000C4302CA9384600F09FF800287FF4F0AE19
:1010D000ECE69DF8C430012BF3D013A3D3E9002331
:1010E000ED022CA8CDE92C23CDE92E65CDF8C080EA
:1010F00000F066F80128E1D02CA800F075F801286E
:10110000DCD08DF8C440A9E7432B33D1134F4FF007
:10111000FF3339680122204602F0E6F9FFF726FD89
:10112000EBE600BFAFF300804D7007B00000000099
:1011300000A0000818A0000804030020B845002003
:10114000B4020020A09A0008BC9A0008E19A0008A6
:10115000144500203045002000000020040000203D
:10116000209A0008FB9A000810050020E89A000861
:10117000F09A0008202B09D10E490F4809684FF05A
:10118000FF33012202F0B0F9FFF79AFD992B0AD143
:10119000084F4FF0FF3339680122204602F0A4F9CE
:1011A000FFF7EAFDA9E631684FF0FF330122204640
:1011B000ABE600BF040000203045002072B6FEE719
:1011C000D0E90013064A002B08BF914206D1C3683C
:1011D0000448984294BF00200120704701207047C6
:1011E0004D7007B000A8000810B5D0E903120446FE
:1011F000044800F02FFBA368C043181A18BF012051
:1012000010BD00BF6801002070B50E4E05460C46AB
:101210000120F10AFFF7F6F9012801D1012070BD84
:1012200006F1006218212846FFF7C0F90028F5D121
:10123000054A18212046FFF7B9F9003818BF0120E8
:10124000EDE700BF00A0000018A000084FF0805399
:10125000024A1A60027D1A71704700BF4D7007B0D4
:101260000A4B1A6E42F0010282B01A661A6E02F040
:1012700001020092009A9A6D42F080529A659B6D2D
:1012800003F080530193019B02B0704700100240AD
:10129000FEE7FEE7FEE7FEE7FEE7704770477047B0
:1012A00000F0CEB9014801F027BE00BF3045002054
:1012B0000120704708B502F063FE162303604FF06B
:1012C000FF3008BD08B502F05BFE16230360FEE7A1
:1012D00070B50D4614460E46731B9C4201DC204639
:1012E00070BDAFF3008006F8010BF5E770B50D4651
:1012F00014460E46731B9C4201DC204670BD16F856
:10130000010BAFF30080F5E74FF0FF3070474FF46B
:1013100000534B6000207047012070470020704749
:101320000B4A116810B5034609B90A4911601068E3
:1013300009490A4C0344091B8B4206D902F020FEDE
:101340000C2303604FF0FF3010BD1360FCE700BFBB
:101350002C45002090470020008001200004000060
:10136000054B4FF000629A60D3F8882042F4700277
:10137000C3F88820704700BF00ED00E00C480D4A1C
:1013800008B54FF4E133C0E9002300230C22C0E983
:101390000233C0E90523C0E907330361436202F069
:1013A000B8F918B1BDE80840FFF708BF08BD00BF95
:1013B000B8450020003801400C480D4A08B54FF4EC
:1013C000E133C0E9002300230C22C0E90233C0E965
:1013D0000523C0E907330361436202F09AF918B1AB
:1013E000BDE80840FFF7EABE08BD00BF3045002059
:1013F0000044004010B51422ACB0044600210DEBAF
:10140000020002F0CCFC882200210AA802F0C7FCEE
:101410002368334A93422CD101230AA80A9301F08E
:101420001FFB08B1FFF7CAFE2E4B1A6E42F4804232
:101430001A661A6E02F480420192019ADA6C42F046
:101440000102DA64DB6C03F0010302934FF4C06124
:10145000029B0223CDE9051300200323CDE90703F6
:1014600005A907234FF09040099300F007FC2CB02A
:1014700010BD1D4A9342FAD102230AA80A9301F033
:10148000EFFA08B1FFF79AFE164B9A6D42F400325C
:101490009A659A6D02F400320392039ADA6C42F074
:1014A0000102DA64DB6C03F001030493049B0C2259
:1014B0000223CDE9052300240323CDE9074305A931
:1014C00007234FF09040099300F0D8FB22462146B5
:1014D000262000F0D9F8262000F008F9C7E700BF61
:1014E00000380140001002400044004008B5134A93
:1014F000036893420DD102F558424FF4C061136E58
:1015000023F4804313664FF09040BDE8084000F09C
:101510008FBC0B4A93420FD102F5E6324FF0904058
:10152000936D23F4003393650C2100F081FCBDE83A
:101530000840262000F0E8B808BD00BF0038014090
:1015400000440040DFF834D0FFF70AFF0C480D4993
:101550000D4A002302E0D458C4500433C4188C420E
:10156000F9D30A4A0A4C002301E013600432A24274
:10157000FBD302F00BFDFFF74FFCFEE700800120DC
:1015800000000020480100205C9D00084801002068
:1015900090470020FEE7704710B50A4B4FF0FF322E
:1015A00000249A63DA639C63DC631A641C649A62A5
:1015B0009C62DA62DC621A631C63FFF7ECFF204670
:1015C00010BD00BF0010024038B50F4B1A78054619
:1015D0000AB9012038BD4FF47A73B3FBF2F30B4A1A
:1015E0001068B0FBF3F000F0A1F804460028F0D139
:1015F0000F2DEED8024629464FF0FF3000F044F898
:10160000034B20461D60E5E7100000200C00002081
:1016100014000020094A136843F4807310B50320B6
:10162000136000F01FF80020FFF7CEFF044618B942
:10163000FFF716FE204610BD0124FBE70020024004
:10164000034A044B11681B780B441360704700BFBA
:101650004046002010000020014B1868704700BF72
:10166000404600200749CA6822F4E06203021204DF
:1016700003F4E063120C134343F0BF6343F40033FD
:10168000CB60704700ED00E0164B30B5DC68C4F36A
:101690000224C4F10703251D042B28BF0423062DB3
:1016A0004FF0FF358CBF033C002405FA03F321EA19
:1016B0000303A54022EA0502A340002843EA0203EF
:1016C000ACBF00F16040084A4FEA0313B8BF00F016
:1016D0000F00DBB2AABF00F56140135480F800335D
:1016E00030BD00BF00ED00E014ED00E0002807DB96
:1016F000044A4109012300F01F00834042F82130D1
:10170000704700BF00E100E000280CDB43090649F8
:1017100000F01F0020330122824041F82320BFF354
:101720004F8FBFF36F8F704700E100E00138B0F1D9
:10173000807F0BD24FF0E023054A5861F02182F8F8
:1017400023100020072298611A617047012070471A
:1017500000ED00E0F0B522F0030605680B4697089F
:101760000E44B3420AD112F0030204D0012A11F848
:10177000274014D12C7003681868F0BD5C7893F88A
:1017800000C0240444EA0C6493F803C044EA0C0447
:1017900093F802C044EA0C242C600433E1E7597842
:1017A00041EA04212980022A1CBF9B782B70E2E7C2
:1017B0000068F0B5002355088E1C9D4206D1D30762
:1017C00044BF31F8253003800068F0BD31F8237044
:1017D00036F8234044EA074404600133EDE7000093
:1017E00010B5044608B9012010BD437F03F0FF0285
:1017F00013B90277FEF75CFF022363772379E3B91D
:101800002368134A5A619A6822F018029A60627932
:101810002368D2B94FF0FF321A619A68616922F0E9
:1018200060020A439A609A68A16922F080020A4322
:101830009A60012363770020D6E7D4E9021220469C
:1018400000F02CF80028E2D0CDE72269E4E700BFE1
:10185000B71DC104F8B5022646770668B76847F099
:101860000107B760076A022F044614D0032F05D082
:10187000012F0DD0002001236377F8BD01EB820515
:10188000A94201D13068F6E751F8043B3360F7E72D
:10189000FFF760FFEFE7FFF78BFFECE7CB0710B533
:1018A0000DD51F23013B1DD321FA03F4E407F9D51D
:1018B000102A13D0102A04D83AB1082A10D00120D7
:1018C0000BE0182AFBD1062BF9D800684161836828
:1018D00023F0180313438360002010BD072BF3E7A8
:1018E0000F2BF1E7102AE5D1E9E790F82520022A2D
:1018F000034606D00422C2630120002283F824207C
:1019000070470268116821F00E011160116821F022
:1019100001011160D0E91002012102F01C0201FA5C
:1019200002F2426083F825100020E6E710B590F837
:101930002520022A03D00422C263012010BD0268C0
:10194000836B116821F00E011160116821F0010113
:101950001160D0E91042012102F01C0201FA02F2EA
:101960006260002280F8251080F8242003B1984797
:101970000020E3E7094A536943F4802310B553611B
:10198000EFF3108272B60023CC58C4500433B3F581
:10199000807FF9D182F3108810BD00BF0020024083
:1019A000064B5A69002ABFBF054A9A6002F1883285
:1019B0009A60BABF5869C00F0020704700200240EB
:1019C00023016745034A536943F0004353610020F4
:1019D000704700BF00200240014B5868704700BFAD
:1019E0001800002070B50546FFF736FE104C06467D
:1019F0002369DA030BD423694CF2FA3213400FD077
:101A00000C494A681A434A600120236170BD691C71
:101A1000EED0FFF721FE801BA842E9D30320F5E7B3
:101A20002369DB0744BF012323610020EEE700BFE9
:101A300000200240180000202DE9F843254D99466A
:101A40002B78012B04460F46904641D001234CF2DF
:101A500050302B70FFF7C6FF064630BB68601E484B
:101A6000026812F4806217BF03682A7723F4806348
:101A700003601CBF02232B77E4B9436943F00103E1
:101A80004361C7F80080BFF36F8F0124C7F804904B
:101A90004CF25030FFF7A6FF064624B10E4A5369B8
:101AA00023EA0403536100F049F800232B70304609
:101AB000BDE8F883631E012B08D841463846FFF77E
:101AC00059FFA31E5C425C41A404E1E70024DFE768
:101AD0000226ECE71800002000200240094B10F01D
:101AE000010F1EBF5A6942F004025A61820742BFC9
:101AF0005A6942F400425A615A6942F480325A618A
:101B0000704700BF002002400B4B5A6911F0010FD3
:101B100014BF22F4006242F400625A615A6960F311
:101B2000CA025A615A6942F002025A615A6942F481
:101B300080325A61704700BF002002401548037F81
:101B4000DAB203F0FD03012B10D1134B196821F415
:101B500000711960196841F400611960196821F475
:101B600000611960196841F400711960931E012B1E
:101B70000CD8094B1A6842F480521A601A6822F491
:101B800080521A601A6842F480621A600023037758
:101B9000704700BF18000020002002402DE9F047E8
:101BA000334D2B78012B064688465ED001274CF238
:101BB00050302F70FFF716FF044620BB2D4B686096
:101BC0001A6812F4007F1A6822D0510506D51A68E7
:101BD00022F480621A6003232B7700E02F773368AA
:101BE000012B1FD17068FFF779FF4CF25030FFF7DF
:101BF000F9FE204A536923F4004323F0040304460A
:101C00005361FFF79BFF00232B702046BDE8F08750
:101C1000520505D51A6822F480621A600223DBE7B8
:101C20002877DCE74FF0FF33C8F80030B768DFF8FB
:101C30004490DFF844A0D6E902321344BB42E0D915
:101C400071683846FFF760FF4CF25030FFF7CAFE6C
:101C5000D9F8143003EA0A03C9F8143018B1C8F8E7
:101C600000700446CDE70137E5E70224CDE700BF69
:101C7000180000200020024005F8FFFF2DE9F74F73
:101C8000DFF8A891674C00230A6832FA03F502D105
:101C900003B0BDE8F08F012505FA03F818EA020247
:101CA00000F0B1804D68032705F003064FEA430EAC
:101CB00007FA0EFC771E012F6FEA0C0C34D88768E8
:101CC00007EA0C0ACF6807FA0EF747EA0A078760A7
:101CD000476827EA0808C5F300179F4047EA080746
:101CE0004760C76807EA0C088F6807FA0EF747EAEB
:101CF0000807022EC76022D14FEAD30800EB8808FC
:101D000003F0070AD8F820704FEA8A0A4FF00F0B49
:101D10000BFA0AFB27EA0B0B0F6907FA0AF747EAE7
:101D20000B07C8F820700AE0032EDAD1C76A27EA49
:101D30000808C5F3C0079F4047EA0807C76207685D
:101D400006FA0EF607EA0C073E4315F4403F06601C
:101D500059D0D9F8606046F00106C9F86060D9F83A
:101D6000606023F0030707F1804706F0010607F5DE
:101D70008037019603F0030C019EBE684FEA8C0C7D
:101D80004FF00F0E0EFA0CFEB0F1904F26EA0E0E39
:101D90003BD0254EB0423AD006F58066B04238D0EE
:101DA00006F58066B04236D006F58066B04234D083
:101DB00006F58066B04232D006F58066B04214BFA8
:101DC0000726062606FA0CF646EA0E06BE60A66848
:101DD000D74315F4801F0CBF3E401643A660E6684B
:101DE00015F4001F0CBF3E401643E660666815F40C
:101DF000003F0CBF3E40164366602668ED0354BFAB
:101E00003E401643266001333EE70026DAE701260E
:101E1000D8E70226D6E70326D4E70426D2E705262C
:101E2000D0E700BF00040140000400480010024059
:101E30002DE9F04F424C00224FF0010A4FF00F08FD
:101E40004FF0030B31FA02F301D1BDE8F08F0AFA2B
:101E500002F616EA010765D022F0030505F1804578
:101E600005F5803502F0030CAB684FEA8C0C08FADC
:101E70000CF9B0F1904F09EA030E55D0314B98425E
:101E800054D003F58063984252D003F580639842A2
:101E900050D003F5806398424ED003F5806398429A
:101EA0004CD003F58063984214BF0723062303FA3E
:101EB0000CF3734513D1236823EA07032360636897
:101EC00023EA07036360E36823EA0703E360A36888
:101ED00023EA0703A360AB6823EA0903AB60056844
:101EE00053000BFA03F3D7081D4300EB8707056087
:101EF00002F00705D7F820C0AD0008FA05F52CEA76
:101F000005053D62856825EA03058560456825EA83
:101F100006054560C56825EA0303C360C36A23EA72
:101F20000603C36201328DE70023C0E70123BEE749
:101F30000223BCE70323BAE70423B8E70523B6E787
:101F400000040140000400480AB1816170478162C9
:101F500070470000024B186800F4C060704700BF73
:101F600000700040174A1368B0F5007F03F4C063A7
:101F70001BD1B3F5007F1BD0136823F4C06343F477
:101F800000731360104B1B6832214B430F49B3FBA6
:101F9000F1F301335169490500D523B953695B0554
:101FA00006D503207047013BF4E7B3F5806F01D1FC
:101FB00000207047136823F4C06343F48063136008
:101FC000F6E700BF007000400C00002040420F0008
:101FD00037B51E4DAB6DDA00044618D5FFF7BAFFD2
:101FE000B0F5007F23D1802C29D9A02C8CBF0224EE
:101FF000012417490A6822F0070222430A60086890
:1020000000F00700001B18BF012003B030BDAB6D0E
:1020100043F08053AB65AB6D03F080530193019B9C
:10202000FFF798FFAB6D23F08053AB65D8E7802CAA
:1020300007D808D0A4F170035C425C41D9E70024C2
:10204000D7E70324D5E70224D3E700BF00100240FE
:1020500000200240F8B5324C236843F001032360AE
:10206000FFF7FAFA054623689B0743D523682D4AF4
:1020700023F0F00343F0600323600023A3602A4BA6
:102080001A602A4B1868FFF79FFA0546002845D1C9
:10209000FFF7E2FA41F288370646A36813F00C0F07
:1020A00030D12268224B13402360FFF7D5FA064651
:1020B000236813F028532BD1E360E26842F4805286
:1020C000E2602361226942F48052226163616269A5
:1020D00042F480526261226822F480222260A3616D
:1020E0004FF0FF332362D4F8943043F40003C4F874
:1020F000943005E0FFF7B0FA401B0228B3D903255E
:102100002846F8BDFFF7A8FA801BB842C5D9F6E704
:10211000FFF7A2FA801B0228CAD9F0E70125EFE7F2
:102120000010024000093D000C00002014000020B7
:10213000FFF4FEEA204B9A68D96812F00C0205D031
:102140000C2A2CD101F0030101292FD119681B4859
:10215000090755BFD3F894101968C1F30321C1F3DF
:10216000031150F8210032B3DA6802F00302022AA8
:102170001ED01349032A08BF0846D968DA68C2F39B
:1021800006224243D868C0F34160C1F30211013016
:1021900001314000B2FBF1F2B2FBF0F07047042ACB
:1021A00008D0082A064818BF002070470020DBE747
:1021B0000448E2E70348704700100240009C000812
:1021C00000127A000024F4002DE9F743054618B9FF
:1021D000012003B0BDE8F083924C0368A668E7686D
:1021E000D80606F00C0607F003073DD51EB10C2EED
:1021F00066D1012F64D12368990702D5AB69002B02
:10220000E6D02368286A1A0756BFD4F894302368AA
:102210001B0903F0F00398423BD9FFF7D9FE0028D1
:10222000D6D1236843F00803236023682A6A23F089
:10223000F003134323606368EA6923F47F4343EAAE
:1022400002236360FFF776FFA368774AC3F30313A3
:10225000D35C03F01F03D840744B1860744B1868AC
:10226000FFF7B2F90028B4D12B68D9075FD42B68E7
:102270009A0700F19E802B68190700F1DB802B681C
:102280005A0700F10181AB6A002B40F06A810020FF
:102290009FE7236843F008032360236823F0F003DB
:1022A000034323606368EA6923F47F4343EA02231C
:1022B0006360002EC6D1FFF78BFE0028C2D087E7EF
:1022C000AB691BB3236843F001032360FFF7C4F934
:1022D000804623689B0711D5236843F008032360D9
:1022E00023682A6A23F0F003134323606368EA69D2
:1022F00023F47F4343EA02236360B5E7FFF7ACF9B9
:10230000A0EB08000228E4D9032062E7236823F049
:1023100001032360FFF7A0F9804623689807A3D53F
:10232000FFF79AF9A0EB08000228F6D9ECE7082E8F
:1023300003D00C2E08D1032F06D123689B0396D51A
:102340006B68002B93D143E76B68B3F5803F10D1E6
:10235000236843F480332360FFF77EF980462368C7
:10236000980384D4FFF778F9A0EB08006428F6D925
:10237000CAE7B3F5A02F04D1236843F48023236078
:10238000E6E7226822F480322260226822F480226A
:102390002260002BE0D1FFF75FF9804623689903A4
:1023A0007FF565AFFFF758F9A0EB08006428F5D971
:1023B000AAE7042E03D00C2E10D1022F0ED12368D1
:1023C0005A0503D5EB68002B3FF402AF63682A6916
:1023D00023F0F85343EA026363604CE7EB687BB198
:1023E000236843F480732360FFF736F907462368B8
:1023F0005B05EBD4FFF730F9C01B0228F7D983E760
:10240000236823F480732360FFF726F907462368C7
:1024100058057FF530AFFFF71FF9C01B0228F6D92A
:1024200072E700BF00100240389C00080C0000203A
:10243000140000206B699BB1D4F8943043F0010381
:10244000C4F89430FFF708F90746D4F894309B0796
:102450003FF515AFFFF700F9C01B0228F5D953E788
:10246000D4F8943023F00103C4F89430FFF7F4F863
:102470000746D4F8943098077FF501AFFFF7ECF8E2
:10248000C01B0228F5D93FE7A36DD90029D4A36D5D
:1024900043F08053A365A36D03F080530193019B28
:1024A0004FF00108844F3B68DA051DD5AB68012B5E
:1024B0002BD1D4F8903043F00103C4F89030FFF7EB
:1024C000CBF841F288390746D4F89030980742D5C6
:1024D000B8F1000F3FF4D7AEA36D23F08053A3658E
:1024E000D1E64FF00008DDE73B6843F480733B60C2
:1024F000FFF7B2F881463B68DB05D7D4FFF7ACF8AD
:10250000A0EB09000228F6D9FEE6052B06D1D4F887
:10251000903043F00403C4F89030CAE7D4F8902018
:1025200022F00102C4F89020D4F8902022F0040296
:10253000C4F89020002BC2D1FFF78EF841F2883901
:102540000746D4F890309907C2D5FFF785F8C01B2D
:102550004845F6D9D8E6FFF77FF8C01B4845B3D900
:10256000D2E6022B40F08F80E368EA6A03F00301B1
:10257000914224D1296B03F070020139B2EB011FA3
:102580001DD1696B03F4FE42B2EB012F17D1AA6B88
:10259000073A03F4003118BF012291420FD1EA6BD0
:1025A000520803F4C001013AB1EB425F07D12A6C33
:1025B000520803F0C063013AB3EB426F4AD00C2ECD
:1025C0003FF406AE23685A013FF502AE2368DB00F4
:1025D0003FF5FEAD236823F080732360FFF73CF8DE
:1025E000064623689F012FD4E268344B1340EA6A01
:1025F00013436A6B43EA02232A6B013A43EA02134C
:10260000AA6B120943EA4243EA6B5208013A43EAD1
:1026100042532A6C5208013A43EA4263E36023685A
:1026200043F080732360E36843F08073E360FFF757
:1026300013F80546236898013FF529AEFFF70CF81B
:10264000401B0228F6D95FE6FFF706F8801B022838
:10265000C7D959E6236899013FF519AE236843F0BD
:1026600080732360E36843F08073E360FEF7F4FF58
:10267000054623689A013FF50AAEFEF7EDFF401BC1
:102680000228F6D940E60C2E3FF4A2AD236823F0D1
:1026900080732360FEF7E0FF054623689B0104D4A6
:1026A000E268074B1340E360F1E5FEF7D5FF401BFE
:1026B0000228F2D928E600BF007000408C809DF906
:1026C000FCFFEEFE2DE9F0410D46044610B9012055
:1026D000BDE8F0814B4A136803F007038B422CD30B
:1026E0002168880734D4C9073FD421688A0768D491
:1026F000444A136803F00703AB426FD811F0040F8C
:10270000414D77D10B0706D5AB68226923F460539E
:1027100043EAC203AB60FFF70DFDAB683B4AC3F36E
:102720000313BDE8F041D35C03F01F03D840384BDE
:102730001860384B1868FEF747BF136823F007038B
:102740000B431360136803F007038B42BFD1C7E745
:102750002D4AA068936803F0F003984281BF936804
:1027600023F0F00303439360BDE76268264E032A1B
:1027700033681AD113F0007FA9D0B36823F00303A4
:102780001343B360FEF768FF41F288380746B36829
:10279000626803F00C03B3EB820FA6D0FEF75CFF78
:1027A000C01B4045F3D9032092E7022A02D113F45B
:1027B000003FE1E712B913F0020FDDE713F4806F79
:1027C000DAE7114AA068936803F0F00398423FBF2C
:1027D000936823F0F0030343936089E7136823F0C1
:1027E00007032B431360136803F00703AB427FF426
:1027F0006EAF83E7AB68E26823F4E0631343AB603A
:1028000080E700BF0020024000100240389C000812
:102810000C00002014000020054B064A9B68C3F3FF
:102820000223D35C044A106803F01F03D8407047AA
:1028300000100240309C00080C000020054B064AA6
:102840009B68C3F3C223D35C044A106803F01F03E0
:10285000D840704700100240309C00080C00002057
:10286000F8B5414CE3689B0705460E46006828D042
:10287000E36803F0030383423AD1002B38D0E368C6
:102880006A68C3F302130133934231D1236823F002
:1028900080632360FEF7E0FE074623681A0130D408
:1028A000AA681202A6B3012E23694CD1296923F428
:1028B000C003490823F4FE430139134343EA41535B
:1028C00030E0022810D0032814D0012810D123684A
:1028D0009F071CD5E3686A6823F07303013A03433A
:1028E00043EA0213E360D1E7236813F4806FF1D168
:1028F00001200CE023689903ECD4236813F4802FA3
:10290000F5E7FEF7A9FEC01B0228C6D90320F8BDD3
:102910002369E96823F41F3323F44073090913433F
:1029200043EA41432361236843F080632360FEF759
:1029300093FE064623681B0110D52369AA69134339
:1029400023610020E3E7696923F0C063490823F4A9
:10295000FE430139134343EA4163E3E7FEF77CFE9C
:10296000801B0228E6D9D1E700100240F8B53B4CA5
:10297000E3689B0705460E46006826D0E36803F02F
:102980000303834238D1002B36D0E3686A68C3F36F
:102990000213013393422FD1236823F08053236025
:1029A000FEF75AFE074623689A002ED4A96809024A
:1029B00096B363692A6923F0C063520823F4FE4387
:1029C000013A0B4343EA426330E0022810D0032867
:1029D00014D0012810D123689F071CD5E3686A68CA
:1029E00023F07303013A034343EA0213E360D3E79E
:1029F000236813F4806FF1D101200CE02368990360
:102A0000ECD4236813F4802FF5E7FEF725FEC01BF6
:102A10000228C8D90320F8BD6369EA6823F41F338C
:102A200023F4407312090B4343EA42436361236872
:102A300043F080532360FEF70FFE064623689B0099
:102A400005D563696A69134363610020E3E7FEF714
:102A500003FE801B0228F1D9DCE700BF0010024012
:102A600003682DE9F3471D05044628D5416EB1F5ED
:102A7000000F26D017D851B3B1F5800F2ED0012505
:102A80002368D8040DD5A16EB1F1007F00F0488114
:102A900029D8002900F04A81B1F1807F00F04B81F4
:102AA00001252F462FE0B1F5400FE8D1AC4A616E09
:102AB000D2F8883023F440030B43C2F88830002555
:102AC000DEE7A74AD36843F48033D360EEE70430EF
:102AD000FFF7C6FE05460028D2D1E7E700212030E7
:102AE000FFF744FFF6E7B1F1407FD9D12F46002F21
:102AF00040F027819A4AA16ED2F8883023F04073C3
:102B00000B43C2F88830236899033AD5944EB36DCD
:102B1000DA0000F11881B36D43F08053B365B36DF3
:102B200003F080530193019B4FF00108DFF83492CA
:102B3000D9F8003043F48073C9F80030FEF78CFDFB
:102B40008246D9F80030DB0540F100818FB9D6F814
:102B50009030D4F8842013F4407340F00581D6F807
:102B60009030D4F8842023F440731343C6F8903097
:102B70002F46B8F1000F03D0B36D23F08053B36537
:102B80003D462368DA0708D57549A06BD1F888203F
:102B900022F003020243C1F888209F0708D570493C
:102BA000E06BD1F8882022F00C020243C1F88820A3
:102BB0005E0708D56A49206CD1F8882022F03002DF
:102BC0000243C1F88820180708D56549606CD1F820
:102BD000882022F0C0020243C1F88820D90608D517
:102BE0005F49A06CD1F8882022F440720243C1F8FA
:102BF00088209A0608D55A49E06CD1F8882022F43A
:102C000040620243C1F888209F0508D55449E06D11
:102C1000D1F8882022F440220243C1F888205E05C2
:102C200008D54F49206ED1F8882022F44012024383
:102C3000C1F88820580608D54949206DD1F8882068
:102C400022F440520243C1F88820190608D54449AD
:102C5000606DD1F8882022F440420243C1F88820F8
:102C6000DA0508D53E49A06DD1F8882022F440321B
:102C70000243C1F888209F0410D5394AE16ED2F88A
:102C8000883023F040630B43B1F1006FC2F8883005
:102C900040F09280D36843F48013D3602F462368BA
:102CA0001E0310D52E4A216FD2F8883023F04063DE
:102CB0000B43B1F1006FC2F8883040F08A80D368CE
:102CC00043F48013D3603E4623685D0310D5244A45
:102CD000616FD2F8883023F040630B43B1F1006F8D
:102CE000C2F8883040F08280D36843F48013D36008
:102CF00035462368580440F189801949A26FD1F8FC
:102D0000883023F040531343B2F1805FC1F888301C
:102D100079D10221201DFFF7A3FD002876D076E0AF
:102D20000F4AD36843F48033D360DFE6201DFFF7FA
:102D300097FD0746DBE6002104F12000FFF716FEB1
:102D4000F7E73D46DFE64FF00008EFE6FEF784FCCC
:102D5000A0EB0A0002287FF6F4AE032709E700BFC4
:102D6000001002400070004093423FF4F8AED6F8E5
:102D70009020D6F8903043F48033C6F89030D6F8DF
:102D8000903022F4407123F48033D007C6F890309D
:102D9000C6F890107FF5E3AEFEF75EFC41F288398D
:102DA0000746D6F8903099073FF5D9AEFEF754FCA8
:102DB000C01B4845F5D9D0E7B1F1806F7FF46EAF05
:102DC0000121201DFFF74CFD074600283FF466AFA8
:102DD00065E7B1F1806F7FF476AF0121201DFFF729
:102DE0003FFD064600283FF46EAF6DE7B1F1806FFE
:102DF0007FF47EAF0121201DFFF732FD054600283C
:102E00003FF476AF75E7B2F1005F1BD02846226829
:102E1000110408D50E49E56FD1F8883023F08043BE
:102E20002B43C1F88830D30309D5094AD4F8801060
:102E3000D2F8883023F000430B43C2F8883002B048
:102E4000BDE8F087022104F12000FFF78FFD64E761
:102E500000100240026852E8003F23F4907342E8F9
:102E6000003102680029F5D102F1080353E8003F60
:102E700023F0010302F1080C4CE800310029F3D1E2
:102E8000036E012B07D152E8003F23F0100342E804
:102E900000310029F7D12023C0F8803000230366D9
:102EA0008366704738B50546B8B12423C367036805
:102EB0001A68002422F001021A601C605C609C60A9
:102EC000FEF714FBC5F8844085F87840EC6720468F
:102ED000C5F880402C666C6638BD0120FCE7704761
:102EE000704708B5806A0023A0F85A30A0F8523025
:102EF000FFF7F6FF08BD70470368DA69196870B517
:102F000040F60F0632429D6804460BD1960640F10A
:102F100088808E0640F18580836E002B7BD0BDE8D3
:102F2000704018479C4E05F001000E40064378D0D3
:102F3000D50709D5CE0507D501251D62D4F88450E3
:102F400045F00105C4F88450950708D538B102252D
:102F50001D62D4F8845045F00405C4F88450560727
:102F600008D538B104251D62D4F8845045F0020517
:102F7000C4F8845015070BD501F02005054307D090
:102F800008201862D4F8840040F00800C4F88400D7
:102F900016050AD54D0108D54FF400601862D4F823
:102FA000843043F02003C4F88430D4F88430002BFC
:102FB00031D0900605D58A0603D5A36E0BB1204605
:102FC00098472668D4F88420B36802F0280203F0FA
:102FD000400353EA020520461ED0FFF73BFFB368CB
:102FE0005B0615D5226802F1080353E8003F23F081
:102FF0004003083242E800310029F3D1606F38B154
:10300000664B8363FEF792FC28B1606F836B86E7A3
:103010002046FFF765FF70BDFFF762FFC4F88450DC
:10302000F9E7206E012840F08B80D60640F18880B9
:10303000C80640F1858010221A629968B4F85820B9
:1030400049064FD5616F0868416889B2002941D0AF
:1030500091423FD2A4F85A10026892062ED453E847
:10306000002F22F4807243E800210029F7D103F1F8
:10307000080252E8002F22F0010203F1080040E8A4
:1030800000210029F3D103F1080252E8002F22F0B9
:10309000400203F1080040E800210029F3D120227A
:1030A000C4F88020216653E8002F22F0100243E884
:1030B00000210029F7D1606FFEF717FC0223636639
:1030C000B4F85A30B4F85810C91A89B22046FFF73C
:1030D00012FFA0E791429ED103689B069BD5022375
:1030E0006366F3E7B4F85A10B4F85A0080B289B2B4
:1030F000002890D0511A89B200298CD053E8002FB3
:1031000022F4907243E800200028F7D103F108026E
:1031100052E8002F22F0010203F1080545E80020E3
:103120000028F3D12022C4F88020A066206653E84E
:10313000002F22F0100243E800200028F7D1CEE74C
:10314000D60209D5680207D54FF4801220461A62CC
:10315000BDE8704000F00BBB160607D50D0605D57F
:10316000E36E002B3FF457AF2046D8E650067FF5BC
:1031700052AF4A067FF54FAF53E8002F22F04002CE
:1031800043E800210029F7D12023E367E1662046C8
:10319000FFF7A5FE3FE700BF20010004E32E000873
:1031A00038B50446C0692169A26823680A43616989
:1031B0001D680A437449024329400A431A605A6849
:1031C000E16822F440520A435A60704AA16993426E
:1031D0001CBF226A11439A6822F430620A439A6043
:1031E0006B4A93422AD16B4BD3F8883003F0030328
:1031F000022B00F0C180032B00F0B180012B00F006
:10320000B580B0F5004F40F0BC80FFF717FB0028F9
:103210006FD06268530803EB4003B3FBF2F34FF641
:10322000EF72A3F1100191421FD823F00F02216821
:1032300092B2C3F342031343CB605AE0564A93421F
:1032400015D1544BD3F8883003F00C03082B00F051
:10325000938008D8002B40F08980B0F5004F69D1E9
:10326000FFF7DAFAD3E70C2B79D0012042E04B4A82
:10327000934209D1474BD3F8883003F03003202B19
:103280007AD0E7D9302BEFE7454A934209D1414B39
:10329000D3F8883003F0C003802B6DD0DAD9C02B6F
:1032A000E2E7404A93420BD13A4BD3F8883003F41B
:1032B0004073B3F5007F5FD0CCD9B3F5407FD3E73F
:1032C000324A9342D1D1334BD3F8883003F4406370
:1032D000B3F5006F12D003D843B9FFF79DFA07E0AA
:1032E000B3F5406FC1D14FF4004008E0FEF722FF74
:1032F00028B900200023C4E91A3338BD2A4862687F
:1033000002EB42038342B0D8B0EB023FADD8510884
:1033100000238C464FF480751946E0FB05C16046DA
:10332000FCF7AEFF214BA0F540729A429DD823686E
:10333000D860DEE7FFF770FA0028DAD0626800EBA9
:103340005203B3FBF2F34FF6EF72A3F11001914277
:103350008BD82268D360CCE7FEF7ECFEECE7B0F543
:10336000004F3FF456AF4FF40040E7E7B0F5004F91
:10337000F2D1FEF7DFFE4AE7B0F5004F0A48DDD193
:1033800047E7FFF75BFAD7E7F369FFEF00800040FC
:103390000038014000100240004400400048004056
:1033A000004C0040005000400024F400FFFC0F00DF
:1033B000436A1A0710B506D50168446B4A6822F4BF
:1033C000004222434A60DC0706D50168846A4A68E5
:1033D00022F4003222434A60990706D50168C46A84
:1033E0004A6822F4803222434A605A0706D50168AF
:1033F000046B4A6822F4802222434A60DC0606D528
:103400000168846B8A6822F4805222438A6099069C
:1034100006D50168C46B8A6822F4005222438A6090
:103420005A060FD50168046C4A6822F480122243C0
:10343000B4F5801F4A6005D14A68446C22F4C0028A
:1034400022434A601B0606D50268816C536823F448
:1034500000230B43536010BD2DE9F843DDF82090A5
:1034600004460D46174698462268D36935EA030399
:103470000CBF01230023BB4201D0002022E0B9F1A0
:10348000FF3FF2D0FEF7E8F8A0EB0800484529D846
:10349000B9F1000F26D021680B685A07E4D5802DBA
:1034A000E2D0402DE0D0CE6916F008060CD00825F9
:1034B00020460D62FFF7CEFC0023C4F8845084F848
:1034C00078300120BDE8F883CB691B05CCD54FF4DB
:1034D00000630B622046FFF7BDFC2023C4F8843054
:1034E00084F878600320EDE72DE9F7439846C36F31
:1034F000202B04460E46174643D1002943D0002A0C
:1035000041D021230025C0F88450C367FEF7A4F8FA
:10351000A368A4F85070B3F5805F8146A4F8527098
:1035200003D123690BB935461E46B4F85220CDF8B5
:10353000008092B24B463AB940212046FFF78CFFFB
:10354000202340B9E36708E0002280212046FFF7EE
:1035500083FF28B12023E367032003B0BDE8F08395
:1035600022685EB935F8023BC3F308031385B4F84B
:103570005220013A92B2A4F85220D6E716F8013B45
:10358000F4E70220E9E70120E7E72DE9F743984651
:10359000D0F88030202B04460F4616465CD1002917
:1035A0005CD0002A5AD022230025C0F88450C0F8ED
:1035B00080300566FEF750F8A368A4F85860B3F5AC
:1035C000805F8146A4F85A600DD12369DBB1FF22E8
:1035D0001646A4F85C20B4F85A0080B2E0B9202363
:1035E000C4F8803025E033B92569002DEFD07F2263
:1035F00016461D46EDE7B3F1805F0AD12369002B23
:10360000F5D03F22E4E740F2FF123D4616461F4642
:10361000DFE72A462E46DCE7CDF800804B46002245
:1036200020212046FFF718FF30B12023C4F8803056
:10363000032003B0BDE8F08323689B8C334047B977
:1036400025F8023BB4F85A30013B9BB2A4F85A303B
:10365000C1E707F8013BF5E70220EAE70120E8E7C8
:1036600073B504460026C0F88460FDF7F5FF2368B3
:103670001B681A0705461BD56FF07E430093324640
:1036800003464FF400112046FFF7E6FE80B12268A2
:1036900052E8003F23F0800342E800310029F6D1D0
:1036A0002023E3670320002384F8783002B070BD44
:1036B00023681B685B0724D56FF07E4300930022CC
:1036C0002B464FF480012046FFF7C6FEC8B12268A2
:1036D00052E8003F23F4907342E800312268002949
:1036E000F5D102F1080353E8003F23F0010302F192
:1036F000080040E800310029F3D12023C4F88030CD
:10370000D0E720230020E367C4F88030206660669D
:10371000C9E710B5044640B3C36F1BB980F87830D1
:10372000FDF768FE22682423E367136823F0010392
:103730001360636A13B12046FFF73AFE2046FFF795
:103740002FFD012811D023685A6822F490425A6054
:103750009A6822F02A029A601A6842F00102204612
:103760001A60BDE81040FFF77BBF012010BD704715
:103770000A22002100F030B9024B0146186800F01F
:1037800025B800BF4400002070B50F4E0C463168CC
:10379000054611B900F0D2FB30602146284600F002
:1037A000CDFB431C03D14FF0FF34204670BDC41C39
:1037B00024F00304A042F8D0211A284600F0BEFBF2
:1037C0000130F2D1EFE700BF444600202DE9F84375
:1037D000CD1C25F0030508350C2D38BF0C25002D18
:1037E000064601DBA94204D90C2333600020BDE862
:1037F000F883DFF8D48000F069F8D8F800301C4670
:1038000044BB29463046FFF7BFFF431C044658D14E
:10381000D8F800402746002F43D1002C4BD0236816
:103820003946304604EB030900F088FB814542D15C
:1038300021686D1A29463046FFF7A6FF01303AD0BD
:1038400023682B442360D8F800305A6862BBC8F85C
:1038500000700FE02268521B20D40B2A17D961197F
:10386000A342256018BF5960636808BFC8F80010FC
:1038700062514B60304600F02FF804F10B00231D1D
:1038800020F00700C21A1CBF1B1AA350AFE76268E2
:10389000A3420CBFC8F800205A60EBE723466468D7
:1038A000AEE73C467F68B6E71A465B68A342FBD1A9
:1038B00000235360DEE70C233360304600F00CF841
:1038C00094E70560D6E700BF48460020014800F0B5
:1038D00082BB00BF8C470020014800F07DBB00BFC9
:1038E0008C470020242B2DE9F0478646904601D8CE
:1038F000012B06D100F044FB162303600020BDE835
:10390000F08734480D462A4615F8014B065D16F03F
:103910000806F8D12D2C10D12C780126951C33F0F7
:10392000100215D1302C0DD12A7802F0DF02582A6E
:1039300008D16C78023510230AE02B2C04BF2C78B8
:10394000951CECE7002BF6D1302C14BF0A2308237A
:1039500006F1004C0CF1FF3C0022BCFBF3F91046D1
:1039600003FB19CAA4F13007092F0FD83C46A34224
:103970001BDD571C07D0814514D301D1A24511DBB3
:1039800000FB0340012215F8014BEBE7A4F14107CE
:10399000192F01D8373CEAE7A4F16107192F04D8A1
:1039A000573CE4E74FF0FF32EDE7531C08D12223E8
:1039B000CEF800306046B8F1000FA0D0691E06E0D6
:1039C00006B14042B8F1000F99D0002AF6D1C8F8EC
:1039D000001094E7499C000813460A460146024835
:1039E0000068FFF77FBF00BF440000202DE9F04FC3
:1039F00085B09046434A029089461E460D462B46A6
:103A000015F8014B175D17F00807F8D12D2C10D1D0
:103A10002C7801279D1C36F0100315D1302C0DD1C8
:103A20002B7803F0DF03582B08D16C780235102671
:103A30000AE02B2C04BF2C789D1CECE7002EF6D15D
:103A4000302C14BF0A26082607F1004A07F1FF3B75
:103A50000AF1FF3AF3173246584651460393FCF7F2
:103A60000FFC019200228E46844611461046A4F1B6
:103A70003003092B05D9A4F14103192B1ED8A4F159
:103A800037039E4224DD541C15D084457EEB010291
:103A90001BD38E4508BF844502D1019A9A4214DB9C
:103AA000039A714300FB0211A6FB00020A44181896
:103AB00042EBE371012215F8014BD8E7A4F1610351
:103AC000192B05D8A4F15703DBE74FF0FF32F2E7DB
:103AD000531C0AD1029A2223136058465146B8F16A
:103AE000000F0AD105B0BDE8F08F17B1404261EB7D
:103AF0004101B8F1000FF5D00AB105F1FF39C8F85E
:103B00000090EFE7499C000813460A460146024828
:103B10000068FFF76BBF00BF44000020002310B512
:103B20000446C0E90033C0E9043383608181436601
:103B3000C2818361194608225C3000F030F90D4BD8
:103B400063620D4BA3620D4BE3620D4B23630D4B80
:103B500024629C4206D003F16802944202D0D03322
:103B60009C4205D104F15800BDE8104000F032BA83
:103B700010BD00BFE53C0008073D00083F3D0008C0
:103B8000633D00084C460020024A0349034800F008
:103B900069B800BF3800002099470008480000209D
:103BA00041680C4B994210B5044601D000F0F4FD79
:103BB000A168094B994202D0204600F0EDFDE16872
:103BC000064B994204D02046BDE8104000F0E4BD09
:103BD00010BD00BF4C460020B44600201C4700200A
:103BE00010B50B4B0B4C0C4A1A60204600220421E6
:103BF000FFF794FF04F1680001220921FFF78EFF0F
:103C000004F1D0000222BDE810401221FFF786BF68
:103C1000844700204C460020893B0008014800F002
:103C2000DAB900BF8D470020014800F0D5B900BFC8
:103C30008D47002010B50446FFF7F0FF236A1BB143
:103C4000BDE81040FFF7F0BF044B2362044B1B6834
:103C5000002BF5D1FFF7C4FFF2E700BFA13B00083E
:103C6000844700202DE9F84307468846144600267D
:103C7000D4E90195B9F1010905D52468002CF7D1E3
:103C80003046BDE8F883AB89012B07D9B5F90E3072
:103C9000013303D029463846C04706436835E9E773
:103CA0000EB410B59DB01FAB029006906FF00041AE
:103CB0000A48079104910A4953F8042B05910024FE
:103CC00002A9006801931B9400F05AFA029B1C7031
:103CD0001DB0BDE8104003B0704700BF4400002095
:103CE0000802FFFF10B50C46B1F90E1000F014F9F0
:103CF0000028ABBF636DA3891B1823F48053ACBFAE
:103D00006365A38110BD2DE9F0411F468B89DB055A
:103D100005460C46164605D5B1F90E1002230022C1
:103D200000F0E8F8A389B4F90E1023F48053A381BE
:103D300032463B462846BDE8F04100F00FB910B5C9
:103D40000C46B1F90E1000F0D5F8431CA38915BF3D
:103D5000606523F4805343F48053A38118BFA3818B
:103D600010BDB1F90E1000F0B5B8884210B501EBE6
:103D7000020402D98442234607D8431EA14208D038
:103D800011F8012B03F8012FF8E7024401468A429B
:103D900000D110BD13F8014D02F8014DF7E70244C0
:103DA0000346934200D1704703F8011BF9E710B5B1
:103DB0000246147813460132002CFAD1013B11F867
:103DC000012B03F8012F002AF9D110BD10B56AB1FB
:103DD0000139841810F8012B11F8013F9A4203D1E0
:103DE000A04201D0002AF5D1D01A10BD1046FCE740
:103DF000164B2DE9F0411F687C6C05460E46ECB968
:103E00005020FFF7B9FC0246786420B9104B1148E6
:103E10005B2100F0F1F8C0E90044C0E90244C0E9C8
:103E20000444C0E90A44C0E90C44C0E90E44C0E9B6
:103E30001044C0E912448461047744627A6C3146CC
:103E400028460123BDE8F04100F006B844000020F8
:103E50001E9B0008359B0008F0B5044608B914689D
:103E600044B1204614F8015B0F4617F8016B1EB9E8
:103E700065B91560002005E0B542F6D1002BF0D100
:103E800014600370F0BD1C460CE01DB9274614F801
:103E9000013B0E4616F8015BAB42F6D1002BF2D087
:103EA00000233B701460EDE70A7870B56AB970BD05
:103EB0009A4209D10C46054614F8013F002BF6D072
:103EC00015F8016F9E42F7D001300378002BEFD137
:103ED0001846ECE738B5064D0023044608462B602B
:103EE000FDF712FA431C02D12B6803B1236038BDE1
:103EF0008847002038B5074D044608461146002281
:103F00002A601A46FDF70AFA431C02D12B6803B156
:103F1000236038BD8847002038B5074D0446084661
:103F2000114600222A601A46FDF7D2F9431C02D13D
:103F30002B6803B1236038BD8847002038B5064D93
:103F40000023044608462B60FDF7EAF9431C02D122
:103F50002B6803B1236038BD8847002038B5074D72
:103F600004460846114600222A601A46FDF7BEF9AB
:103F7000431C02D12B6803B1236038BD8847002061
:103F8000014B1868704700BF4400002070B50D4D0C
:103F90000D4C641BA4100026A64209D10B4D0C4CFD
:103FA00000F00EFF641BA4100026A64205D170BDD0
:103FB00055F8043B98470136EEE755F8043B98471F
:103FC0000136F2E7549D0008549D0008549D0008F6
:103FD000589D00087047704770470A44914200F1AD
:103FE000FF3300D1704710B511F8014B03F8014FB2
:103FF0009142F9D110BD00001FB514461A46094B75
:104000001B680546D8684CB1074B0091CDE90134D7
:1040100006492B4600F0E8FB00F0F8FB044B1C4679
:10402000F3E700BF440000208F9B00089C9B000822
:10403000839A000838B50546002941D051F8043C60
:104040000C1F002BB8BFE418FFF740FC1D4A136893
:1040500033B9636014602846BDE83840FFF73CBCC4
:10406000A34208D9206821188B4201BF19685B68F8
:1040700009182160EDE71A465B680BB1A342FAD933
:1040800011685018A0420BD1206801445018834297
:104090001160E0D118685B68536008441060DAE78B
:1040A00002D90C232B60D6E7206821188B4204BF6D
:1040B00019685B68636004BF091821605460CAE72F
:1040C00038BD00BF484600202DE9F0478E681F46E6
:1040D000BE420B6882460C4690462DD8B1F90C20A2
:1040E00012F4906F26D06569096905EB4505A3EBCD
:1040F000010905EBD5757B1C4B446D109D4238BF03
:104100001D46530527D52946FFF760FB064660B3D9
:1041100021694A46FFF761FFA38923F4906343F0C6
:104120008003A381266165614E44A5EB09052660E5
:10413000A5603E46BE4200D93E4620683246414612
:10414000FFF713FEA3689B1BA3602368334423601F
:104150000020BDE8F0872A4600F05FFB06460028F5
:10416000E0D121695046FFF765FF0C23CAF8003003
:10417000A38943F04003A3814FF0FF30E9E700003B
:104180002DE9F04F98468B891B069DB007460D46DA
:10419000144610D50B6973B94021FFF717FB28604F
:1041A000286130B90C233B604FF0FF301DB0BDE8F3
:1041B000F08F40236B610023099320238DF8293071
:1041C000CDF80C803023DFF89C818DF82A304FF039
:1041D000010923469A4613F8012B0AB1252AF9D181
:1041E000BAEB040B0BD05B46224629463846FFF754
:1041F0006BFF013000F0A780099A5A4409929AF89F
:104200000030002B00F09F8000234FF0FF32CDE9FB
:1042100005230AF1010A049307938DF853301A938A
:104220005446052214F8011B4E48FBF7D9FF049AA7
:10423000D8B9D00644BF20238DF85330110744BFAE
:104240002B238DF853309AF800302A2B15D0079A7B
:10425000544600204FF00A0C214611F8013B303B38
:10426000092B4BD9B0B1079214E0A0EB080309FA6F
:1042700003F313430493A246D2E7039B191D1B6863
:104280000391002BBBBF5B4242F0020207930793EE
:10429000B8BF049223782E2B0AD163782A2B32D10F
:1042A000039B1A1D1B68039243EAE37302340593D0
:1042B000DFF8C0A0217803225046FBF791FF38B108
:1042C000049BA0EB0A004022824013430134049374
:1042D00014F8011B24488DF828100622FBF780FFF4
:1042E000002836D0214B1BBB039B073323F0070369
:1042F00008330393099B334409936AE70CFB0232AA
:104300000C460120A8E700230134059319464FF01D
:104310000A0C204610F8012B303A092A03D9002B49
:10432000C6D00591C4E70CFB012104460123F0E748
:1043300003AB00932A460E4B04A93846AFF3008026
:10434000421C0646D6D1AB895B063FF52DAF0998D6
:104350002CE703AB00932A46054B04A9384600F02E
:1043600079F8EDE7CB9B0008D59B00080000000022
:10437000C9400008D19B00082DE9F0471646984631
:104380008A680B69DDF820909342B8BF134633600A
:1043900091F8432007460C460AB101333360236885
:1043A000990642BF336802333360256815F006056D
:1043B00006D104F1190AE36832689B1AAB4226DC85
:1043C00094F843302268003B18BF012392062BD497
:1043D00004F1430241463846C84701301ED02368E5
:1043E000226903F00603042B02BFE5683368ED1A67
:1043F000A3680CBF25EAE57500259342C4BF9B1A4C
:10440000ED1800261A34B5421AD1002008E0012325
:10441000524641463846C847013003D14FF0FF307D
:10442000BDE8F0870135C6E7E1185A1C302081F855
:104430004300224494F8451082F843100233C7E742
:104440000123224641463846C8470130E6D00136AE
:10445000D9E700002DE9FF470F7E0C9E782F91468B
:1044600080460C469A4601F1430207D8622F0AD8CB
:10447000002F00F0D180582F00F0B88004F14206E0
:1044800084F842703AE0A7F16303152BF6D801A136
:1044900051F823F0ED440008014500087D44000870
:1044A0007D4400087D4400087D4400080145000863
:1044B0007D4400087D4400087D4400087D440008D8
:1044C000FF4500082B450008B94500087D44000859
:1044D0007D440008214600087D4400082B45000863
:1044E0007D4400087D440008C145000833681A1D5A
:1044F0001B68326004F1420684F8423001239CE0DC
:1045000033682068191D3160060601D51D6803E077
:104510004506FBD5B3F90050002D03DA2D236D427B
:1045200084F8433058480A2311E0216833680806AC
:1045300053F8045B02D4490648BFADB26F2F52480E
:10454000336014BF0A230823002184F843106668EF
:10455000A660002E05DB21682E4321F004012160B6
:104560004BD01646B5FBF3F103FB1157C75D06F8B8
:10457000017D2F46BB420D46F4D9082B0BD1236891
:10458000DF0708D5236961689942DEBF302306F84A
:10459000013C06F1FF36921B2261CDF800A04B468C
:1045A00003AA21464046FFF7E7FE01304AD14FF00B
:1045B000FF3004B0BDE8F087236843F02003236098
:1045C0003248782784F84570236831681F0651F80F
:1045D000045B02D45F0648BFADB23160D90744BF67
:1045E00043F0200323601DB11023ADE72648E9E71F
:1045F000236823F020032360F6E71646BDE73368FF
:1046000025686169181D30602E061B6801D5196088
:1046100002E06806FBD51980002323611646BCE73B
:1046200033681A1D32601E68626800213046FBF74D
:10463000D7FD08B1801B606063682361002384F8A4
:104640004330AAE72369324649464046D047013005
:10465000ADD023689B0713D4E068039B9842B8BF92
:104660001846A6E70123324649464046D047013066
:104670009DD00135E36803995B1AAB42F2DCEBE7AE
:10468000002504F11906F5E7DC9B0008ED9B000806
:10469000B1F90C202DE9F041160705460C4654D41B
:1046A0004B68002B02DC0B6C002B48DDE66A002E09
:1046B00045D0002312F480522F68216A2B6030D03D
:1046C000626DA389590705D56368D21A636B0BB174
:1046D000236CD21A0023E66A216A2846B047431C9D
:1046E000A38906D129681D292BD82A4ACA40D60792
:1046F00027D500226260D9042269226004D5421CB9
:1047000001D12B6803B96065616B2F60B9B104F109
:104710004403994202D02846FFF78CFC00236363D0
:104720000DE001232846B0470246501CC9D12B6832
:10473000002BC6D01D2B01D0162B1ED12F600020C0
:1047400022E043F040031BB21BE00F69002FF6D0BC
:1047500093070E6808BF4B690F6018BF0023A6EBD4
:1047600007088B60B8F1000FE9DD216AA66A4346AD
:104770003A462846B047002808DCB4F90C3043F02C
:104780004003A3814FF0FF30BDE8F0810744A8EB60
:104790000008E7E70100402038B50B6905460C46E4
:1047A00013B90025284638BD18B1036A0BB9FFF7C5
:1047B00041FAB4F90C30002BF3D0626ED00704D468
:1047C000990502D4A06DFFF706FC28462146FFF7A5
:1047D0005FFF636EDA070546E4D4A3899B05E1D445
:1047E000A06DFFF7F9FBDDE70EB403B5014603AB9F
:1047F000054853F8042B0068019300F065F802B0F7
:104800005DF804EB03B070474400002008B50620B3
:1048100000F02EFA0120FCF755FD2DE9F041074686
:1048200014460D4621B9BDE8F0411146FEF7CEBF52
:104830002AB9FFF7FFFB25462846BDE8F08100F0C6
:1048400033FA8442064602D8B4EB500FF4D821461E
:104850003846FEF7BBFF804608B94546ECE7B44250
:104860002246294628BF3246FFF7B7FB294638467D
:10487000FFF7E0FBF1E79368013B002B10B4936076
:1048800008DA9469A34201DB0A2903D15DF8044BDD
:1048900000F032B91368581C1060197008465DF8B2
:1048A000044B7047F8B506460F461446D518AC427F
:1048B00001D1002007E014F8011B3A463046FFF70B
:1048C000DAFF431CF3D1F8BD2DE9F04F0D469DB042
:1048D00014469846064618B1036A0BB9FFF7AAF9C1
:1048E0006B6ED90705D4AB899A0502D4A86DFFF782
:1048F00072FBAB891B0701D52B699BB92946304652
:1049000000F038F970B16B6EDC0704D54FF0FF3062
:104910001DB0BDE8F08FAB899805F7D4A86DFFF7FF
:104920005BFBF3E70023099320238DF82930CDF8B2
:104930000C803023DFF8AC818DF82A304FF001096C
:1049400023469A4613F8012B0AB1252AF9D1BAEB6E
:10495000040B0BD05B46224629463046FFF7A2FFE8
:10496000013000F0A780099A5A4409929AF8003061
:10497000002B00F09F8000234FF0FF32CDE905238C
:104980000AF1010A049307938DF853301A935446A1
:10499000052214F8011B5348FBF722FC049AD8B9EE
:1049A000D10644BF20238DF85330130744BF2B2377
:1049B0008DF853309AF800302A2B15D0079A5446B8
:1049C00000204FF00A0C214611F8013B303B092B27
:1049D0004BD9B0B1079214E0A0EB080309FA03F336
:1049E00013430493A246D2E7039B191D1B6803914E
:1049F000002BBBBF5B4242F0020207930793B8BF94
:104A0000049223782E2B0AD163782A2B32D1039B70
:104A10001A1D1B68039243EAE37302340593DFF81F
:104A2000D4A0217803225046FBF7DAFB38B1049B6F
:104A3000A0EB0A004022824013430134049314F88F
:104A4000011B29488DF828100622FBF7C9FB002816
:104A50003FD0264B1BBB039B073323F007030833D0
:104A60000393099B3B4409936AE70CFB02320C4613
:104A70000120A8E700230134059319464FF00A0CE2
:104A8000204610F8012B303A092A03D9002BC6D052
:104A90000591C4E70CFB012104460123F0E703ABB9
:104AA00000932A46124B04A93046AFF30080074614
:104AB000781CD6D16B6ED90705D4AB899A0502D480
:104AC000A86DFFF789FAAB895B063FF51FAF099820
:104AD0001EE703AB00932A46054B04A93046FFF7B7
:104AE000B9FCE4E7CB9B0008D59B00080000000060
:104AF000A5480008D19B0008F8B50E4614460546A7
:104B000018B1036A0BB9FFF795F8A369A360A389ED
:104B10001A0701D5236943B92146284600F02AF82F
:104B200018B14FF0FF373846F8BD23682269981A4C
:104B30006369F6B28342374605DC21462846FFF713
:104B40002BFE0028EDD1A368013BA36023685A1C0B
:104B500022601E706269431C9A4204D0A389DB075D
:104B6000E1D50A2EDFD121462846FFF715FE0028A1
:104B7000D9D0D6E738B5294B054618680C4618B188
:104B8000036A0BB9FFF756F8B4F90C30190722D4B1
:104B9000DA0607D409222A6043F04003A3814FF0CC
:104BA000FF3033E0580712D5616B41B104F1440383
:104BB000994202D02846FFF73DFA00236363A38998
:104BC00023F02403A3810023636023692360A38966
:104BD00043F00803A38123694BB9A38903F420732D
:104BE000B3F5007F03D02146284600F08BF8B4F9D6
:104BF0000C3013F001020AD00022A2606269524216
:104C0000A261226942B913F08000C5D138BD99076D
:104C100058BF6269A260F4E70020F7E74400002073
:104C20001F2938B505460C4604D9162303604FF0FA
:104C3000FF3038BDC26B12B152F821304BB9284653
:104C400000F030F8224601462846BDE8384000F022
:104C500017B8012B0AD0591C03D116230360012079
:104C6000E7E7002142F82410204698470020E0E7BB
:104C7000024B01461868FFF7D3BF00BF4400002075
:104C800038B5074D00230446084611462B60FCF753
:104C900011FB431C02D12B6803B1236038BD00BF58
:104CA00088470020FCF704BB51F8043C181F002B78
:104CB000BCBF0B58C018704770B50C46B1F90E1048
:104CC000002996B015461E460DDAA38913F0800F11
:104CD0004FF0000114BF40234FF480630020316087
:104CE0002B6016B070BD6A4600F048F80028ECDB77
:104CF000019901F47041A1F50053594259414FF413
:104D00008063EBE78B89F7B59D0706460C4607D510
:104D100004F14703236023610123636103B0F0BD05
:104D200001AB6A46FFF7C8FF009F0546394630468B
:104D3000FEF74CFD48B9B4F90C309A05EED423F0D7
:104D4000030343F00203A381E2E7A389206043F059
:104D50008003A381019BC4E904075BB1B4F90E1081
:104D6000304600F01DF828B1A38923F0030343F077
:104D70000103A381A3891D43A581CFE738B5074D62
:104D800000230446084611462B60FCF7C0FA431C7A
:104D900002D12B6803B1236038BD00BF88470020D3
:104DA00038B5064D0023044608462B60FCF7B4FADC
:104DB000431C02D12B6803B1236038BD8847002013
:104DC000F8B500BFF8BC08BC9E467047F8B500BFF8
:104DD000F8BC08BC9E4670470000000000000000C0
:104DE00000000000000000000000000000000000C3
:104DF00000000000000000000000000000000000B3
:104E000000000000000000000000000000000000A2
:104E10000000000000000000000000000000000092
:109A2000686F7473706F742D6D3500000000000056
:109A30000000000000000000000000000000000026
:109A40006775616B34373638000000000000000095
:109A50000000000000000000000000000000000006
:109A600000000000000000000000000000000000F6
:109A70000000000000000000000000000000004F97
:109A80004B0D0A004552524F520D0A0041542B25EE
:109A9000730041542B25733D002C002225732200B6
:109AA000310048545450434C49454E540043574AA2
:109AB00041500032303438003130303030004854BA
:109AC000545047455453495A45003A002252616E5A
:109AD00067653A2062797465733D25642D2564229B
:109AE0000043574D4F444500782D63726333320075
:109AF000782D666F72636575706400687474703A6F
:109B00002F2F3139322E3136382E3130302E313739
:109B1000303A383030302F6C6174657374005245C0
:109B2000454E54206D616C6C6F6320737563636583
:109B300065646564002F6275696C642F676E752DAE
:109B4000746F6F6C732D666F722D73746D33325F2B
:109B500031332E332E72656C312E3230323430393F
:109B600032362D313731352F7372632F6E65776C36
:109B700069622F6E65776C69622F6C6962632F73FF
:109B80007472696E672F737472746F6B2E63002C1E
:109B90002066756E6374696F6E3A20006173736539
:109BA0007274696F6E2022257322206661696C656C
:109BB000643A2066696C6520222573222C206C692A
:109BC0006E65202564257325730A00232D302B2014
:109BD00000686C4C0065666745464700303132339B
:109BE0003435363738394142434445460030313206
:109BF0003334353637383961626364656600000096
:109C0000A0860100400D0300801A060000350C00FC
:109C100040420F0080841E0000093D0000127A00BF
:109C20000024F40000366E010048E801006CDC02FC
:109C3000000000000102030400000000000000001A
:109C4000010203040607080900202020202020200C
:109C500020202828282828202020202020202020DC
:109C600020202020202020202088101010101010EC
:109C70001010101010101010100404040404040438
:109C800004040410101010101010414141414141D2
:109C900001010101010101010101010101010101B4
:109CA00001010101101010101010424242424242C4
:109CB0000202020202020202020202020202020284
:109CC000020202021010101020000000000000002C
:109CD0000000000000000000000000000000000084
:109CE0000000000000000000000000000000000074
:109CF0000000000000000000000000000000000064
:109D00000000000000000000000000000000000053
:109D10000000000000000000000000000000000043
:109D20000000000000000000000000000000000033
:109D30000000000000000000000000000000000023
:0C9D400000000000000000000000000017
:089D4C008464FF7F01000000A8
:049D5400B50100084D
:049D5800910100086D
:109D5C0008000020090000201F79000000093D00C8
:109D6C0001000000100000000000000000000000D6
:109D7C0000000000000000000100000000000000D6
:109D8C0000000000000000000000000003000000C4
:109D9C004C46002048000020000000004C460020EB
:109DAC00B44600201C47002000000000000000000A
:109DBC000000000000000000000000000000000097
:109DCC000000000000000000000000000000000087
:109DDC000000000000000000000000000000000077
:109DEC0000000000204B984270B58CBFA0F50025F8
:109DFC00054604461D488CBF0126002600F040F89D
:109E0C001B4800F03DF800F03FF800F041F872B646
:109E1C004FF0E02300221A615A619A61CEB1154BC2
:109E2C0015491A6822F480721A601A6822F4C0620A
:109E3C001A601A6842F4C0521A600A6842F48072BE
:109E4C000A601A6842F480721A601A6842F4C0629E
:109E5C001A600A4B9C60BFF34F8FBFF36F8F62B6D3
:109E6C006B689847FEE700BFFFFF0708B845002066
:109E7C0030450020002002400000014000ED00E0D1
:109E8C005FF800F0A52E00085FF800F055200008E0
:089E9C005FF800F099150008C1
:040000050800154595
:00000001FF
